S00B00005254502E7372656323
S113000093C00000B1C00000AFC00000ADC000004C
S1130010ABC00000A9C00000A7C00000A5C000003C
S1130020A3C00000A1C000009FC000009DC000004C
S1130030DFC3000099C0000097C0000095C0000015
S113004093C0000091C000008FC000008DC000006C
S11300508BC0000089C0000087C0000085C000007C
S113006083C000000C9412120C9464127DC0000032
S11300707BC0000079C0000077C0000075C000009C
S113008073C0000071C000006FC000006DC00000AC
S11300900C94A8120C94FA1267C0000065C000000A
S11300A063C0000061C000005FC000005DC00000CC
S11300B05BC0000059C0000057C0000055C00000DC
S11300C053C0000051C000004FC000000C943E1308
S11300D00C94901349C000000C94D4130C9426146F
S11300E043C000004310431043107A10821097104D
S11300F0431043107A1082106CD78091770C8230B1
S113010008F0B2D20E94C010F7CFCF93DF931F92B2
S1130110CDB7DEB7CE0101960E94C70D49810E947A
S1130120BA0F0E940D10F6CF11241FBECFEFD1E2FB
S1130130DEBFCDBF00E00CBF12E0A0E0B2E0EEE312
S1130140F5E300E00BBF02C007900D92A235B107A2
S1130150D9F72DE0A2E5B2E001C01D92AD31B2079E
S1130160E1F746D00C949D1A4BCF82B18A7F82B9B5
S11301706EE070E080E090E00E944E0B82B18570EA
S113018082B96EE070E080E090E00E944E0B8DE159
S113019092E09F938F930E94AD1782B18A7F82B9B8
S11301A06EE070E080E090E00E944E0B82B18570BA
S11301B082B90F900F90E5CFEF92FF920F93E12C4D
S11301C0F12C01E020E030E040EC50E067E272E026
S11301D085EB90E0C1D70F91FF90EF90089585E0F3
S11301E081B98AE082B980E00E940211E5CF0895C6
S11301F0F6DF83E392E00E94C017F7D7FFCFE8E071
S1130200F1E09081907F908390818F70982B908300
S11302100895E8E0F1E08081807F80830895EEE531
S1130220F2E0A2E6B2E0B183A08313821282E2E29A
S1130230FCE0F0935D02E0935C021382128211826F
S1130240108280EC99E013969C938E931297ED9311
S1130250FC93909359028093580290935B0280938D
S11302605A0280E090E890935302809352020895DA
S1130270CF93DF93EC01AEE5B2E001C0DF01ED9175
S1130280FC911197EC17FD07C8F312968D919C9180
S113029013979D01280F391FC217D30749F42A81E8
S11302A03B81820F931F13969C938E931297ED01BB
S11302B08A819B819E01280F391FE217F307C1F43D
S11302C020915C0230915D02E217F30771F0228104
S11302D03381820F931F9B838A83ED91FC91119745
S11302E0808191819983888305C03983288302C0E2
S11302F0F983E883CA17DB0711F0CD93DC93DF9110
S1130300CF910895EF92FF920F931F93CF93DF93B2
S11303108C01A8D780915C0290915D02892B09F42D
S11303207EDF809152029091530280239123892B86
S113033009F076C00115110549F0C80104960817A3
S1130340190718F000E010E001C08C010115110537
S113035009F469C080915A0290915B028017910759
S113036008F464C0C0915E02D0915F02EEE5F2E051
S113037002C0FE01EC018A819B818017910720F461
S1130380888199810097A9F780915C0290915D0220
S1130390C817D90709F44DC0E080F18084E0E80E65
S11303A0F11C88819981918380832A813B81201B60
S11303B0310B2930310548F0CE01800F911FFC012B
S11303C0338322831B830A8353DF2A813B818091F9
S11303D05A0290915B02821B930B90935B02809371
S11303E05A0240915802509159028417950720F4FB
S11303F09093590280935802809152029091530233
S1130400282B392B3B832A83198218828091560228
S113041090915702019690935702809356020BC015
S1130420E12CF12C08C0E12CF12C05C0E12CF12CBD
S113043002C0E12CF12C0E94720AE114F10411F4BF
S11304400E94CC10C701DF91CF911F910F91FF90B3
S1130450EF9008950F931F93CF93DF93009789F143
S1130460EC0124974A815B8120915202309153021E
S1130470BA0162237323672B21F168817981672B89
S113048001F520953095242335233B832A83EAD62E
S11304908A819B8120915A0230915B02820F931FC3
S11304A090935B0280935A02CE01E2DE8091540263
S11304B090915502019690935502809354020E94A4
S11304C0720ADF91CF911F910F910895FC01039659
S11304D0928381834FEF5FEFBA0143835483658333
S11304E07683908787839287818710820895FC01A1
S11304F01386128608950F931F93CF93DF93EB0116
S1130500088119812A813B810F3F4FEF140724078B
S1130510340721F4FC01A185B28511C0DC011396D6
S113052001C0DF011496ED91FC9115974081518132
S113053062817381041715072607370790F714960D
S1130540ED91FC911597FD83EC83D783C683BF831C
S1130550AE831596DC93CE9314979B878A87FC0110
S113056020812F5F2083DF91CF911F910F910895F8
S1130570CF93DF93FC01A285B385C481D5818681A5
S113058097819F838E83C681D781848195819D8342
S11305908C8311968D919C911297E817F90731F489
S11305A08681978112969C938E9311971386128657
S11305B08C9181508C938C91DF91CF910895A89563
S11305C090EC88E10FB6F894A895809360000FBE74
S11305D0909360000895FC01608331977083319794
S11305E0108231971082319720E82083319710824E
S11305F031971082319710827797408331975083D7
S113060086970895DCDFA091E50CB091E60CCD91BE
S1130610CDBFDD91DEBFFF91EF91DF91CF91BF910F
S1130620AF919F918F917F916F915F914F913F9186
S11306302F911F910F91FF90EF90DF90CF90BF907B
S1130640AF909F908F907F906F905F904F903F906E
S11306502F901F900F900CBE0F900BBE0F900FBEEB
S11306600F90089581E008950F920FB6F8940F92B9
S11306700BB60F920CB60F921F9211242F923F9239
S11306804F925F926F927F928F929F92AF92BF929E
S1130690CF92DF92EF92FF920F931F932F933F938A
S11306A04F935F936F937F938F939F93AF93BF9376
S11306B0CF93DF93EF93FF93A091E50CB091E60CF9
S11306C00DB60D920EB60D920E94690BA091E50C29
S11306D0B091E60CCD91CDBFDD91DEBFFF91EF91DE
S11306E0DF91CF91BF91AF919F918F917F916F9146
S11306F05F914F913F912F911F910F91FF90EF9038
S1130700DF90CF90BF90AF909F908F907F906F902D
S11307105F904F903F902F901F900F900CBE0F90C2
S11307200BBE0F900FBE0F9008950F920FB6F89462
S11307300F920BB60F920CB60F921F9211242F92A8
S11307403F924F925F926F927F928F929F92AF925D
S1130750BF92CF92DF92EF92FF920F931F932F934A
S11307603F934F935F936F937F938F939F93AF9335
S1130770BF93CF93DF93EF93FF93A091E50CB091D8
S1130780E60C0DB60D920EB60D9213BE7FD58111F7
S1130790A0D7A091E50CB091E60CCD91CDBFDD9131
S11307A0DEBFFF91EF91DF91CF91BF91AF919F9108
S11307B08F917F916F915F914F913F912F911F91F5
S11307C00F91FF90EF90DF90CF90BF90AF909F90EC
S11307D08F907F906F905F904F903F902F901F90DD
S11307E00F900CBE0F900BBE0F900FBE0F9008958C
S11307F09CDF18950FB6F8940F92FC01868D811139
S113080002C081E001C080E00F900FBE08950FB6D2
S1130810F8940F92FC01268D878D281302C081E085
S113082001C080E00F900FBE08950F931F93CF93E4
S1130830DF93EC01042F1E8D48A141110CC0888167
S11308409981892B09F042C08C819D810E946C0D95
S11308501D821C8242C0011117C050E08A819B8115
S11308600E949D1728A18A819B81820F911D9B83E1
S11308708A832C813D818217930750F18881998165
S11308809B838A8380E029C050E08E819F810E94EF
S11308909D1788A190E09195819591092E813F81C2
S11308A0280F391F3F832E83488159812417350728
S11308B030F42C813D81820F931F9F838E830230FD
S11308C049F4112349F0115080E007C080E005C0CD
S11308D080E003C080E001C080E01F5F1E8FDF91D5
S11308E0CF911F910F910895FC0140A14423A9F0D9
S11308F050E026813781240F351F37832683848176
S113090095812817390720F0808191819783868308
S1130910CB01668177810C949D1708951F93CF9323
S1130920DF93EC010FB6F8940F921AA10AC08B89D9
S1130930882349F0CE01439697D781110E945A0D1E
S113094011501116A4F38FEF8AA30F900FBE0FB6A8
S1130950F8940F9219A10AC08885882349F0CE0122
S1130960089682D781110E945A0D11501116A4F3D2
S11309708FEF89A30F900FBEDF91CF911F91089540
S1130980CF93DF93EC010FB6F8940F92E881F981CD
S11309908F8D28A190E030E0829FA001839F500DAD
S11309A0929F500D11244E0F5F1F5D834C831E8E4A
S11309B0FB83EA830197289FA001299F500D389F4C
S11309C0500D1124CF01840F951F9F838E838FEFC9
S11309D089A38AA361110AC08885882369F0CE019E
S11309E0089642D7882341F03FDE06C0CE01089620
S11309F06DDDCE0143966ADD0F900FBE81E0DF917D
S1130A00CF9108950F931F93F801611103C01183CF
S1130A10008302C051834083878F60A361E0CF01CC
S1130A20AFDF1F910F910895DF92EF92FF920F9322
S1130A301F93CF93DF93F82EE62ED42E869FC0010A
S1130A40112483965FDCEC01009741F08C012D2D7D
S1130A50AC014D5D5F4F6E2D8F2DD4DFCE01DF9144
S1130A60CF911F910F91FF90EF90DF900895CF9257
S1130A70DF92EF92FF920F931F93CF93DF93CDB743
S1130A80DEB729970FB6F894DEBF0FBECDBF7C0149
S1130A906B012E833F834887598710E00FB6F89483
S1130AA00F92F701968D878D981710F00230A9F4F4
S1130AB0402FB601C701B9DEF7019389992339F0B4
S1130AC0C7014396D1D6882321F0CEDD02C081111F
S1130AD0CBDD0F900FBE81E046C08E819F81A8853B
S1130AE0B985892B8A2B8B2B21F40F900FBE80E0C4
S1130AF03AC0111104C0CE01019665D711E00F90E0
S1130B000FBEB0D30FB6F8940F92F70181A18F3FB7
S1130B1009F411A2F70182A18F3F09F412A20F90E8
S1130B200FBEBE016A5F7F4FCE0101965DD7811172
S1130B3016C0C7016CDE882371F04E815F81688521
S1130B407985C701089637D6C701E8DECBD4811171
S1130B50A5CF8ADDA3CFC701E1DEC4D49FCFC701EF
S1130B60DDDEC0D480E029960FB6F894DEBF0FBE58
S1130B70CDBFDF91CF911F910F91FF90EF90DF9048
S1130B80CF900895EF92FF920F931F93CF93DF932B
S1130B908A01FC01568D378D531710F02230F1F481
S1130BA0422F7801EC011AA18E8DCE013EDE1F3F4B
S1130BB079F48B898823A1F0CE01439655D68823F6
S1130BC089F0E114F10481F081E0F70180830DC024
S1130BD0FF24F394F10EFAA281E007C080E005C07F
S1130BE081E003C081E001C081E0DF91CF911F91DA
S1130BF00F91FF90EF900895CF92DF92EF92FF92C2
S1130C000F931F93CF93DF93CDB7DEB729970FB61A
S1130C10F894DEBF0FBECDBF8C016B012E833F83E2
S1130C2048875987E12C0FB6F8940F92F801F68C97
S1130C30FF2091F0B601C80157DEFA94F801F68E50
S1130C408085882329F0C80108960ED681110CDD11
S1130C500F900FBE81E04CC08E819F81A885B9851D
S1130C60892B8A2B8B2B21F40F900FBE80E040C080
S1130C70E11005C0CE010196A6D6EE24E3940F90B0
S1130C800FBEF0D20FB6F8940F92F80181A18F3FF6
S1130C9009F411A2F80182A18F3F09F412A20F9066
S1130CA00FBEBE016A5F7F4FCE0101969DD68111B2
S1130CB016C0C8019FDD882371F04E815F8168856D
S1130CC07985C801439677D5C80128DE0BD48111F4
S1130CD0AACFCADCA8CFC80121DE04D4A4CFC8019E
S1130CE01DDE00D4C80186DD882309F49CCF80E092
S1130CF029960FB6F894DEBF0FBECDBFDF91CF911A
S1130D001F910F91FF90EF90DF90CF900895CF93B4
S1130D10DF93EC010FB6F8940F9289A18F3F09F489
S1130D2019A28AA18F3F09F41AA20F900FBE8E8DCB
S1130D30811103C0CE01439655D5CE01EFDDDF917D
S1130D40CF910895E0915F0CF091600C8081811146
S1130D500CC08FEF9FEFDC018093290C90932A0C39
S1130D60A0932B0CB0932C0C0895E0915F0CF091A0
S1130D70600C0780F085E02D80819181A281B38190
S1130D808093290C90932A0CA0932B0CB0932C0CD9
S1130D900895CF93DF93EC018B8D9C8D5BDBCE01AB
S1130DA059DBDF91CF9108954F925F926F927F92BA
S1130DB08F929F92AF92BF92CF92DF92EF92FF9267
S1130DC00F93CF93DF932C015B014A013901E601B4
S1130DD065EA70E08B8D9C8D0E94A6178B8D9C8D8F
S1130DE021E0821A9108880E991EA114B10489F495
S1130DF015C0822F90E0F501E80FF91F3081DE0164
S1130E00A80FB91F5D963C938081882329F02F5F3A
S1130E1001C020E0203168F31CA601C01D8E0A30F9
S1130E2008F009E00A8F0DA71EA6CE0102965FDB2B
S1130E30CE010E965CDBDB87CA878AE090E0A0E0F7
S1130E40B0E0801B9109A109B1098E879F87A88B07
S1130E50B98BDF8BCE8B18AA1FA684E0FE01F19616
S1130E60DF011D928A95E9F71DAAA301B201C4010D
S1130E70B2DB99838883E114F10419F0F701D1837B
S1130E80C083DF91CF910F91FF90EF90DF90CF90CF
S1130E90BF90AF909F908F907F906F905F904F9096
S1130EA00895CF93C0E008C02BE0C29FC001112475
S1130EB08958934F0BDBCF5FCA30B0F38CE69CE0CC
S1130EC005DB81E69CE002DB82E59CE0FFDA87E457
S1130ED09CE0FCDA8BE39CE0F9DA8CE69CE09093EE
S1130EE0600C80935F0C81E69CE090935E0C809391
S1130EF05D0CCF910895CF93DF93EC010FB6F89476
S1130F000F9280913A0C8F5F80933A0C8091E50C9C
S1130F109091E60C892B51F4D093E60CC093E50C28
S1130F2080913A0C813091F4BCDF10C08091340C74
S1130F3081110CC0E091E50CF091E60C928D8A8D44
S1130F40891720F0D093E60CC093E50C80912D0C0A
S1130F508F5F80932D0CEA8D8091350C8E1710F4E1
S1130F60E093350C8BE08E9FF0011124E958F34F88
S1130F700180F281E02DFF83EE832681378139875A
S1130F802887A681B7819E012E5F3F4F15963C931B
S1130F902E93149737832683EA8D8E9FF0011124B4
S1130FA0E958F34FFD87EC8780818F5F80830F9032
S1130FB00FBE8091340C882349F0E091E50CF09148
S1130FC0E60C928D8A8D981708F44EDBDF91CF9151
S1130FD00895CF93DF931AC00FB6F8940F92E0915F
S1130FE04E0CF0914F0CC085D185CE010296C0DA2B
S1130FF080913A0C815080933A0C8091460C815038
S11310008093460C0F900FBECE01C3DE8091460C38
S11310108111E2CFDF91CF9108958F929F92AF9289
S1131020BF92CF92DF92EF92FF92CF93DF936B0147
S11310307C01C42F8090360C9090370CA090380C13
S1131040B090390C8091E50C9091E60C029690DA00
S11310508FEFC816D806E806F806B1F5CC23A1F13F
S1131060EBE3FCE0A181B281C091E50CD091E60CE8
S1131070BF83AE83C091E50CD091E60C16968D919A
S11310809C911797998788871696CD91DC9117972D
S11310908091E50C9091E60C02969D838C8380915F
S11310A0E50C9091E60C029617969C938E931697F6
S11310B0A091E50CB091E60C1D96FC93EE931C9761
S11310C080818F5F80833DC0C80CD91CEA1CFB1C47
S11310D0E091E50CF091E60CC282D382E482F582C1
S11310E0C814D904EA04FB0460F46091E50C70911F
S11310F0E60C80915D0C90915E0C6E5F7F4FFBD986
S113110020C06091E50C7091E60C80915F0C909189
S1131110600C6E5F7F4FEFD98091290C90912A0C5F
S1131120A0912B0CB0912C0CC816D906EA06FB062C
S113113040F4C092290CD0922A0CE0922B0CF0922D
S11311402C0CDF91CF91FF90EF90DF90CF90BF9068
S1131150AF909F908F9008952F923F924F925F92FD
S11311606F927F928F929F92AF92BF92CF92DF92B3
S1131170EF92FF920F93CF93DF933C011B014A013F
S11311802901CA01BFD86C01892B61F086E390E084
S1131190B9D8EC01892B19F0DC8ECB8E05C0C601C1
S11311A059D902C0C0E0D0E0209761F0A12CB12C45
S11311B06E019201A401B101C301F6DDCE019BDEF3
S11311C081E001C08FEFDF91CF910F91FF90EF90FD
S11311D0DF90CF90BF90AF909F908F907F906F9053
S11311E05F904F903F902F900895EF92FF920F934E
S11311F00F2EF7E2EF2EFCE0FF2EF02D00E020E0B2
S113120030E040EC50E065E472E08CE790E0A4DF6D
S1131210813009F446D58130F9F4F8948FEF9FEFCB
S1131220DC018093290C90932A0CA0932B0CB0938F
S11312302C0C81E08093340C1092360C1092370CF5
S11312401092380C1092390CE091E50CF091E60CF8
S113125087A50E94FF00D6D9809106020F91FF90C6
S1131260EF9008958091260C8F5F8093260C08954B
S11312700FB6F8940F926091360C7091370C8091F0
S1131280380C9091390C0F900FBE0895CF92DF92D5
S1131290EF92FF92CF93DF938091260C811105C1C9
S11312A0C090360CD090370CE090380CF090390C8C
S11312B08FEFC81AD80AE80AF80AC092360CD092FE
S11312C0370CE092380CF092390CC114D104E104CB
S11312D0F104B1F480915F0C9091600C20915D0C4D
S11312E030915E0C3093600C20935F0C90935E0CF5
S11312F080935D0C80912E0C8F5F80932E0C22DDE9
S11313008091290C90912A0CA0912B0CB0912C0C5B
S1131310C816D906EA06FB0620F480E0B2C081E0D4
S113132001C080E0E0915F0CF091600C908191111C
S11313300CC04FEF5FEFBA014093290C50932A0C75
S113134060932B0C70932C0C9CC0E0915F0CF0917B
S1131350600C0780F085E02D0084F185E02D42814A
S1131360538164817581C416D506E606F70648F4F0
S11313704093290C50932A0C60932B0C70932C0CE3
S113138080C0A485B585C681D781208531853F83FA
S11313902E83C085D185268137813D832C83119688
S11313A04D915C9112979F012E5F3F4F4217530757
S11313B031F44085518512965C934E9311971586AE
S11313C014869C9191509C93A08DB18D109709F136
S11313D0C289D389448955895F834E83C489D58959
S11313E0428953895D834C8311966D917C91129748
S11313F0AF01425F5F4F6417750731F44489558923
S113140012965C934E931197118E108E9C9191506D
S11314109C93A28D9091350C9A1710F4A093350CDF
S11314209BE09A9FD0011124A958B34F11960D90B7
S1131430BC91A02DB783A68316964D915C91179706
S1131440518740871696CD91DC9117973D832C8365
S113145017963C932E931697A28D9A9FD001112430
S1131460A958B34FB587A4879C919F5F9C93228D05
S1131470E091E50CF091E60C928D291708F04FCF1E
S113148051CFE091E50CF091E60CE28D9BE0E99FF1
S1131490F0011124E958F34F9081923008F081E073
S11314A090912F0C911116C016C08091300C909120
S11314B0310CA091320CB091330C0196A11DB11DD9
S11314C08093300C9093310CA093320CB093330C76
S11314D080E001C081E0DF91CF91FF90EF90DF9039
S11314E0CF900895CF92DF92EF92FF92CF93DF9344
S11314F00FB6F8940F928091260C81508093260C9D
S11315008091260C8111BEC080913A0C811188C053
S1131510BCC0E091590CF0915A0C0084F185E02D87
S1131520A08DB18DC289D389848995899F838E8347
S1131530C489D589828993899D838C8311962D9141
S11315403C911297CF010E962817390731F48489FC
S1131550958912969C938E931197118E108E8C916F
S113156081508C93A485B585C681D781808591856A
S11315709F838E83C085D185868197819D838C834B
S113158011968D919C9112979F012E5F3F4F821768
S1131590930731F48085918512969C938E931197CD
S11315A0158614868C9181508C93A28D8091350C74
S11315B08A1710F4A093350C8BE08A9FD001112474
S11315C0A958B34F11960D90BC91A02DB783A68353
S11315D016964D915C911797518740871696CD9139
S11315E0DC9117973D832C8317963C932E93169783
S11315F0A28D8A9FD0011124A958B34FB587A4871F
S11316008C918F5F8C93928DA091E50CB091E60C38
S11316105A968C91981730F081E080932F0C02C079
S1131620E0E0F0E08091520C811173CFEF2B09F0D0
S113163089DBC090300CD090310CE090320CF090EB
S1131640330CC114D104E104F104A1F01FDE88239A
S113165019F081E080932F0C81E0C81AD108E108C9
S1131660F108A1F71092300C1092310C1092320C48
S11316701092330C80912F0C882331F00E94340394
S113168081E003C080E001C080E00F900FBEDF91D5
S1131690CF91FF90EF90DF90CF900895CF92DF929B
S11316A0EF92FF926B017C01672B682B692B39F059
S11316B0D9DD40E0C701B601B0DC14DF01C080E031
S11316C0811102C00E943403FF90EF90DF90CF900D
S11316D008958091260C882321F081E080932F0CBB
S11316E0089510922F0CE091E50CF091E60C87A57B
S11316F00E940901E091E50CF091E60C2081318112
S1131700E091E50CF091E60C838D948D821793079C
S113171058F06091E50C7091E60C635E7F4F809108
S1131720E50C9091E60C44D58091350C01C08150B4
S1131730282F30E09BE0929FF001939FF00D11243D
S1131740E958F34F9081992391F39BE0929FA00174
S1131750939F500D1124DF010180F281E02D04805C
S1131760F581E02D1296FC93EE9311974658534F52
S1131770E417F50729F444815581FD01528341831F
S11317809BE0929FF001939FF00D1124E958F34FD1
S11317900180F281E02D208531853093E60C209381
S11317A0E50C8093350CE091E50CF091E60C87A5EF
S11317B00C94FF000895CF92DF92EF92FF926A019A
S11317C07B016091E50C7091E60C625F7F4F0E9493
S11317D07B0241E0C701B60120DCFF90EF90DF906F
S11317E0CF900895CF93DF93FC01CB01BA01A1817F
S11317F0B281C091E50CD091E60CBB8BAA8BC09151
S1131800E50CD091E60C16964D915C9117975D8B83
S11318104C8B1696CD91DC9117974091E50C509125
S1131820E60C425F5F4F5D834C834091E50C509121
S1131830E60C425F5F4F17965C934E931697A09108
S1131840E50CB091E60C5996FC93EE9358973081D1
S11318503F5F3083222319F06FEF7FEFCB01422FDC
S1131860DCDBDF91CF910895CF93DF93DC011796F2
S1131870ED91FC9118970084F185E02DA08DB18D38
S1131880C289D389848995899F838E83C489D589A4
S1131890828993899D838C8311968D919C91129753
S11318A09F01225F3F4F8217930731F48489958902
S11318B012969C938E931197118E108E8C91815059
S11318C08C938091260C811152C0A485B585C68164
S11318D0D781808591859F838E83C085D1858681BC
S11318E097819D838C8311968D919C9112979F0172
S11318F02E5F3F4F8217930731F4808591851296AE
S11319009C938E931197158614868C9181508C9399
S1131910A28D8091350C8A1710F4A093350C8BE0BE
S11319208A9FD0011124A958B34F11960D90BC91F0
S1131930A02DB783A68316964D915C911797518776
S113194040871696CD91DC9117973D832C8317968B
S11319503C932E931697A28D8A9FD0011124A958E7
S1131960B34FB587A4878C918F5F8C931CC042E5DD
S11319705CE0DA011196CD91DC911297D38BC28B86
S11319808E819F81958B848B8E819F81DC0115963E
S11319903C932E9314973F832E83518F408FDA010B
S11319A08C918F5F8C93928DE091E50CF091E60C15
S11319B0828D891720F481E080932F0C01C080E090
S11319C0DF91CF91089520912E0CFC01208340914A
S11319D0360C5091370C6091380C7091390C41835E
S11319E052836383748308958F929F92AF92BF92C0
S11319F0CF92DF92EF92FF920F931F93CF93DF93D7
S1131A00FB010FB6F8940F92C090360CD090370CAF
S1131A10E090380CF090390CDC0111960D911D9179
S1131A202D913C91149746015701801A910AA20AFC
S1131A30B30A40815181628173814F3FBFEF5B07DD
S1131A406B077B0739F1EC01B881A0912E0CBA1712
S1131A5059F0C016D106E206F30630F01082118266
S1131A601282138281E017C084169506A606B70673
S1131A7058F4481959096A097B09408351836283E0
S1131A807383A1DF80E007C0108211821282138267
S1131A9081E001C080E00F900FBEDF91CF911F91D4
S1131AA00F91FF90EF90DF90CF90BF90AF909F90F9
S1131AB08F90089581E080932F0C08958091340CC9
S1131AC0882331F08091260C811104C082E00895AE
S1131AD081E0089580E008950F931F93CF93DF93DF
S1131AE0FC01892B09F449C086A5815086A7228D63
S1131AF095A5291709F443C0811143C0EF018F0153
S1131B000E5F1F4FC8010E94B802EDA5EA8F8AE05C
S1131B1090E0A0E0B0E08E1B9109A109B1098E8785
S1131B209F87A88BB98B8091350C8E1710F4E093A6
S1131B30350C8BE08E9FF0011124E958F34F01809E
S1131B40F281E02DFF83EE83268137813987288750
S1131B50A681B78115961C930E9314971783068359
S1131B60EA8D8E9FF0011124E958F34FFD87EC872D
S1131B7080818F5F808381E005C080E003C080E0C6
S1131B8001C080E0DF91CF911F910F910895DC0196
S1131B90E091F10CF091F20C808191E0811190E0E0
S1131BA09C93911108C00780F085E02D60817181BC
S1131BB082819381089560E070E0CB010895CF9213
S1131BC0DF92EF92FF920F931F93FC0142835383A2
S1131BD0648375839387828704171507260737075D
S1131BE0C0F00C191D092E093F0986859785A08927
S1131BF0B189081719072A073B0700F5BF016E5F73
S1131C007F4F8091EF0C9091F00C0E947B0280E05A
S1131C1018C00C151D052E053F0528F44C155D054F
S1131C206E057F0568F4BF016E5F7F4F8091F10CF4
S1131C309091F20C0E947B0280E003C081E001C01D
S1131C4081E01F910F91FF90EF90DF90CF90089566
S1131C500FB6F8940F928091ED0C9091EE0C892BB5
S1131C60E9F48EEF9CE00E94660283EF9CE00E9400
S1131C7066028EEF9CE09093F20C8093F10C83EF5C
S1131C809CE09093F00C8093EF0C40E067E08AE0D6
S1131C900E9414059093EE0C8093ED0C0F900FBEF0
S1131CA00895EF92FF920F93D3DF8091ED0C909102
S1131CB0EE0C892B89F00F2EFBEEEF2EFCE0FF2EAD
S1131CC0F02D03E020E030E040EC50E06AE472E004
S1131CD085E890E041DA01C080E00F91FF90EF9039
S1131CE008958F929F92AF92BF92CF92DF92EF921C
S1131CF0FF920F931F93CF93DF93CDB7DEB7279750
S1131D000FB6F894DEBF0FBECDBFE091ED0CF0919D
S1131D10EE0C309781F169832A833B834C835D8386
S1131D209F838E836630F4F4C9DE823069F400E068
S1131D30A7019601BE016F5F7F4F8091ED0C9091DA
S1131D40EE0C0E94370518C000E020E030E0A90145
S1131D50BE016F5F7F4F8091ED0C9091EE0C0E945D
S1131D6037050AC020E0A801BE016F5F7F4FCF0195
S1131D700E94C20501C080E027960FB6F894DEBF2A
S1131D800FBECDBFDF91CF911F910F91FF90EF90C8
S1131D90DF90CF90BF90AF909F908F9008958F92D7
S1131DA09F92AF92BF92CF92DF92EF92FF920F93E6
S1131DB01F93CF93DF933BC00780F085E02D808095
S1131DC09180A280B380C085D1858E010E5F1F4FA4
S1131DD0C8010E94B802EC89FD89CE0119958E894B
S1131DE082FF25C08E859F85A889B989880D991D94
S1131DF0AA1DBB1D88169906AA06BB0670F48A8321
S1131E009B83AC83BD83DB87CA87B8018091F10CC7
S1131E109091F20C0E947B020AC0C12CD12C760155
S1131E2000E010E0A501940160E0CE015ADFE091EA
S1131E30F10CF091F20C80818111BECF8091EF0CF6
S1131E409091F00C9093F20C8093F10CF093F00CC1
S1131E50E093EF0CDF91CF911F910F91FF90EF90E2
S1131E60DF90CF90BF90AF909F908F900895CF92C6
S1131E70DF92EF92FF92CF93DF93EC01F9D96B01DC
S1131E807C018091E70C9091E80CA091E90CB09151
S1131E90EA0CC816D906EA06FB0620F480DF81E0C6
S1131EA0888301C01882C092E70CD092E80CE092BB
S1131EB0E90CF092EA0CC701B601DF91CF91FF90D3
S1131EC0EF90DF90CF9008954F925F926F927F9240
S1131ED08F929F92AF92BF92CF92DF92EF92FF9236
S1131EE00F931F93CF93DF934B015C0129013A01B8
S1131EF0E091F10CF091F20C0780F085E02DC085A3
S1131F00D185CE0102960E94B8028E8982FF1BC041
S1131F104E855F8568897989480D591D6A1D7B1D29
S1131F207501640193018201CE0149DE882369F0C1
S1131F30C12CD12C760100E010E0A501940160E0F1
S1131F40CE01CFDE02C08E7F8E8BEC89FD89CE015F
S1131F501995DF91CF911F910F91FF90EF90DF9032
S1131F60CF90BF90AF909F908F907F906F905F9035
S1131F704F9008958F929F92AF92BF92CF92DF922B
S1131F80EF92FF921F93CF93DF931F92CDB7DEB7EB
S1131F906B017C01142F66D9CE01019668DF4B01D9
S1131FA05C01898181112BC011110CC08C149D041A
S1131FB0AE04BF0438F096DAA5019401C701B60156
S1131FC083DF1EC0112341F0E091EF0CF091F00C7F
S1131FD0808111E0811110E0B701A6014819590967
S1131FE06A097B09212F8091ED0C9091EE0C0E94DF
S1131FF0870678DA811104C00E94340301C072DAC2
S11320000F90DF91CF911F91FF90EF90DF90CF90D1
S1132010BF90AF909F908F900895AF92BF92CF9250
S1132020DF92EF92FF920F931F93CF93DF93CDB77D
S1132030DEB728970FB6F894DEBF0FBECDBF81C0C0
S1132040898188230CF47DC0AE80BF80D5011C96A5
S11320508D919C911D97892B21F0C50102960E94B8
S1132060B802CE01089603DF8B019C01E9810E2E94
S1132070000CFF0BEA30F10508F063C08827EE5826
S1132080FF4F8F4F2DC6F50186898160868BCA80EC
S1132090DB80EC80FD8046855785608971894C0D15
S11320A05D1D6E1D7F1DC5018ADD882309F449C0AD
S11320B0D5015496ED91FC915597C5011995F501FB
S11320C0868982FF3EC04A815B816C817D818685E1
S11320D09785A089B1899A01AB01280F391F4A1F3E
S11320E05B1FC12CD12C760100E010E060E0C5013B
S11320F0F8DD27C0D50156968C9156978E7F56965B
S11321008C931FC0F50186898160868B4A815B812F
S11321106C817D8146875787608B718B400F511F7F
S1132120621F731F68017901C50149DD0AC0F50109
S1132130868981FD04C0C5010E942A0202C08E7FE7
S1132140868B20E030E0A901BE016F5F7F4F809154
S1132150ED0C9091EE0C0E94FC05811171CF289634
S11321600FB6F894DEBF0FBECDBFDF91CF911F91A4
S11321700F91FF90EF90DF90CF90BF90AF900895B4
S1132180089584B1806884B985B1806885B908955B
S113219083B1806883B90895F4DF2FEF80E792E07C
S11321A0215080409040E1F700C00000F1DFF5CFFE
S11321B0E8DF2FEF87EA91E6215080409040E1F775
S11321C000C00000E5DFF5CFCF93DF931F92CDB7BA
S11321D0DEB7BE016F5F7F4F8091090D90910A0DAC
S11321E001D18111F6CF898190E00F90DF91CF91D9
S11321F00895682F8091090D90910A0DC8D080E050
S113220090E008958F929F92AF92CF92EF920F93A6
S1132210812C912C6894AA24A7F86894CC24C7F83C
S1132220E12C00E023E040E051EE60E070E013D0E8
S113223090930A0D8093090DE7E1FDE087E092E0B9
S113224091838083938382830F91EF90CF90AF909B
S11322509F908F9008952F923F924F925F926F922A
S11322607F928F929F92AF92CF92EF92FF920F93B1
S11322701F93CF93DF93CDB7DEB7F82E2A013B012E
S113228088E090E035D58C018F2D90E0FC01EE0FB5
S1132290FF1FE55FF24F118300830115110509F457
S11322A064C0880F991FFC01EB5EFD4F8081918112
S11322B0D8018D939C938C2D90E0880F991F880FE3
S11322C0991F16D51C0186E090E012D57C014C2D97
S11322D0B10100D3F801F582E4828A2D90E0880FE1
S11322E0991F880F991F04D51C0186E090E000D542
S11322F07C014A2DB101EED2D8011396FC92EE92E4
S1132300129717969C928E921697FFB6F894ED91B9
S1132310FC91119736978081826080838D909C9088
S1132320C301B201ECD320E030E040E051E475D4C5
S11323309B01AC0160E074E284E79BE44CD320E0B1
S113234030E040E85FE3E2D2AED3F4013297608339
S1132350D801ED91FC911197359788E98083ED912F
S1132360FC91349786E08083FFBEC801DF91CF9152
S11323701F910F91FF90EF90CF90AF909F908F900F
S11323807F906F905F904F903F902F900895CF93E0
S1132390DF93DC01892B01F11296ED91FC911397E7
S11323A0938182812581981B922384819817B1F0AF
S11323B0838126952823C081D181C20FD11D6883D2
S11323C08F5F958189238383ED91FC91359780817B
S11323D08062808380E003C081E001C082E0DF91FD
S11323E0CF9108950097D1F0DC011496ED91FC9102
S11323F0159793818281981799F0928185818695AA
S11324008923A081B181A80FB11D8C91DB018C932C
S11324109F5F85819823928380E0089581E00895E9
S113242083E008951F920F920FB60F9211240BB6FA
S11324300F922F933F934F935F936F937F938F9359
S11324409F93AF93BF93CF93DF93EF93FF93A091A9
S11324500B0DB0910C0D109711F16091C6001496FC
S1132460ED91FC911597938182812581981B92238C
S11324708481981761F0838126952823C081D181B6
S1132480C20FD11D68838F5F95818923838316963C
S1132490ED91FC911797309711F0CD011995FF91AB
S11324A0EF91DF91CF91BF91AF919F918F917F91E8
S11324B06F915F914F913F912F910F900BBE0F90B1
S11324C00FBE0F901F9018951F920F920FB60F9288
S11324D011240BB60F922F938F939F93AF93BF93B7
S11324E0EF93FF93E0910B0DF0910C0D3097B9F041
S11324F00280F381E02D938182819817B1F092815B
S11325008581282F26952923A081B181A20FB11D91
S11325102C919F5F892382832093C6000BC0E1EC3A
S1132520F0E080818F7D808305C0E1ECF0E0808164
S11325308F7D8083FF91EF91BF91AF919F918F9198
S11325402F910F900BBE0F900FBE0F901F901895F8
S11325501F920F920FB60F9211240BB60F922F9366
S11325603F934F935F936F937F938F939F93AF9317
S1132570BF93CF93DF93EF93FF93A0910D0DB09191
S11325800E0D109711F16091CE001496ED91FC910F
S11325901597938182812581981B922384819817B2
S11325A061F0838126952823C081D181C20FD11D7A
S11325B068838F5F9581892383831696ED91FC91BF
S11325C01797309711F0CD011995FF91EF91DF9195
S11325D0CF91BF91AF919F918F917F916F915F91B7
S11325E04F913F912F910F900BBE0F900FBE0F9004
S11325F01F9018951F920F920FB60F9211240BB6CD
S11326000F922F938F939F93AF93BF93EF93FF9367
S1132610E0910D0DF0910E0D3097B9F00280F38129
S1132620E02D938182819817B1F092818581282FC2
S113263026952923A081B181A20FB11D2C919F5F02
S1132640892382832093CE000BC0E9ECF0E08081E3
S11326508F7D808305C0E9ECF0E080818F7D8083ED
S1132660FF91EF91BF91AF919F918F912F910F9017
S11326700BBE0F900FBE0F901F9018951F920F92D4
S11326800FB60F9211240BB60F922F933F934F93D3
S11326905F936F937F938F939F93AF93BF93CF93E6
S11326A0DF93EF93FF93A0910F0DB091100D10974E
S11326B011F16091D6001496ED91FC9115979381D8
S11326C082812581981B92238481981761F08381EC
S11326D026952823C081D181C20FD11D68838F5FC5
S11326E09581892383831696ED91FC9117973097F2
S11326F011F0CD011995FF91EF91DF91CF91BF9129
S1132700AF919F918F917F916F915F914F913F9185
S11327102F910F900BBE0F900FBE0F901F90189526
S11327201F920F920FB60F9211240BB60F922F9394
S11327308F939F93AF93BF93EF93FF93E0910F0D0C
S1132740F091100D3097B9F00280F381E02D938160
S113275082819817B1F092818581282F26952923AB
S1132760A081B181A20FB11D2C919F5F8923828327
S11327702093D6000BC0E1EDF0E080818F7D808353
S113278005C0E1EDF0E080818F7D8083FF91EF91C2
S1132790BF91AF919F918F912F910F900BBE0F908E
S11327A00FBE0F901F9018951F920F920FB60F92A5
S11327B011240BB60F922F933F934F935F936F9314
S11327C07F938F939F93AF93BF93CF93DF93EF93B5
S11327D0FF93A091110DB091120D109711F160911A
S11327E036011496ED91FC91159793818281258190
S11327F0981B92238481981761F08381269528235E
S1132800C081D181C20FD11D68838F5F95818923D7
S113281083831696ED91FC911797309711F0CD01B3
S11328201995FF91EF91DF91CF91BF91AF919F9156
S11328308F917F916F915F914F913F912F910F9065
S11328400BBE0F900FBE0F901F9018951F920F9202
S11328500FB60F9211240BB60F922F938F939F9361
S1132860AF93BF93EF93FF93E091110DF091120D8D
S11328703097B9F00280F381E02D9381828198171B
S1132880B1F092818581282F26952923A081B181D9
S1132890A20FB11D2C919F5F89238283209336015F
S11328A00BC0E1E3F1E080818F7D808305C0E1E32B
S11328B0F1E080818F7D8083FF91EF91BF91AF9193
S11328C09F918F912F910F900BBE0F900FBE0F9081
S11328D01F901895FC01411101C02BD3842F90E067
S11328E09C012150310982239323892B09F021D3A0
S11328F0413808F01ED3128213824483440F41509E
S113290045837183608380E090E008955058BB272D
S1132910AA270ED048C139D130F03ED120F031F48D
S11329209F3F11F41EF42EC10EF4E095E7FB24C181
S1132930E92F4AD180F3BA17620773078407950712
S113294018F071F49EF562C10EF4E0950B2EBA2FC7
S1132950A02D0B01B90190010C01CA01A0011124A1
S1132960FF27591B99F0593F50F4503E68F11A164D
S1132970F040A22F232F342F4427585FF3CF4695DE
S113298037952795A795F0405395C9F77EF41F1600
S1132990BA0B620B730B840BBAF09150A1F0FF0FCA
S11329A0BB1F661F771F881FC2F70EC0BA0F621FB6
S11329B0731F841F48F4879577956795B795F795A6
S11329C09E3F08F0B3CF9395880F08F09927EE0F38
S11329D09795879508950CD0E6C0DED040F0D5D009
S11329E030F021F45F3F19F0C7C0511110C1CAC0C3
S11329F0EBD098F39923C9F35523B1F3951B550BE9
S1132A00BB27AA2762177307840738F09F5F5F4FBD
S1132A10220F331F441FAA1FA9F333D00E2E3AF0FE
S1132A20E0E830D091505040E695001CCAF729D018
S1132A30FE2F27D0660F771F881FBB1F2617370767
S1132A404807AB07B0E809F0BB0B802DBF01FF2797
S1132A5093585F4F2AF09E3F510568F08DC0D7C050
S1132A605F3FECF3983EDCF3869577956795B795D1
S1132A70F7959F5FC9F7880F911D9695879597F9EC
S1132A800895E1E0660F771F881FBB1F6217730765
S1132A908407BA0720F0621B730B840BBA0BEE1F7A
S1132AA088F7E095089598D088F09F5790F0B92F53
S1132AB09927B751A0F0D1F0660F771F881F991F8F
S1132AC01AF0BA95C9F712C0B13081F09FD0B1E0C5
S1132AD008959CC0672F782F8827B85F39F0B93FD5
S1132AE0CCF3869577956795B395D9F73EF4909591
S1132AF08095709561957F4F8F4F9F4F0895E8940F
S1132B0009C097FB3EF490958095709561957F4F31
S1132B108F4F9F4F9923A9F0F92F96E9BB279395DF
S1132B20F695879577956795B795F111F8CFFAF4EF
S1132B30BB0F11F460FF1BC06F5F7F4F8F4F9F4F20
S1132B4016C0882311F096E911C0772321F09EE87E
S1132B50872F762F05C0662371F096E8862F70E0E4
S1132B6060E02AF09A95660F771F881FDAF7880FBE
S1132B709695879597F9089597F99F6780E870E08F
S1132B8060E008959FEF80EC089500240A941616DF
S1132B90170618060906089500240A941216130647
S1132BA0140605060895092E0394000C11F48823D5
S1132BB052F0BB0F40F4BF2B11F460FF04C06F5FF1
S1132BC07F4F8F4F9F4F089557FD9058440F551FC7
S1132BD059F05F3F71F04795880F97FB991F61F09B
S1132BE09F3F79F087950895121613061406551F12
S1132BF0F2CF4695F1DF08C0161617061806991F7E
S1132C00F1CF86957105610508940895E894BB2772
S1132C1066277727CB0197F908950BD0C4CFB5DF8A
S1132C2028F0BADF18F0952309F0A6CFABCF112412
S1132C30EECFCADFA0F3959FD1F3950F50E0551F57
S1132C40629FF001729FBB27F00DB11D639FAA27FD
S1132C50F00DB11DAA1F649F6627B00DA11D661F4C
S1132C60829F2227B00DA11D621F739FB00DA11D6D
S1132C70621F839FA00D611D221F749F3327A00D27
S1132C80611D231F849F600D211D822F762F6A2FC3
S1132C9011249F5750408AF0E1F088234AF0EE0F48
S1132CA0FF1FBB1F661F771F881F91505040A9F755
S1132CB09E3F510570F060CFAACF5F3FECF3983E82
S1132CC0DCF3869577956795B795F795E7959F5FBC
S1132CD0C1F7FE2B880F911D9695879597F9089556
S1132CE0EE0FFF1F881F8BBF0790F691E02D1994FC
S1132CF00F931F93CF93DF938230910510F482E0FA
S1132D0090E0E091150DF091160D20E030E0A0E088
S1132D10B0E0309719F14081518102811381481745
S1132D205907C8F08417950769F4109731F0129683
S1132D300C93129713961C9327C00093150D1093B0
S1132D40160D22C02115310519F04217530718F446
S1132D509A01BD01EF01DF01F801DBCF2115310537
S1132D60F9F0281B390B2430310580F48A819B81CA
S1132D706115710521F0FB019383828304C0909354
S1132D80160D8093150DFE01329644C0FE01E20F2C
S1132D90F31F8193919322503109398328833AC0D8
S1132DA02091130D3091140D232B41F42091020234
S1132DB0309103023093140D2093130D20910002DF
S1132DC0309101022115310541F42DB73EB74091F0
S1132DD0040250910502241B350BE091130DF09170
S1132DE0140DE217F307A0F42E1B3F0B2817390725
S1132DF078F0AC014E5F5F4F2417350748F04E0F53
S1132E005F1F5093140D4093130D8193919302C04F
S1132E10E0E0F0E0CF01DF91CF911F910F91089591
S1132E20CF93DF93009709F481C0FC01329713829A
S1132E301282A091150DB091160D109781F4208186
S1132E403181820F931F2091130D3091140D281797
S1132E50390751F5F093140DE093130D67C0ED019C
S1132E6020E030E0CE17DF0740F44A815B819E0109
S1132E7041155105F1F0EA01F5CFD383C2834081B6
S1132E805181840F951FC817D90759F488819981F6
S1132E90840F951F0296918380838A819B819383FB
S1132EA082832115310529F4F093160DE093150D55
S1132EB03DC0E901FB83EA8349915991C40FD51FB1
S1132EC0EC17FD0761F480819181840F951F0296B0
S1132ED0E90199838883828193819B838A83E0E0DB
S1132EE0F0E012968D919C911397009719F0FD01D3
S1132EF0DC01F7CF8D919C9111979D012E5F3F4F7F
S1132F00820F931F2091130D3091140D2817390748
S1132F1069F4309729F41092160D1092150D02C021
S1132F2013821282B093140DA093130DDF91CF91ED
S1132F30089581E090E0F89400C3FB01DC0102C035
S1132F4001900D9241505040D8F70895DC0101C022
S1132F506D9341505040E0F70895CF93DF93CDB780
S1132F60DEB7AE014A5F5F4FFA0161917191AF0123
S1132F708091190D90911A0D33D0DF91CF9108955E
S1132F800F931F93CF93DF93E091190DF0911A0DD6
S1132F90238121FF1BC08C01D0E0C0E0F8018191A6
S1132FA08F016091190D70911A0DDB011896ED9146
S1132FB0FC911997882331F01995892B79F3DFEF68
S1132FC0CFEFECCF8AE01995892B19F08FEF9FEFA3
S1132FD002C08D2F9C2FDF91CF911F910F910895E7
S1132FE02F923F924F925F926F927F928F929F9215
S1132FF0AF92BF92CF92DF92EF92FF920F931F9303
S1133000CF93DF93CDB7DEB72B970FB6F894DEBF1F
S11330100FBECDBF6C017B018A01FC0117821682B1
S1133020838181FFBFC1CE0101963C01F6019381EA
S1133030F70193FD859193FF81917F01882309F422
S1133040ADC1853239F493FD859193FF81917F0160
S1133050853221F4B60190E0D6D1E8CF912C212C11
S1133060312CFFE1F315D8F08B3279F038F480324B
S113307079F08332A1F4232D20611DC08D3261F0DB
S1133080803369F4232D216016C0832D8260382E8D
S1133090E32DE4603E2E2AC0F32DF8601DC037FCFA
S11330A02DC020ED280F2A3040F08E32B9F436FCC2
S11330B075C1232D2064322E19C036FE06C08AE065
S11330C0989E200D1124922E11C0EAE02E9E200D10
S11330D01124222EF32DF0623F2E08C08C3621F4E9
S11330E0832D8068382E02C0883641F4F70193FDA1
S11330F0859193FF81917F018111B3CF982F9F7D9B
S11331009554933028F40C5F1F4F9FE399830DC0AF
S1133110833631F0833771F0833509F055C020C010
S1133120F801808189830E5F1F4F88248394912C3A
S1133130530112C02801F2E04F0E511CF801A08087
S1133140B18036FE03C0692D70E002C06FEF7FEFDF
S1133150C5014ED14C018201F32DFF773F2E15C0DE
S1133160280122E0420E511CF801A080B18036FEF5
S113317003C0692D70E002C06FEF7FEFC5012DD150
S11331804C01F32DF0683F2E820133FC19C0822DCF
S113319090E088169906A0F4B60180E290E033D15D
S11331A02A94F5CFF50137FC859137FE81915F01B3
S11331B0B60190E028D121102A9421E0821A9108C6
S11331C08114910479F7E1C0843611F0893639F518
S11331D0F80137FE07C060817181828193810C5FA1
S11331E01F4F08C060817181072E000C880B990B5A
S11331F00E5F1F4FF32DFF763F2E97FF09C090956A
S11332008095709561957F4F8F4F9F4FF0683F2E4B
S11332102AE030E0A30133D1882E861844C08537D4
S113322031F4232D2F7EB22E2AE030E025C0932DD9
S1133230997FB92E8F36C1F018F4883579F0AEC075
S1133240803719F0883721F0A9C0E92FE061BE2E3C
S1133250B4FE0DC0FB2DF460BF2E09C034FE0AC0BD
S1133260292F2660B22E06C028E030E005C020E1F8
S113327030E002C020E132E0F801B7FE07C060810F
S11332807181828193810C5F1F4F06C060817181BF
S113329080E090E00E5F1F4FA301F1D0882E8618C6
S11332A0FB2DFF773F2E36FE0DC0232D2E7FA22E41
S11332B0891458F434FE0BC032FC09C0832D8E7E71
S11332C0A82E05C0B82CA32C03C0B82C01C0B92C5F
S11332D0A4FE0FC0FE01E80DF11D8081803321F4AE
S11332E09A2D997EA92E09C0A2FE06C0B394B39468
S11332F004C08A2D867809F0B394A3FC10C0A0FE04
S113330006C0B21480F4280C922C9B180DC0B21481
S113331058F4B60180E290E076D0B394F8CFB214BA
S113332018F42B1802C0982C212CA4FE0FC0B6014F
S113333080E390E068D0A2FE16C0A1FC03C088E739
S113334090E002C088E590E0B6010CC08A2D867832
S113335051F0A1FE02C08BE201C080E2A7FC8DE225
S1133360B60190E050D0891430F4B60180E390E0C7
S11333704AD09A94F8CF8A94F301E80DF11D808124
S1133380B60190E040D08110F6CF222009F44ECE51
S1133390B60180E290E037D02A94F7CFF601868117
S11333A0978102C08FEF9FEF2B960FB6F894DEBF84
S11333B00FBECDBFDF91CF911F910F91FF90EF9082
S11333C0DF90CF90BF90AF909F908F907F906F9041
S11333D05F904F903F902F900895FC0105906150AD
S11333E070400110D8F7809590958E0F9F1F089517
S11333F0FC016150704001900110D8F780959095C0
S11334008E0F9F1F08950F931F93CF93DF93FB019C
S1133410238121FD03C08FEF9FEF2CC022FF16C034
S113342046815781248135814217530744F4A08192
S1133430B1819D012F5F3F4F318320838C9326817F
S113344037812F5F3F4F3783268314C08B01EC01F4
S1133450FB010084F185E02D1995892BE1F6D80153
S113346016968D919C911797019617969C938E931F
S11334701697CE01DF91CF911F910F910895FA0114
S1133480AA27283051F1203181F1E8946F936E7F9F
S11334906E5F7F4F8F4F9F4FAF4FB1E03ED0B4E090
S11334A03CD0670F781F891F9A1FA11D680F791FD1
S11334B08A1F911DA11D6A0F711D811D911DA11DE2
S11334C020D009F468943F912AE0269F11243019F2
S11334D0305D3193DEF6CF010895462F4770405D8D
S11334E04193B3E00FD0C9F7F6CF462F4F70405D3C
S11334F04A3318F0495D31FD4052419302D0A9F797
S1133500EACFB4E0A6959795879577956795BA9590
S1133510C9F700976105710508959B01AC010A2E56
S113352006945795479537952795BA95C9F7620F2D
S1113530731F841F951FA01D0895F894FFCFEC
S113353E00001D0D2000090000000300000000F92A
S113354E10E4100000C600CE00D600360153656E9E
S113355E64696E670A0D0053616D706C6520546169
S113356E736B0050726F6772616D20537461727465
S113357E65642E0D0049444C4500546D72205376FB
S105358E6300D4
S9030000FC
