S00B00005254502E7372656323
S113000094C00000B2C00000B0C00000AEC0000048
S1130010ACC00000AAC00000A8C00000A6C0000038
S1130020A4C00000A2C00000A0C000009EC0000048
S11300307FC400009AC0000098C0000096C0000071
S113004094C0000092C0000090C000008EC0000068
S11300508CC000008AC0000088C0000086C0000078
S113006084C000000C947E140C94D0147EC0000054
S11300707CC000007AC0000078C0000076C0000098
S113008074C0000072C0000070C000006EC00000A8
S11300900C9414150C94661568C0000066C000002A
S11300A064C0000062C0000060C000005EC00000C8
S11300B05CC000005AC0000058C0000056C00000D8
S11300C054C0000052C0000050C000000C94AA1597
S11300D00C94FC154AC000000C9440160C94921623
S11300E044C00000AF12AF12AF12E612EE120313B7
S11300F0AF12AF12E612EE120E9453098091A30CC4
S1130100823008F050D30E942C13F6CFCF93DF93A4
S11301101F92CDB7DEB7CE0101960E9433104981FC
S11301200E9426120E947912F6CF11241FBECFEF2F
S1130130D1E2DEBFCDBF00E00CBF12E0A0E0B2E030
S1130140E0E2FAE300E00BBF02C007900D92AA3789
S1130150B107D9F72EE0AAE7B2E001C01D92A3319E
S1130160B207E1F7E2D00C940E1D4ACF80917C02D5
S113017090917D02892BB9F4049915C081E090E037
S113018090937D0280937C028DE192E00E94311A6B
S113019000E020E030E0A90160E070E08091070E0B
S11301A09091080E21D561E070E080E090E00E941B
S11301B0BA0CDCCF80917C0290917D02892B71F482
S11301C04FEF5FEFBA018091070E9091080E5ED653
S11301D066E070E080E090E00E94BA0C20B180B14B
S11301E0807490E022230CF448C010927D02109297
S11301F07C0284E392E09F938F930E94191A0F90DC
S11302000F90C0E0D0E014C0FE01EE0FFF1FE15CD0
S1130210F24F81818F9380818F938EE392E09F933D
S11302208F930E94191A21960F900F900F900F90A0
S113023080917A0290917B0202978C179D0724F794
S11302408AE090E00E942C1A80E090E00AC0FC0151
S1130250EE0FFF1FE15CF24F2FEF3FEF318320835E
S1130260019620917A0230917B02281739077CF796
S113027010927B0210927A029DCF892B69F4E0914F
S11302807A02F0917B02EE0FFF1FE15CF24F81E0F6
S113029090E0918380830AC0E0917A02F0917B021E
S11302A0EE0FFF1FE15CF24F1182108280917A02FF
S11302B090917B02019690937B0280937A0266E090
S11302C070E080E090E00E94BA0C74CFEF92FF924D
S11302D00F9360E081E07DD49093080E8093070E25
S11302E0E12CF12C03E620E030E040EC50E061E446
S11302F072E086EB90E00E94160A01E020E030E014
S113030040EC50E060E572E08AED90E00E94160A4D
S11303100F91FF90EF9008958FE081B980EF82B93B
S113032080E00E946E13D2CF0895F6DF8CE592E050
S11303300E94311A0E94610AFFCFE8E0F1E0908147
S1130340907F908390818F70982B90830895E8E03C
S1130350F1E08081807F80830895EAE8F2E0AEE8EE
S1130360B2E0B183A08313821282EEE4FCE0F09346
S11303708902E0938802138212821182108280EC37
S113038099E013969C938E931297ED93FC9390931C
S1130390850280938402909387028093860280E092
S11303A090E890937F0280937E020895CF93DF9329
S11303B0EC01AAE8B2E001C0DF01ED91FC911197D4
S11303C0EC17FD07C8F312968D919C9113979D012C
S11303D0280F391FC217D30749F42A813B81820FA2
S11303E0931F13969C938E931297ED018A819B81A0
S11303F09E01280F391FE217F307C1F420918802E8
S113040030918902E217F30771F022813381820F60
S1130410931F9B838A83ED91FC9111978081918135
S11304209983888305C03983288302C0F983E883CC
S1130430CA17DB0711F0CD93DC93DF91CF910895B8
S1130440EF92FF920F931F93CF93DF938C010E943F
S11304509E0A8091880290918902892B09F47DDF9C
S113046080917E0290917F0280239123892B09F051
S113047076C00115110549F0C8010496081719073B
S113048018F000E010E001C08C010115110509F419
S113049069C080918602909187028017910708F4C1
S11304A064C0C0918A02D0918B02EAE8F2E002C0F3
S11304B0FE01EC018A819B818017910720F48881D9
S11304C099810097A9F78091880290918902C817B1
S11304D0D90709F44DC0E080F18084E0E80EF11CF6
S11304E088819981918380832A813B81201B310BF0
S11304F02930310548F0CE01800F911FFC01338370
S113050022831B830A8352DF2A813B8180918602E6
S113051090918702821B930B9093870280938602AB
S113052040918402509185028417950720F490939A
S113053085028093840280917E0290917F02282B11
S1130540392B3B832A8319821882809182029091ED
S11305508302019690938302809382020BC0E12C64
S1130560F12C08C0E12CF12C05C0E12CF12C02C0C7
S1130570E12CF12C0E94DE0BE114F10411F40E9431
S11305803813C701DF91CF911F910F91FF90EF9026
S113059008950F931F93CF93DF93009789F1EC0194
S11305A024974A815B8120917E0230917F02BA01B7
S11305B062237323672B21F168817981672B01F50D
S11305C020953095242335233B832A83B7D78A810A
S11305D09B812091860230918702820F931F909312
S11305E0870280938602CE01E1DE809180029091A1
S11305F08102019690938102809380020E94DE0B17
S1130600DF91CF911F910F910895FC01039692837E
S113061081834FEF5FEFBA0143835483658376830D
S1130620908787839287818710820895FC011386BF
S1130630128608950F931F93CF93DF93EB010881E4
S113064019812A813B810F3F4FEF14072407340798
S113065021F4FC01A185B28511C0DC01139601C00F
S1130660DF011496ED91FC911597408151816281CF
S11306707381041715072607370790F71496ED9131
S1130680FC911597FD83EC83D783C683BF83AE8328
S11306901596DC93CE9314979B878A87FC0120815F
S11306A02F5F2083DF91CF911F910F910895CF93F6
S11306B0DF93FC01A285B385C481D58186819781AE
S11306C09F838E83C681D781848195819D838C830A
S11306D011968D919C911297E817F90731F4868150
S11306E0978112969C938E931197138612868C9100
S11306F081508C938C91DF91CF910895A89590ECC3
S113070088E10FB6F894A895809360000FBE90938B
S113071060000895FC0160833197708331971082E3
S113072031971082319720E82083319710823197D6
S11307301082319710827797408331975083869740
S11307400895DCDFA091110DB091120DCD91CDBFB4
S1130750DD91DEBFFF91EF91DF91CF91BF91AF911A
S11307609F918F917F916F915F914F913F912F91C5
S11307701F910F91FF90EF90DF90CF90BF90AF90BB
S11307809F908F907F906F905F904F903F902F90AD
S11307901F900F900CBE0F900BBE0F900FBE0F90CA
S11307A0089581E008950F920FB6F8940F920BB656
S11307B00F920CB60F921F9211242F923F924F92D8
S11307C05F926F927F928F929F92AF92BF92CF92DD
S11307D0DF92EF92FF920F931F932F933F934F93C8
S11307E05F936F937F938F939F93AF93BF93CF93B5
S11307F0DF93EF93FF93A091110DB091120D0DB6FD
S11308000D920EB60D920E94D50CA091110DB091CF
S1130810120DCD91CDBFDD91DEBFFF91EF91DF9140
S1130820CF91BF91AF919F918F917F916F915F9184
S11308304F913F912F911F910F91FF90EF90DF9077
S1130840CF90BF90AF909F908F907F906F905F906C
S11308504F903F902F901F900F900CBE0F900BBEA7
S11308600F900FBE0F9008950F920FB6F8940F9249
S11308700BB60F920CB60F921F9211242F923F9237
S11308804F925F926F927F928F929F92AF92BF929C
S1130890CF92DF92EF92FF920F931F932F933F9388
S11308A04F935F936F937F938F939F93AF93BF9374
S11308B0CF93DF93EF93FF93A091110DB091120D9D
S11308C00DB60D920EB60D9213BE4CD681110E9438
S11308D0D50CA091110DB091120DCD91CDBFDD912C
S11308E0DEBFFF91EF91DF91CF91BF91AF919F91C7
S11308F08F917F916F915F914F913F912F911F91B4
S11309000F91FF90EF90DF90CF90BF90AF909F90AA
S11309108F907F906F905F904F903F902F901F909B
S11309200F900CBE0F900BBE0F900FBE0F9008954A
S11309309BDF1895DC0153962C915397222341F0A9
S11309405A96ED91FC915B9790818AE0891B0895FA
S113095080E008950FB6F8940F92FC01868D811102
S113096002C081E001C080E00F900FBE08950FB671
S1130970F8940F92FC01268D878D281302C081E024
S113098001C080E00F900FBE08950F931F93CF9383
S1130990DF93EC01042F1E8D48A141110CC0888106
S11309A09981892B09F042C08C819D810E945F0F3F
S11309B01D821C8242C0011117C050E08A819B81B4
S11309C00E94091A28A18A819B81820F911D9B8311
S11309D08A832C813D818217930750F18881998104
S11309E09B838A8380E029C050E08E819F810E948E
S11309F0091A88A190E09195819591092E813F81F2
S1130A00280F391F3F832E834881598124173507C6
S1130A1030F42C813D81820F931F9F838E8302309B
S1130A2049F4112349F0115080E007C080E005C06B
S1130A3080E003C080E001C080E01F5F1E8FDF9173
S1130A40CF911F910F910895FC0140A14423A9F077
S1130A5050E026813781240F351F37832683848114
S1130A6095812817390720F08081918197838683A7
S1130A70CB01668177810C94091A08951F93CF9353
S1130A80DF93EC010FB6F8940F921AA10BC08B8977
S1130A90882351F0CE0143960E94A00D81110E943B
S1130AA0C60E115011169CF38FEF8AA30F900FBE40
S1130AB00FB6F8940F9219A10BC08885882351F0C2
S1130AC0CE0108960E94A00D81110E94C60E1150FD
S1130AD011169CF38FEF89A30F900FBEDF91CF9176
S1130AE01F910895CF93DF93EC010FB6F8940F9202
S1130AF0E881F9818F8D28A190E030E0829FA001E8
S1130B00839F500D929F500D11244E0F5F1F5D83E4
S1130B104C831E8EFB83EA830197289FA001299FA3
S1130B20500D389F500D1124CF01840F951F9F83C2
S1130B308E838FEF89A38AA361110AC088858823D5
S1130B4069F0CE010896FCD7882341F02CDE06C05C
S1130B50CE0108965ADDCE01439657DD0F900FBEA5
S1130B6081E0DF91CF9108950F931F93F8016111F4
S1130B7003C01183008302C051834083878F60A325
S1130B8061E0CF01AFDF1F910F910895DF92EF92E3
S1130B90FF920F931F93CF93DF93F82EE62ED42E5C
S1130BA0869FC001112483964BDCEC01009741F031
S1130BB08C012D2DAC014D5D5F4F6E2D8F2DD4DF3B
S1130BC0CE01DF91CF911F910F91FF90EF90DF90B5
S1130BD00895CF93C62F42E060E0D8DF009711F06C
S1130BE0FC01C68FCF910895CF92DF92EF92FF92CE
S1130BF00F931F93CF93DF93CDB7DEB729970FB62B
S1130C00F894DEBF0FBECDBF7C016B012E833F8302
S1130C104887598710E00FB6F8940F92F701968D24
S1130C20878D981710F00230A9F4402FB601C70140
S1130C30ACDEF7019389992339F0C701439680D735
S1130C40882321F0B0DD02C08111ADDD0F900FBE0D
S1130C5081E048C08E819F81A885B985892B8A2B24
S1130C608B2B21F40F900FBE80E03CC0111105C006
S1130C70CE0101960E944F0E11E00F900FBE5ED47C
S1130C800FB6F8940F92F70181A18F3F09F411A2D6
S1130C90F70182A18F3F09F412A20F900FBEBE018B
S1130CA06A5F7F4FCE0101960E94600E811116C0CB
S1130CB0C7015DDE882371F04E815F816885798587
S1130CC0C7010896E4D6C701D9DE78D58111A3CF30
S1130CD06ADDA1CFC701D2DE71D59DCFC701CEDEBB
S1130CE06DD580E029960FB6F894DEBF0FBECDBF58
S1130CF0DF91CF911F910F91FF90EF90DF90CF90F4
S1130D000895EF92FF920F931F93CF93DF938A017D
S1130D10FC01568D378D531710F02230F1F4422F19
S1130D207801EC011AA18E8DCE012FDE1F3F79F4DC
S1130D308B898823A1F0CE01439602D7882389F0BA
S1130D40E114F10481F081E0F70180830DC0FF24F8
S1130D50F394F10EFAA281E007C080E005C081E0BF
S1130D6003C081E001C081E0DF91CF911F910F9119
S1130D70FF90EF900895CF92DF92EF92FF920F933E
S1130D801F93CF93DF93CDB7DEB729970FB6F894AF
S1130D90DEBF0FBECDBF8C016B012E833F8348871E
S1130DA05987E12C0FB6F8940F92F801F68CFF20C6
S1130DB091F0B601C80148DEFA94F801F68E8085F8
S1130DC0882329F0C8010896BBD68111ECDC0F906A
S1130DD00FBE81E04CC08E819F81A885B985892B87
S1130DE08A2B8B2B21F40F900FBE80E040C0E110C2
S1130DF005C0CE01019653D7EE24E3940F900FBEA5
S1130E009DD30FB6F8940F92F80181A18F3F09F496
S1130E1011A2F80182A18F3F09F412A20F900FBE14
S1130E20BE016A5F7F4FCE0101964AD7811116C079
S1130E30C80190DD882371F04E815F8168857985D2
S1130E40C801439624D6C80119DEB8D48111AACFAB
S1130E50AADCA8CFC80112DEB1D4A4CFC8010EDE2B
S1130E60ADD4C80177DD882309F49CCF80E02996AE
S1130E700FB6F894DEBF0FBECDBFDF91CF911F91A7
S1130E800F91FF90EF90DF90CF900895EF92FF9233
S1130E900F931F93CF93DF93CDB7DEB729970FB688
S1130EA0F894DEBF0FBECDBF8C014E835F8368878D
S1130EB07987E12CF12C0FB6F8940F92F801868D06
S1130EC08823C1F08150868F80819181892B29F4F8
S1130ED00E942110F80195838483F801808588237A
S1130EE029F0C80108962CD681115DDC0F900FBE45
S1130EF081E06AC08E819F81A885B985892B8A2B60
S1130F008B2B21F40F900FBE80E05EC0F11005C062
S1130F10CE010196C4D6FF24F3940F900FBE0ED3D6
S1130F200FB6F8940F92F80181A18F3F09F411A232
S1130F30F80182A18F3F09F412A20F900FBEBE01E7
S1130F406A5F7F4FCE010196BBD6811124C0C801D0
S1130F5001DD8823E1F0F80180819181892B49F436
S1130F600FB6F8940F928481958122D7E82E0F90C2
S1130F700FBE4E815F8168857985C801439687D508
S1130F80C8017CDD1BD4811196CF0DDC94CFC80140
S1130F9075DD14D490CFC80171DD10D4C801DADC3A
S1130FA0882309F488CFEE2071F00FB6F8940F92DD
S1130FB0C801C0DC682FF80184819581DBD70F90CC
S1130FC00FBE80E001C080E029960FB6F894DEBF22
S1130FD00FBECDBFDF91CF911F910F91FF90EF9086
S1130FE00895CF93DF93EC010FB6F8940F9289A183
S1130FF08F3F09F419A28AA18F3F09F41AA20F9016
S11310000FBE8E8D811103C0CE01439657D5CE01FC
S113101035DDDF91CF910895E0918B0CF0918C0C2C
S1131020808181110CC08FEF9FEFDC018093550C00
S11310309093560CA093570CB093580C0895E091DC
S11310408B0CF0918C0C0780F085E02D80819181D0
S1131050A281B3818093550C9093560CA093570CA6
S1131060B093580C0895CF93DF93EC018B8D9C8D36
S113107090DACE018EDADF91CF9108954F925F928C
S11310806F927F928F929F92AF92BF92CF92DF9294
S1131090EF92FF920F93CF93DF932C015B014A01F0
S11310A03901E60165EA70E08B8D9C8D0E94121A6D
S11310B08B8D9C8D21E0821A9108880E991EA114B3
S11310C0B10489F415C0822F90E0F501E80FF91FEF
S11310D03081DE01A80FB91F5D963C93808188237F
S11310E029F02F5F01C020E0203168F31CA601C065
S11310F01D8E0A3008F009E00A8F0DA71EA6CE0146
S1131100029694DACE010E9691DADB87CA878AE0DA
S113111090E0A0E0B0E0801B9109A109B1098E879D
S11311209F87A88BB98BDF8BCE8B18AA1FA684E070
S1131130FE01F196DF011D928A95E9F71DAAA3012C
S1131140B201C401E7DA99838883E114F10419F048
S1131150F701D183C083DF91CF910F91FF90EF907E
S1131160DF90CF90BF90AF909F908F907F906F90C3
S11311705F904F900895CF93C0E008C02BE0C29FCA
S1131180C00111248D55934F40DACF5FCA30B0F3BC
S113119088E99CE03ADA8DE89CE037DA8EE79CE057
S11311A034DA83E79CE031DA87E69CE02EDA88E9DA
S11311B09CE090938C0C80938B0C8DE89CE0909336
S11311C08A0C8093890CCF910895CF93DF93EC011F
S11311D00FB6F8940F928091660C8F5F8093660C23
S11311E08091110D9091120D892B51F4D093120D11
S11311F0C093110D8091660C813091F4BCDF10C056
S11312008091600C81110CC0E091110DF091120DD0
S1131210928D8A8D891720F0D093120DC093110DF1
S11312208091590C8F5F8093590CEA8D8091610CE9
S11312308E1710F4E093610C8BE08E9FF001112463
S1131240ED55F34F0180F281E02DFF83EE8326817B
S1131250378139872887A681B7819E012E5F3F4F4A
S113126015963C932E93149737832683EA8D8E9F8D
S1131270F0011124ED55F34FFD87EC8780818F5FDA
S113128080830F900FBE8091600C882349F0E09119
S1131290110DF091120D928D8A8D981708F483DA4E
S11312A0DF91CF910895CF93DF931AC00FB6F894CE
S11312B00F92E0917A0CF0917B0CC085D185CE0120
S11312C00296F5D98091660C81508093660C8091CA
S11312D0720C81508093720C0F900FBECE01C3DE4E
S11312E08091720C8111E2CFDF91CF9108958F929A
S11312F09F92AF92BF92CF92DF92EF92FF92CF93E1
S1131300DF936B017C01C42F8090620C9090630C7E
S1131310A090640CB090650C8091110D9091120D09
S11313200296C5D98FEFC816D806E806F806B1F5B7
S1131330CC23A1F1E7E6FCE0A181B281C091110DBB
S1131340D091120DBF83AE83C091110DD091120DB7
S113135016968D919C911797998788871696CD91AB
S1131360DC9117978091110D9091120D02969D8337
S11313708C838091110D9091120D029617969C9377
S11313808E931697A091110DB091120D1D96FC939A
S1131390EE931C9780818F5F80833DC0C80CD91C5D
S11313A0EA1CFB1CE091110DF091120DC282D38254
S11313B0E482F582C814D904EA04FB0460F4609161
S11313C0110D7091120D8091890C90918A0C6E5FB1
S11313D07F4F30D920C06091110D7091120D809112
S11313E08B0C90918C0C6E5F7F4F24D98091550C9F
S11313F09091560CA091570CB091580CC816D90670
S1131400EA06FB0640F4C092550CD092560CE092CA
S1131410570CF092580CDF91CF91FF90EF90DF9032
S1131420CF90BF90AF909F908F9008952F923F924E
S11314304F925F926F927F928F929F92AF92BF92E0
S1131440CF92DF92EF92FF920F93CF93DF933C0101
S11314501B014A012901CA010E9420026C01892B47
S113146069F086E390E00E942002EC01892B19F0D8
S1131470DC8ECB8E05C0C6018CD802C0C0E0D0E0A3
S1131480209761F0A12CB12C6E019201A401B1014D
S1131490C301F4DDCE0199DE81E001C08FEFDF915D
S11314A0CF910F91FF90EF90DF90CF90BF90AF90CE
S11314B09F908F907F906F905F904F903F902F9070
S11314C00895EF92FF920F930F2EF3E5EF2EFCE0B9
S11314D0FF2EF02D00E020E030E040EC50E06DE61F
S11314E072E08CE790E0A2DF813009F446D68130C7
S11314F0F9F4F8948FEF9FEFDC018093550C9093EF
S1131500560CA093570CB093580C81E08093600C58
S11315101092620C1092630C1092640C1092650C81
S1131520E091110DF091120D87A50E949D0109D93A
S1131530809106020F91FF90EF9008958091520CD4
S11315408F5F8093520C08950FB6F8940F926091B8
S1131550620C7091630C8091640C9091650C0F90F7
S11315600FBE0895CF92DF92EF92FF92CF93DF9355
S11315708091520C811105C1C090620CD090630C13
S1131580E090640CF090650C8FEFC81AD80AE80A52
S1131590F80AC092620CD092630CE092640CF09250
S11315A0650CC114D104E104F104B1F480918B0CF5
S11315B090918C0C2091890C30918A0C30938C0C76
S11315C020938B0C90938A0C8093890C80915A0CF5
S11315D08F5F80935A0C20DD8091550C9091560CAE
S11315E0A091570CB091580CC816D906EA06FB0610
S11315F020F480E0B2C081E001C080E0E0918B0C77
S1131600F0918C0C908191110CC04FEF5FEFBA01F7
S11316104093550C5093560C6093570C7093580C90
S11316209CC0E0918B0CF0918C0C0780F085E02D30
S11316300084F185E02D4281538164817581C41653
S1131640D506E606F70648F44093550C5093560C1D
S11316506093570C7093580C80C0A485B585C681DF
S1131660D781208531853F832E83C085D18526810E
S113167037813D832C8311964D915C9112979F0184
S11316802E5F3F4F4217530731F440855185129620
S11316905C934E931197158614869C9191509C935C
S11316A0A08DB18D109709F1C289D38944895589D8
S11316B05F834E83C489D589428953895D834C8372
S11316C011966D917C911297AF01425F5F4F641741
S11316D0750731F44489558912965C934E9311979A
S11316E0118E108E9C9191509C93A28D9091610CBF
S11316F09A1710F4A093610C9BE09A9FD0011124D7
S1131700AD55B34F11960D90BC91A02DB783A68310
S113171016964D915C911797518740871696CD91F7
S1131720DC9117973D832C8317963C932E93169741
S1131730A28D9A9FD0011124AD55B34FB587A487CC
S11317409C919F5F9C93228DE091110DF091120D5D
S1131750928D291708F04FCF51CFE091110DF091E0
S1131760120DE28D9BE0E99FF0011124ED55F34F3A
S11317709081923008F081E090915B0C911116C039
S113178016C080915C0C90915D0CA0915E0CB091A0
S11317905F0C0196A11DB11D80935C0C90935D0CB0
S11317A0A0935E0CB0935F0C80E001C081E0DF91F8
S11317B0CF91FF90EF90DF90CF900895CF92DF927A
S11317C0EF92FF92CF93DF930FB6F8940F9280912C
S11317D0520C81508093520C8091520C8111BEC0E6
S11317E08091660C811188C0BCC0E091850CF09199
S11317F0860C0084F185E02DA08DB18DC289D3893A
S1131800848995899F838E83C489D58982899389A4
S11318109D838C8311962D913C911297CF010E9646
S11318202817390731F48489958912969C938E93ED
S11318301197118E108E8C9181508C93A485B5854F
S1131840C681D781808591859F838E83C085D1850C
S1131850868197819D838C8311968D919C9112979B
S11318609F012E5F3F4F8217930731F48085918546
S113187012969C938E931197158614868C918150A1
S11318808C93A28D8091610C8A1710F4A093610C43
S11318908BE08A9FD0011124AD55B34F11960D9062
S11318A0BC91A02DB783A68316964D915C91179792
S11318B0518740871696CD91DC9117973D832C83F1
S11318C017963C932E931697A28D8A9FD0011124CC
S11318D0AD55B34FB587A4878C918F5F8C93928D50
S11318E0A091110DB091120D5A968C91981730F069
S11318F081E080935B0C02C0E0E0F0E080917E0C1C
S1131900811173CFEF2B09F087DBC0905C0CD09072
S11319105D0CE0905E0CF0905F0CC114D104E10406
S1131920F104A1F01FDE882319F081E080935B0CA1
S113193081E0C81AD108E108F108A1F710925C0C03
S113194010925D0C10925E0C10925F0C80915B0CF7
S1131950882331F00E94D30381E003C080E001C0FA
S113196080E00F900FBEDF91CF91FF90EF90DF905A
S1131970CF900895CF92DF92EF92FF926B017C019A
S1131980672B682B692B39F0D9DD40E0C701B6011C
S1131990AEDC14DF01C080E0811102C00E94D303D9
S11319A0FF90EF90DF90CF9008958091520C8823A0
S11319B021F081E080935B0C089510925B0CE09120
S11319C0110DF091120D87A50E94A701E091110D50
S11319D0F091120D20813181E091110DF091120DE1
S11319E0838D948D8217930758F06091110D709137
S11319F0120D635E7F4F8091110D9091120D44D6AC
S1131A008091610C01C08150282F30E09BE0929FAF
S1131A10F001939FF00D1124ED55F34F908199231C
S1131A2091F39BE0929FA001939F500D1124DF013D
S1131A300180F281E02D0480F581E02D1296FC9363
S1131A40EE9311974A55534FE417F50729F444814F
S1131A505581FD01528341839BE0929FF001939F46
S1131A60F00D1124ED55F34F0180F281E02D208516
S1131A7031853093120D2093110D8093610CE09108
S1131A80110DF091120D87A50C949D010895CF922C
S1131A90DF92EF92FF926A017B016091110D7091C8
S1131AA0120D625F7F4F0E941A0341E0C701B60125
S1131AB01EDCFF90EF90DF90CF900895CF93DF93DB
S1131AC0FC01CB01BA01A181B281C091110DD09169
S1131AD0120DBB8BAA8BC091110DD091120D1696CD
S1131AE04D915C9117975D8B4C8B1696CD91DC9143
S1131AF017974091110D5091120D425F5F4F5D8316
S1131B004C834091110D5091120D425F5F4F179617
S1131B105C934E931697A091110DB091120D5996A6
S1131B20FC93EE93589730813F5F3083222319F062
S1131B306FEF7FEFCB01422FDADBDF91CF91089576
S1131B40CF93DF93DC011796ED91FC9118970084F5
S1131B50F185E02DA08DB18DC289D38984899589C1
S1131B609F838E83C489D589828993899D838C833D
S1131B7011968D919C9112979F01225F3F4F82177E
S1131B80930731F48489958912969C938E931197C7
S1131B90118E108E8C9181508C938091520C8111F6
S1131BA052C0A485B585C681D781808591859F83E0
S1131BB08E83C085D185868197819D838C83119680
S1131BC08D919C9112979F012E5F3F4F821793072F
S1131BD031F48085918512969C938E931197158686
S1131BE014868C9181508C93A28D8091610C8A17FC
S1131BF010F4A093610C8BE08A9FD0011124AD55A1
S1131C00B34F11960D90BC91A02DB783A683169661
S1131C104D915C911797518740871696CD91DC9131
S1131C2017973D832C8317963C932E931697A28D7A
S1131C308A9FD0011124AD55B34FB587A4878C91E9
S1131C408F5F8C931CC04EE75CE0DA011196CD9156
S1131C50DC911297D38BC28B8E819F81958B848B61
S1131C608E819F81DC0115963C932E9314973F83BC
S1131C702E83518F408FDA018C918F5F8C93928DDC
S1131C80E091110DF091120D828D891720F481E0FD
S1131C9080935B0C01C080E0DF91CF910895209187
S1131CA05A0CFC0120834091620C5091630C6091AA
S1131CB0640C7091650C418352836383748308952B
S1131CC08F929F92AF92BF92CF92DF92EF92FF9248
S1131CD00F931F93CF93DF93FB010FB6F8940F92EA
S1131CE0C090620CD090630CE090640CF090650C92
S1131CF0DC0111960D911D912D913C911497460193
S1131D005701801A910AA20AB30A40815181628163
S1131D1073814F3FBFEF5B076B077B0739F1EC0122
S1131D20B881A0915A0CBA1759F0C016D106E20630
S1131D30F30630F0108211821282138281E017C000
S1131D4084169506A606B70658F4481959096A096F
S1131D507B094083518362837383A1DF80E007C0E2
S1131D60108211821282138281E001C080E00F9000
S1131D700FBEDF91CF911F910F91FF90EF90DF90F5
S1131D80CF90BF90AF909F908F90089581E0809303
S1131D905B0C08958091600C882331F08091520C83
S1131DA0811104C082E0089581E0089580E00895DF
S1131DB00F931F93CF93DF93FC01892B09F477C012
S1131DC0828DA091110DB091120D5A969C91891794
S1131DD008F063C04685578560897189772394F03C
S1131DE0A091110DB091120D5A969C914AE050E0C9
S1131DF060E070E0491B5109610971094687578702
S1131E00608B718B248535854BE0849FC001112440
S1131E108D55934F28173907B9F5EF018F010E5FE0
S1131E201F4FC8010E945703E091110DF091120D4C
S1131E30E28DEA8F8091610C8E1710F4E093610CAF
S1131E408BE08E9FF0011124ED55F34F0180F28158
S1131E50E02DFF83EE832681378139872887A68189
S1131E60B78115961C930E93149717830683EA8DF6
S1131E708E9FF0011124ED55F34FFD87EC8780818F
S1131E808F5F808381E016C0A091110DB091120D77
S1131E905A968C91828F81E00DC095A5E091110D29
S1131EA0F091120D828D981720F080E003C080E03D
S1131EB001C081E0DF91CF911F910F9108950F939D
S1131EC01F93CF93DF93FC01892B09F449C086A5A6
S1131ED0815086A7228D95A5291709F443C0811145
S1131EE043C0EF018F010E5F1F4FC8010E945703CB
S1131EF0EDA5EA8F8AE090E0A0E0B0E08E1B9109A6
S1131F00A109B1098E879F87A88BB98B8091610C39
S1131F108E1710F4E093610C8BE08E9FF001112476
S1131F20ED55F34F0180F281E02DFF83EE8326818E
S1131F30378139872887A681B78115961C930E931C
S1131F40149717830683EA8D8E9FF0011124ED55B3
S1131F50F34FFD87EC8780818F5F808381E005C02C
S1131F6080E003C080E001C080E0DF91CF911F9149
S1131F700F9108950F931F93CF93DF93FC01892B47
S1131F8009F45AC085A5861708F4862F928D8917FF
S1131F9009F452C026A5213009F04EC0828F46852F
S1131FA0578560897189772364F04AE050E060E0E6
S1131FB070E0481B51096109710946875787608B96
S1131FC0718B248535854BE0949FC00111248D5578
S1131FD0934F2817390781F5EF018F010E5F1F4FCB
S1131FE0C8010E945703EA8D8091610C8E1710F48A
S1131FF0E093610C8BE08E9FF0011124ED55F34FBB
S11320000180F281E02DFF83EE83268137813987B9
S11320102887A681B78115961C930E93149717836E
S11320200683EA8D8E9FF0011124ED55F34FFD8751
S1132030EC8780818F5F8083DF91CF911F910F9117
S113204008958091110D9091120D892B39F0E09132
S1132050110DF091120D86A58F5F86A78091110D49
S11320609091120D0895DC01E0911D0DF0911E0D6B
S1132070808191E0811190E09C93911108C00780C8
S1132080F085E02D6081718182819381089560E003
S113209070E0CB010895CF92DF92EF92FF920F93FD
S11320A01F93FC01428353836483758393878287E0
S11320B00417150726073707C0F00C191D092E0948
S11320C03F0986859785A089B189081719072A07CA
S11320D03B0700F5BF016E5F7F4F80911B0D909110
S11320E01C0D0E941A0380E018C00C151D052E0556
S11320F03F0528F44C155D056E057F0568F4BF01A6
S11321006E5F7F4F80911D0D90911E0D0E941A03EA
S113211080E003C081E001C081E01F910F91FF9036
S1132120EF90DF90CF9008950FB6F8940F928091BE
S1132130190D90911A0D892BE9F48AE29DE00E9411
S113214005038FE19DE00E9405038AE29DE09093E0
S11321501E0D80931D0D8FE19DE090931C0D8093C7
S11321601B0D40E067E08AE00E94C60590931A0DBB
S11321708093190D0F900FBE0895EF92FF920F9365
S1132180D3DF8091190D90911A0D892B89F00F2EB0
S1132190F7E1EF2EFDE0FF2EF02D03E020E030E02C
S11321A040EC50E062E772E086E890E03FD901C07D
S11321B080E00F91FF90EF9008958F929F92AF92DD
S11321C0BF92CF92DF92EF92FF920F931F93CF9320
S11321D0DF93CDB7DEB727970FB6F894DEBF0FBEF7
S11321E0CDBFE091190DF0911A0D309781F16983FB
S11321F02A833B834C835D839F838E836630F4F410
S1132200C9DD823069F400E0A7019601BE016F5F69
S11322107F4F8091190D90911A0D0E94F40518C0FA
S113222000E020E030E0A901BE016F5F7F4F8091A4
S1132230190D90911A0D0E94F4050AC020E0A8011E
S1132240BE016F5F7F4FCF010E94810601C080E015
S113225027960FB6F894DEBF0FBECDBFDF91CF91A6
S11322601F910F91FF90EF90DF90CF90BF90AF90B0
S11322709F908F9008958F929F92AF92BF92CF922A
S1132280DF92EF92FF920F931F93CF93DF933BC0A4
S11322900780F085E02D80809180A280B380C08586
S11322A0D1858E010E5F1F4FC8010E945703EC8930
S11322B0FD89CE0119958E8982FF25C08E859F8563
S11322C0A889B989880D991DAA1DBB1D8816990670
S11322D0AA06BB0670F48A839B83AC83BD83DB8729
S11322E0CA87B80180911D0D90911E0D0E941A039A
S11322F00AC0C12CD12C760100E010E0A5019401A4
S113230060E0CE015ADFE0911D0DF0911E0D808139
S11323108111BECF80911B0D90911C0D90931E0DC9
S113232080931D0DF0931C0DE0931B0DDF91CF9155
S11323301F910F91FF90EF90DF90CF90BF90AF90DF
S11323409F908F900895CF92DF92EF92FF92CF9358
S1132350DF93EC01F9D86B017C018091130D90910E
S1132360140DA091150DB091160DC816D906EA06E4
S1132370FB0620F480DF81E0888301C01882C092CC
S1132380130DD092140DE092150DF092160DC701A5
S1132390B601DF91CF91FF90EF90DF90CF90089539
S11323A04F925F926F927F928F929F92AF92BF9261
S11323B0CF92DF92EF92FF920F931F93CF93DF930D
S11323C04B015C0129013A01E0911D0DF0911E0DB4
S11323D00780F085E02DC085D185CE0102960E944C
S11323E057038E8982FF1BC04E855F856889798972
S11323F0480D591D6A1D7B1D7501640193018201FD
S1132400CE0149DE882369F0C12CD12C760100E08D
S113241010E0A501940160E0CE01CFDE02C08E7F02
S11324208E8BEC89FD89CE011995DF91CF911F9197
S11324300F91FF90EF90DF90CF90BF90AF909F905F
S11324408F907F906F905F904F9008958F929F929E
S1132450AF92BF92CF92DF92EF92FF921F93CF93EE
S1132460DF931F92CDB7DEB76B017C01142F66D8C2
S1132470CE01019668DF4B015C01898181112BC07B
S113248011110CC08C149D04AE04BF0438F096D90D
S1132490A5019401C701B60183DF1EC0112341F0D9
S11324A0E0911B0DF0911C0D808111E0811110E071
S11324B0B701A601481959096A097B09212F80919E
S11324C0190D90911A0D0E94F10778D9811104C059
S11324D00E94D30301C072D90F90DF91CF911F9155
S11324E0FF90EF90DF90CF90BF90AF909F908F9030
S11324F00895AF92BF92CF92DF92EF92FF920F9323
S11325001F93CF93DF93CDB7DEB728970FB6F89418
S1132510DEBF0FBECDBF81C0898188230CF47DC08E
S1132520AE80BF80D5011C968D919C911D97892BFF
S113253021F0C50102960E945703CE01089603DFDD
S11325408B019C01E9810E2E000CFF0BEA30F10592
S113255008F063C08827EE58FF4F8F4F2DC6F50152
S113256086898160868BCA80DB80EC80FD8046850D
S11325705785608971894C0D5D1D6E1D7F1DC501D8
S11325808ADD882309F449C0D5015496ED91FC9164
S11325905597C5011995F501868982FF3EC04A8188
S11325A05B816C817D8186859785A089B1899A013B
S11325B0AB01280F391F4A1F5B1FC12CD12C760198
S11325C000E010E060E0C501F8DD27C0D5015696B3
S11325D08C9156978E7F56968C931FC0F5018689F1
S11325E08160868B4A815B816C817D8146875787B8
S11325F0608B718B400F511F621F731F680179013B
S1132600C50149DD0AC0F501868981FD04C0C50103
S11326100E94C90202C08E7F868B20E030E0A901AF
S1132620BE016F5F7F4F8091190D90911A0D0E942A
S1132630BB06811171CF28960FB6F894DEBF0FBE8A
S1132640CDBFDF91CF911F910F91FF90EF90DF905D
S1132650CF90BF90AF900895089584B1806884B9F5
S113266085B1806885B9089583B1806883B9089578
S1132670F4DF2FEF80E792E0215080409040E1F7B3
S113268000C00000F1DFF5CFE8DF2FEF87EA91E625
S1132690215080409040E1F700C00000E5DFF5CF15
S11326A0CF93DF931F92CDB7DEB7BE016F5F7F4F2D
S11326B08091350D9091360D01D18111F6CF89812C
S11326C090E00F90DF91CF910895682F8091350DA0
S11326D09091360DC8D080E090E008958F929F923B
S11326E0AF92CF92EF920F93812C912C6894AA24ED
S11326F0A7F86894CC24C7F8E12C00E023E040E07C
S113270051EE60E070E013D09093360D8093350D58
S1132710EDE0FEE087E092E09183808393838283FF
S11327200F91EF90CF90AF909F908F9008952F923C
S11327303F924F925F926F927F928F929F92AF924D
S1132740CF92EF92FF920F931F93CF93DF93CDB766
S1132750DEB7F82E2A013B0188E090E035D58C01E4
S11327608F2D90E0FC01EE0FFF1FE95CF24F118307
S113277000830115110509F464C0880F991FFC0139
S1132780EB5EFD4F80819181D8018D939C938C2DBC
S113279090E0880F991F880F991F16D51C0186E0B9
S11327A090E012D57C014C2DB10100D3F801F582E3
S11327B0E4828A2D90E0880F991F880F991F04D511
S11327C01C0186E090E000D57C014A2DB101EED2D7
S11327D0D8011396FC92EE92129717969C928E92C1
S11327E01697FFB6F894ED91FC9111973697808176
S11327F0826080838D909C90C301B201ECD320E071
S113280030E040E051E475D49B01AC0160E074E237
S113281084E79BE44CD320E030E040E85FE3E2D27D
S1132820AED3F40132976083D801ED91FC911197F6
S1132830359788E98083ED91FC91349786E0808315
S1132840FFBEC801DF91CF911F910F91FF90EF90D0
S1132850CF90AF909F908F907F906F905F904F90AC
S11328603F902F900895CF93DF93DC01892B01F1E2
S11328701296ED91FC911397938182812581981B87
S1132880922384819817B1F0838126952823C081EF
S1132890D181C20FD11D68838F5F95818923838382
S11328A0ED91FC91359780818062808380E003C044
S11328B081E001C082E0DF91CF9108950097D1F0CB
S11328C0DC011496ED91FC91159793818281981700
S11328D099F09281858186958923A081B181A80F81
S11328E0B11D8C91DB018C939F5F8581982392832A
S11328F080E0089581E0089583E008951F920F9287
S11329000FB60F9211240BB60F922F933F934F9350
S11329105F936F937F938F939F93AF93BF93CF9363
S1132920DF93EF93FF93A091370DB091380D10977B
S113293011F16091C6001496ED91FC911597938165
S113294082812581981B92238481981761F0838169
S113295026952823C081D181C20FD11D68838F5F42
S11329609581892383831696ED91FC91179730976F
S113297011F0CD011995FF91EF91DF91CF91BF91A6
S1132980AF919F918F917F916F915F914F913F9103
S11329902F910F900BBE0F900FBE0F901F901895A4
S11329A01F920F920FB60F9211240BB60F922F9312
S11329B08F939F93AF93BF93EF93FF93E091370D62
S11329C0F091380D3097B9F00280F381E02D9381B6
S11329D082819817B1F092818581282F2695292329
S11329E0A081B181A20FB11D2C919F5F89238283A5
S11329F02093C6000BC0E1ECF0E080818F7D8083E2
S1132A0005C0E1ECF0E080818F7D8083FF91EF9140
S1132A10BF91AF919F918F912F910F900BBE0F900B
S1132A200FBE0F901F9018951F920F920FB60F9222
S1132A3011240BB60F922F933F934F935F936F9391
S1132A407F938F939F93AF93BF93CF93DF93EF9332
S1132A50FF93A091390DB0913A0D109711F1609147
S1132A60CE001496ED91FC91159793818281258176
S1132A70981B92238481981761F0838126952823DB
S1132A80C081D181C20FD11D68838F5F9581892355
S1132A9083831696ED91FC911797309711F0CD0131
S1132AA01995FF91EF91DF91CF91BF91AF919F91D4
S1132AB08F917F916F915F914F913F912F910F90E3
S1132AC00BBE0F900FBE0F901F9018951F920F9280
S1132AD00FB60F9211240BB60F922F938F939F93DF
S1132AE0AF93BF93EF93FF93E091390DF0913A0DBB
S1132AF03097B9F00280F381E02D93818281981799
S1132B00B1F092818581282F26952923A081B18156
S1132B10A20FB11D2C919F5F892382832093CE0045
S1132B200BC0E9ECF0E080818F7D808305C0E9EC87
S1132B30F0E080818F7D8083FF91EF91BF91AF9111
S1132B409F918F912F910F900BBE0F900FBE0F90FE
S1132B501F9018951F920F920FB60F9211240BB667
S1132B600F922F933F934F935F936F937F938F9322
S1132B709F93AF93BF93CF93DF93EF93FF93A09172
S1132B803B0DB0913C0D109711F16091D600149655
S1132B90ED91FC911597938182812581981B922355
S1132BA08481981761F0838126952823C081D1817F
S1132BB0C20FD11D68838F5F958189238383169605
S1132BC0ED91FC911797309711F0CD011995FF9174
S1132BD0EF91DF91CF91BF91AF919F918F917F91B1
S1132BE06F915F914F913F912F910F900BBE0F907A
S1132BF00FBE0F901F9018951F920F920FB60F9251
S1132C0011240BB60F922F938F939F93AF93BF937F
S1132C10EF93FF93E0913B0DF0913C0D3097B9F0A9
S1132C200280F381E02D938182819817B1F0928123
S1132C308581282F26952923A081B181A20FB11D5A
S1132C402C919F5F892382832093D6000BC0E1EDF2
S1132C50F0E080818F7D808305C0E1EDF0E080812C
S1132C608F7D8083FF91EF91BF91AF919F918F9161
S1132C702F910F900BBE0F900FBE0F901F901895C1
S1132C801F920F920FB60F9211240BB60F922F932F
S1132C903F934F935F936F937F938F939F93AF93E0
S1132CA0BF93CF93DF93EF93FF93A0913D0DB0912A
S1132CB03E0D109711F1609136011496ED91FC913F
S1132CC01597938182812581981B9223848198177B
S1132CD061F0838126952823C081D181C20FD11D43
S1132CE068838F5F9581892383831696ED91FC9188
S1132CF01797309711F0CD011995FF91EF91DF915E
S1132D00CF91BF91AF919F918F917F916F915F917F
S1132D104F913F912F910F900BBE0F900FBE0F90CC
S1132D201F9018951F920F920FB60F9211240BB695
S1132D300F922F938F939F93AF93BF93EF93FF9330
S1132D40E0913D0DF0913E0D3097B9F00280F38192
S1132D50E02D938182819817B1F092818581282F8B
S1132D6026952923A081B181A20FB11D2C919F5FCB
S1132D7089238283209336010BC0E1E3F1E0808153
S1132D808F7D808305C0E1E3F1E080818F7D8083C6
S1132D90FF91EF91BF91AF919F918F912F910F90E0
S1132DA00BBE0F900FBE0F901F901895FC014111A0
S1132DB001C02BD3842F90E09C0121503109822340
S1132DC09323892B09F021D3413808F01ED31282B2
S1132DD013824483440F415045837183608380E0B0
S1132DE090E008955058BB27AA270ED048C139D186
S1132DF030F03ED120F031F49F3F11F41EF42EC187
S1132E000EF4E095E7FB24C1E92F4AD180F3BA1709
S1132E10620773078407950718F071F49EF562C181
S1132E200EF4E0950B2EBA2FA02D0B01B9019001E1
S1132E300C01CA01A0011124FF27591B99F0593F25
S1132E4050F4503E68F11A16F040A22F232F342F6D
S1132E504427585FF3CF469537952795A795F040BB
S1132E605395C9F77EF41F16BA0B620B730B840BD0
S1132E70BAF09150A1F0FF0FBB1F661F771F881F88
S1132E80C2F70EC0BA0F621F731F841F48F48795E0
S1132E9077956795B795F7959E3F08F0B3CF9395CF
S1132EA0880F08F09927EE0F9795879508950CD011
S1132EB0E6C0DED040F0D5D030F021F45F3F19F009
S1132EC0C7C0511110C1CAC0EBD098F39923C9F3FC
S1132ED05523B1F3951B550BBB27AA27621773071C
S1132EE0840738F09F5F5F4F220F331F441FAA1FD0
S1132EF0A9F333D00E2E3AF0E0E830D09150504090
S1132F00E695001CCAF729D0FE2F27D0660F771F3D
S1132F10881FBB1F261737074807AB07B0E809F01F
S1132F20BB0B802DBF01FF2793585F4F2AF09E3FB4
S1132F30510568F08DC0D7C05F3FECF3983EDCF3D9
S1132F40869577956795B795F7959F5FC9F7880F2D
S1132F50911D9695879597F90895E1E0660F771F7F
S1132F60881FBB1F621773078407BA0720F0621B10
S1132F70730B840BBA0BEE1F88F7E095089598D075
S1132F8088F09F5790F0B92F9927B751A0F0D1F04E
S1132F90660F771F881F991F1AF0BA95C9F712C0D8
S1132FA0B13081F09FD0B1E008959CC0672F782F95
S1132FB08827B85F39F0B93FCCF386957795679544
S1132FC0B395D9F73EF490958095709561957F4FB0
S1132FD08F4F9F4F0895E89409C097FB3EF4909556
S1132FE08095709561957F4F8F4F9F4F9923A9F0DE
S1132FF0F92F96E9BB279395F6958795779567956D
S1133000B795F111F8CFFAF4BB0F11F460FF1BC0B0
S11330106F5F7F4F8F4F9F4F16C0882311F096E943
S113302011C0772321F09EE8872F762F05C06623F1
S113303071F096E8862F70E060E02AF09A95660FAA
S1133040771F881FDAF7880F9695879597F9089563
S113305097F99F6780E870E060E008959FEF80EC47
S1133060089500240A9416161706180609060895EA
S113307000240A9412161306140605060895092E50
S11330800394000C11F4882352F0BB0F40F4BF2BBF
S113309011F460FF04C06F5F7F4F8F4F9F4F0895FF
S11330A057FD9058440F551F59F05F3F71F04795F5
S11330B0880F97FB991F61F09F3F79F087950895DA
S11330C0121613061406551FF2CF4695F1DF08C0F9
S11330D0161617061806991FF1CF86957105610516
S11330E008940895E894BB2766277727CB0197F9BE
S11330F008950BD0C4CFB5DF28F0BADF18F09523BC
S113310009F0A6CFABCF1124EECFCADFA0F3959F71
S1133110D1F3950F50E0551F629FF001729FBB27BA
S1133120F00DB11D639FAA27F00DB11DAA1F649F66
S11331306627B00DA11D661F829F2227B00DA11D19
S1133140621F739FB00DA11D621F839FA00D611D9F
S1133150221F749F3327A00D611D231F849F600DC0
S1133160211D822F762F6A2F11249F5750408AF0F9
S1133170E1F088234AF0EE0FFF1FBB1F661F771F85
S1133180881F91505040A9F79E3F510570F060CFC1
S1133190AACF5F3FECF3983EDCF38695779567956D
S11331A0B795F795E7959F5FC1F7FE2B880F911DA3
S11331B09695879597F90895EE0FFF1F881F8BBF8B
S11331C00790F691E02D19940F931F93CF93DF93FB
S11331D08230910510F482E090E0E0910B0EF091C2
S11331E00C0E20E030E0A0E0B0E0309719F140810F
S11331F051810281138148175907C8F08417950734
S113320069F4109731F012960C93129713961C934D
S113321027C000930B0E10930C0E22C0211531050C
S113322019F04217530718F49A01BD01EF01DF01A9
S1133230F801DBCF21153105F9F0281B390B2430B7
S1133240310580F48A819B816115710521F0FB01B0
S11332509383828304C090930C0E80930B0EFE0123
S1133260329644C0FE01E20FF31F819391932250E2
S11332703109398328833AC02091090E30910A0E0E
S1133280232B41F4209102023091030230930A0E61
S11332902093090E2091000230910102211531057D
S11332A041F42DB73EB74091040250910502241B0E
S11332B0350BE091090EF0910A0EE217F307A0F422
S11332C02E1B3F0B2817390778F0AC014E5F5F4F78
S11332D02417350748F04E0F5F1F50930A0E409392
S11332E0090E8193919302C0E0E0F0E0CF01DF91F9
S11332F0CF911F910F910895CF93DF93009709F415
S113330081C0FC01329713821282A0910B0EB091FE
S11333100C0E109781F420813181820F931F20912C
S1133320090E30910A0E2817390751F5F0930A0E49
S1133330E093090E67C0ED0120E030E0CE17DF070F
S113334040F44A815B819E0141155105F1F0EA0187
S1133350F5CFD383C28340815181840F951FC81751
S1133360D90759F488819981840F951F0296918316
S113337080838A819B81938382832115310529F47B
S1133380F0930C0EE0930B0E3DC0E901FB83EA833E
S113339049915991C40FD51FEC17FD0761F4808141
S11333A09181840F951F0296E90199838883828114
S11333B093819B838A83E0E0F0E012968D919C9147
S11333C01397009719F0FD01DC01F7CF8D919C91C3
S11333D011979D012E5F3F4F820F931F2091090E7D
S11333E030910A0E2817390769F4309729F410929E
S11333F00C0E10920B0E02C013821282B0930A0EAE
S1133400A093090EDF91CF91089581E090E0F894A4
S113341005C3FB01DC0102C001900D9241505040F4
S1133420D8F70895DC0101C06D9341505040E0F796
S11334300895CF93DF93CDB7DEB7AE014A5F5F4FF8
S1133440FA0161917191AF0180910F0E9091100E6C
S113345038D0DF91CF91089560910F0E7091100EC6
S113346043C20F931F93CF93DF93E0910F0EF0911C
S1133470100E238121FF1BC08C01D0E0C0E0F801B5
S113348081918F0160910F0E7091100EDB011896DF
S1133490ED91FC911997882331F01995892B79F3D3
S11334A0DFEFCFEFECCF8AE01995892B19F08FEF7E
S11334B09FEF02C08D2F9C2FDF91CF911F910F9111
S11334C008952F923F924F925F926F927F928F92C4
S11334D09F92AF92BF92CF92DF92EF92FF920F939F
S11334E01F93CF93DF93CDB7DEB72B970FB6F89426
S11334F0DEBF0FBECDBF6C017B018A01FC011782C8
S11335001682838181FFBFC1CE0101963C01F60181
S11335109381F70193FD859193FF81917F01882326
S113352009F4ADC1853239F493FD859193FF8191FE
S11335307F01853221F4B60190E0D6D1E8CF912CF9
S1133540212C312CFFE1F315D8F08B3279F038F4CB
S1133550803279F08332A1F4232D20611DC08D3295
S113356061F0803369F4232D216016C0832D8260BD
S1133570382EE32DE4603E2E2AC0F32DF8601DC0E2
S113358037FC2DC020ED280F2A3040F08E32B9F4DC
S113359036FC75C1232D2064322E19C036FE06C0B8
S11335A08AE0989E200D1124922E11C0EAE02E9EEE
S11335B0200D1124222EF32DF0623F2E08C08C36EC
S11335C021F4832D8068382E02C0883641F4F70137
S11335D093FD859193FF81917F018111B3CF982F42
S11335E09F7D9554933028F40C5F1F4F9FE399837C
S11335F00DC0833631F0833771F0833509F055C03F
S113360020C0F801808189830E5F1F4F8824839432
S1133610912C530112C02801F2E04F0E511CF80105
S1133620A080B18036FE03C0692D70E002C06FEF48
S11336307FEFC5014ED14C018201F32DFF773F2E60
S113364015C0280122E0420E511CF801A080B1806F
S113365036FE03C0692D70E002C06FEF7FEFC50135
S11336602DD14C01F32DF0683F2E820133FC19C09B
S1133670822D90E088169906A0F4B60180E290E0CD
S113368033D12A94F5CFF50137FC859137FE81912A
S11336905F01B60190E028D121102A9421E0821A1A
S11336A091088114910479F7E1C0843611F08936C8
S11336B039F5F80137FE07C06081718182819381F9
S11336C00C5F1F4F08C060817181072E000C880BAE
S11336D0990B0E5F1F4FF32DFF763F2E97FF09C006
S11336E090958095709561957F4F8F4F9F4FF068AF
S11336F03F2E2AE030E0A30133D1882E861844C03F
S1133700853731F4232D2F7EB22E2AE030E025C0F8
S1133710932D997FB92E8F36C1F018F4883579F03E
S1133720AEC0803719F0883721F0A9C0E92FE061D5
S1133730BE2EB4FE0DC0FB2DF460BF2E09C034FEB6
S11337400AC0292F2660B22E06C028E030E005C04A
S113375020E130E002C020E132E0F801B7FE07C00A
S113376060817181828193810C5F1F4F06C06081EB
S1133770718180E090E00E5F1F4FA301F1D0882E8D
S11337808618FB2DFF773F2E36FE0DC0232D2E7F8E
S1133790A22E891458F434FE0BC032FC09C0832DC8
S11337A08E7EA82E05C0B82CA32C03C0B82C01C053
S11337B0B92CA4FE0FC0FE01E80DF11D80818033F9
S11337C021F49A2D997EA92E09C0A2FE06C0B394B5
S11337D0B39404C08A2D867809F0B394A3FC10C076
S11337E0A0FE06C0B21480F4280C922C9B180DC0C5
S11337F0B21458F4B60180E290E076D0B394F8CFD6
S1133800B21418F42B1802C0982C212CA4FE0FC05B
S1133810B60180E390E068D0A2FE16C0A1FC03C00C
S113382088E790E002C088E590E0B6010CC08A2DDC
S1133830867851F0A1FE02C08BE201C080E2A7FCB1
S11338408DE2B60190E050D0891430F4B60180E3E3
S113385090E04AD09A94F8CF8A94F301E80DF11DD0
S11338608081B60190E040D08110F6CF222009F487
S11338704ECEB60180E290E037D02A94F7CFF6011D
S11338808681978102C08FEF9FEF2B960FB6F89435
S1133890DEBF0FBECDBFDF91CF911F910F91FF907F
S11338A0EF90DF90CF90BF90AF909F908F907F90DC
S11338B06F905F904F903F902F900895FC0105907A
S11338C0615070400110D8F7809590958E0F9F1F1E
S11338D00895FC016150704001900110D8F7809563
S11338E090958E0F9F1F08950F931F93CF93DF938F
S11338F0FB01238121FD03C08FEF9FEF2CC022FF2A
S113390016C046815781248135814217530744F4F8
S1133910A081B1819D012F5F3F4F318320838C9320
S1133920268137812F5F3F4F3783268314C08B0155
S1133930EC01FB010084F185E02D1995892BE1F65A
S1133940D80116968D919C911797019617969C9382
S11339508E931697CE01DF91CF911F910F91089509
S1133960FA01AA27283051F1203181F1E8946F93AC
S11339706E7F6E5F7F4F8F4F9F4FAF4FB1E03ED052
S1133980B4E03CD0670F781F891F9A1FA11D680FF0
S1133990791F8A1F911DA11D6A0F711D811D911D23
S11339A0A11D20D009F468943F912AE0269F112498
S11339B03019305D3193DEF6CF010895462F4770FC
S11339C0405D4193B3E00FD0C9F7F6CF462F4F7057
S11339D0405D4A3318F0495D31FD4052419302D0B5
S11339E0A9F7EACFB4E0A69597958795779567955B
S11339F0BA95C9F700976105710508959B01AC015B
S1133A000A2E06945795479537952795BA95C9F781
S1133A10620F731F841F951FA01D0895F894FFCF94
S1133A200000130E200009000000030000000065E0
S1133A301350130000C600CE00D600360153746143
S1133A407274696E6720636F6D6D756E69636174FE
S1133A50696F6E004D6573736167653A2000256474
S1133A600046616B6520496E7465727275707400EE
S1133A7053616D706C65205461736B0050726F6795
S1133A8072616D20537461727465642E0049444CF4
S10D3A904500546D72205376630064
S9030000FC
