S00B00005254502E7372656323
S1130000D5C00000F3C00000F1C00000EFC0000044
S1130010EDC00000EBC00000E9C00000E7C0000034
S1130020E5C00000E3C00000E1C00000DFC0000044
S1130030A7C40000DBC00000D9C00000D7C0000086
S1130040D5C00000D3C00000D1C00000CFC0000064
S1130050CDC000000C947614C9C00000C7C00000D5
S11300600C94B2160C9453180C94A518BFC000003D
S1130070BDC00000BBC00000B9C00000B7C0000094
S1130080B5C00000B3C00000B1C00000AFC00000A4
S11300900C94E9180C943B19A9C00000A7C00000F7
S11300A0A5C00000A3C00000A1C000009FC00000C4
S11300B09DC000009BC0000099C0000097C00000D4
S11300C095C0000093C0000091C000000C947F19FB
S11300D00C94D1198BC000000C94151A0C94671A57
S11300E085C00000BF12BF12BF12F612FE12131316
S11300F0BF12BF12F612FE1207634236B79BD8A78F
S11301001A39685618AEBAAB558C1D3CB7CC576338
S1130110BD6DEDFD753EF6177231BF000000803FE6
S113012008000000BE922449123EABAAAA2ABECD02
S1130130CCCC4C3E00000080BEABAAAAAA3E000074
S11301400000BF000000803F00000000000841786C
S1130150D3BB4387D1133D190E3CC3BD4282AD2BA3
S11301603E68EC8276BED98FE1A93E4C80EFFFBE9B
S113017001C4FF7F3F00000000000E9477098091C6
S1130180110D823008F037D30E943C13F6CFCF9381
S1130190DF931F92CDB7DEB7CE0101960E944210C5
S11301A049810E9435120E948812F6CF11241FBE85
S11301B0CFEFD1E2DEBFCDBF00E00CBF12E0A0E084
S11301C0B2E0E8E6F5E400E00BBF02C007900D9250
S11301D0AC3EB107D9F72EE0ACEEB2E001C01D92FF
S11301E0A83BB207E1F7D9D00C94B22209CF8DE134
S11301F092E00E94D51F4FEF5FEFBA018091AC0EE1
S11302009091AD0E69D640E060E070E0CB010E94B1
S113021086138BE492E00E94D51F40E050E019C0A1
S1130220019602C080E090E084369105CCF32F5F04
S11302303F4F02C020E030E0283E83E0380794F3CB
S1130240FA01EE0FFF1FEC51F24F518340834F5FD1
S11302505F4F4436510574F300E020E030E0A9011B
S113026060E070E08091AC0E9091AD0EE5D46DE14C
S113027070E080E090E00E94D70CB9CF80E692E075
S11302800E94D51F4FEF5FEFBA018091AC0E9091A1
S1130290AD0E22D640E060E070E080E89FE30E946B
S11302A0861387E892E00E94D51F60E070E080E04A
S11302B090E01EC0FB01EE0FFF1FEC51F24F2081B6
S11302C03181820F931F1182108240E050E00AC0F6
S11302D02F5F3F4F02C020E030E024363105C4F3E5
S11302E04F5F5F4F483E23E05207ACF36F5F7F4F91
S11302F064367105FCF264E670E00E94441E7F934C
S11303006F938AE992E09F938F930E94C21F00E04B
S113031020E030E0A90160E070E08091AC0E9091A3
S1130320AD0E8AD46DE170E080E090E00E94D70CBD
S11303300F900F900F900F90A1CFEF92FF920F9319
S113034061E081E06ED49093AD0E8093AC0EE12C0D
S1130350F12C01E020E030E040EC50E06FE972E085
S113036087EF90E00E943A0A20E030E040EC50E051
S11303706BEA72E08EE391E00E943A0A0F91FF90DB
S1130380EF90089580E00E940415D7DF80E090E0AC
S11303900E9439140C942E140895F4DF85EB92E036
S11303A00E94D51F0E94850AFFCFE8EFF2E0ACEF70
S11303B0B2E0B183A08313821282ECEBFCE0F093F1
S11303C0F702E093F602138212821182108280EC0B
S11303D099E013969C938E931297ED93FC939093CC
S11303E0F3028093F2029093F5028093F40280E08A
S11303F090E89093ED028093EC020895CF93DF93FD
S1130400EC01A8EFB2E001C0DF01ED91FC9111977E
S1130410EC17FD07C8F312968D919C9113979D01DB
S1130420280F391FC217D30749F42A813B81820F51
S1130430931F13969C938E931297ED018A819B814F
S11304409E01280F391FE217F307C1F42091F60229
S11304503091F702E217F30771F022813381820FA2
S1130460931F9B838A83ED91FC91119780819181E5
S11304709983888305C03983288302C0F983E8837C
S1130480CA17DB0711F0CD93DC93DF91CF91089568
S1130490EF92FF920F931F93CF93DF938C010E94EF
S11304A0BB0A8091F6029091F702892B09F47DDF53
S11304B08091EC029091ED0280239123892B09F025
S11304C076C00115110549F0C801049608171907EB
S11304D018F000E010E001C08C010115110509F4C9
S11304E069C08091F4029091F5028017910708F495
S11304F064C0C091F802D091F902E8EFF2E002C0C2
S1130500FE01EC018A819B818017910720F4888188
S113051099810097A9F78091F6029091F702C81784
S1130520D90709F44DC0E080F18084E0E80EF11CA5
S113053088819981918380832A813B81201B310B9F
S11305402930310548F0CE01800F911FFC0133831F
S113055022831B830A8352DF2A813B818091F40228
S11305609091F502821B930B9093F5028093F40211
S11305704091F2025091F3028417950720F490936E
S1130580F3028093F2028091EC029091ED02282B09
S1130590392B3B832A83198218828091F00290912F
S11305A0F10201969093F1028093F0020BC0E12CCA
S11305B0F12C08C0E12CF12C05C0E12CF12C02C077
S11305C0E12CF12C0E94FB0BE114F10411F40E94C4
S11305D04813C701DF91CF911F910F91FF90EF90C6
S11305E008950F931F93CF93DF93009789F1EC0144
S11305F024974A815B812091EC023091ED02BA018B
S113060062237323672B21F168817981672B01F5BC
S113061020953095242335233B832A83ACD78A81C4
S11306209B812091F4023091F502820F931F9093E5
S1130630F5028093F402CE01E1DE8091EE02909106
S1130640EF0201969093EF028093EE020E94FB0B5F
S1130650DF91CF911F910F910895FC01039692832E
S113066081834FEF5FEFBA014383548365837683BD
S1130670908787839287818710820895FC0113866F
S1130680128608950F931F93CF93DF93EB01088194
S113069019812A813B810F3F4FEF14072407340748
S11306A021F4FC01A185B28511C0DC01139601C0BF
S11306B0DF011496ED91FC9115974081518162817F
S11306C07381041715072607370790F71496ED91E1
S11306D0FC911597FD83EC83D783C683BF83AE83D8
S11306E01596DC93CE9314979B878A87FC0120810F
S11306F02F5F2083DF91CF911F910F910895CF93A6
S1130700DF93FC01A285B385C481D581868197815D
S11307109F838E83C681D781848195819D838C83B9
S113072011968D919C911297E817F90731F48681FF
S1130730978112969C938E931197138612868C91AF
S113074081508C938C91DF91CF910895A89590EC72
S113075088E10FB6F894A895809360000FBE90933B
S113076060000895FC016083319770833197108293
S113077031971082319720E8208331971082319786
S113078010823197108277974083319750838697F0
S11307900895DCDFA0917F0DB091800DCD91CDBF88
S11307A0DD91DEBFFF91EF91DF91CF91BF91AF91CA
S11307B09F918F917F916F915F914F913F912F9175
S11307C01F910F91FF90EF90DF90CF90BF90AF906B
S11307D09F908F907F906F905F904F903F902F905D
S11307E01F900F900CBE0F900BBE0F900FBE0F907A
S11307F0089581E008950F920FB6F8940F920BB606
S11308000F920CB60F921F9211242F923F924F9287
S11308105F926F927F928F929F92AF92BF92CF928C
S1130820DF92EF92FF920F931F932F933F934F9377
S11308305F936F937F938F939F93AF93BF93CF9364
S1130840DF93EF93FF93A0917F0DB091800D0DB6D0
S11308500D920EB60D920E94F20CA0917F0DB091F4
S1130860800DCD91CDBFDD91DEBFFF91EF91DF9182
S1130870CF91BF91AF919F918F917F916F915F9134
S11308804F913F912F911F910F91FF90EF90DF9027
S1130890CF90BF90AF909F908F907F906F905F901C
S11308A04F903F902F901F900F900CBE0F900BBE57
S11308B00F900FBE0F9008950F920FB6F8940F92F9
S11308C00BB60F920CB60F921F9211242F923F92E7
S11308D04F925F926F927F928F929F92AF92BF924C
S11308E0CF92DF92EF92FF920F931F932F933F9338
S11308F04F935F936F937F938F939F93AF93BF9324
S1130900CF93DF93EF93FF93A0917F0DB091800D70
S11309100DB60D920EB60D9213BE41D681110E94F2
S1130920F20CA0917F0DB091800DCD91CDBFDD91E2
S1130930DEBFFF91EF91DF91CF91BF91AF919F9176
S11309408F917F916F915F914F913F912F911F9163
S11309500F91FF90EF90DF90CF90BF90AF909F905A
S11309608F907F906F905F904F903F902F901F904B
S11309700F900CBE0F900BBE0F900FBE0F900895FA
S11309809BDF1895DC0153962C915397222341F059
S11309905A96ED91FC915B9790818AE0891B0895AA
S11309A080E008950FB6F8940F92FC01868D8111B2
S11309B002C081E001C080E00F900FBE08950FB621
S11309C0F8940F92FC01268D878D281302C081E0D4
S11309D001C080E00F900FBE08950F931F93CF9333
S11309E0DF93EC01042F1E8D48A141110CC08881B6
S11309F09981892B09F042C08C819D810E946E0FE0
S1130A001D821C8242C0011117C050E08A819B8163
S1130A100E94B21F28A18A819B81820F911D9B8312
S1130A208A832C813D818217930750F188819981B3
S1130A309B838A8380E029C050E08E819F810E943D
S1130A40B21F88A190E09195819591092E813F81F3
S1130A50280F391F3F832E83488159812417350776
S1130A6030F42C813D81820F931F9F838E8302304B
S1130A7049F4112349F0115080E007C080E005C01B
S1130A8080E003C080E001C080E01F5F1E8FDF9123
S1130A90CF911F910F910895FC0140A14423A9F027
S1130AA050E026813781240F351F378326838481C4
S1130AB095812817390720F0808191819783868357
S1130AC0CB01668177810C94B21F08951F93CF9355
S1130AD0DF93EC010FB6F8940F921AA10BC08B8927
S1130AE0882351F0CE0143960E94AF0D81110E94DC
S1130AF0D50E115011169CF38FEF8AA30F900FBEE1
S1130B000FB6F8940F9219A10BC08885882351F071
S1130B10CE0108960E94AF0D81110E94D50E11508E
S1130B2011169CF38FEF89A30F900FBEDF91CF9125
S1130B301F910895CF93DF93EC010FB6F8940F92B1
S1130B40E881F9818F8D28A190E030E0829FA00197
S1130B50839F500D929F500D11244E0F5F1F5D8394
S1130B604C831E8EFB83EA830197289FA001299F53
S1130B70500D389F500D1124CF01840F951F9F8372
S1130B808E838FEF89A38AA361110AC08885882385
S1130B9069F0CE010896E3D7882341F02CDE06C025
S1130BA0CE0108965ADDCE01439657DD0F900FBE55
S1130BB081E0DF91CF9108950F931F93F8016111A4
S1130BC003C01183008302C051834083878F60A3D5
S1130BD061E0CF01AFDF1F910F910895DF92EF9293
S1130BE0FF920F931F93CF93DF93F82EE62ED42E0C
S1130BF0869FC001112483964BDCEC01009741F0E1
S1130C008C012D2DAC014D5D5F4F6E2D8F2DD4DFEA
S1130C10CE01DF91CF911F910F91FF90EF90DF9064
S1130C200895CF93C62F42E060E0D8DF009711F01B
S1130C30FC01C68FCF910895CF92DF92EF92FF927D
S1130C400F931F93CF93DF93CDB7DEB729970FB6DA
S1130C50F894DEBF0FBECDBF7C016B012E833F83B2
S1130C604887598710E00FB6F8940F92F701968DD4
S1130C70878D981710F00230A9F4402FB601C701F0
S1130C80ACDEF7019389992339F0C701439667D7FE
S1130C90882321F0B0DD02C08111ADDD0F900FBEBD
S1130CA081E046C08E819F81A885B985892B8A2BD6
S1130CB08B2B21F40F900FBE80E03AC0111104C0B9
S1130CC0CE010196FBD711E00F900FBE54D40FB69E
S1130CD0F8940F92F70181A18F3F09F411A2F70153
S1130CE082A18F3F09F412A20F900FBEBE016A5F6A
S1130CF07F4FCE010196F3D7811116C0C7015FDE85
S1130D00882371F04E815F8168857985C7010896D3
S1130D10CDD6C701DBDE6FD58111A5CF6CDDA3CFA6
S1130D20C701D4DE68D59FCFC701D0DE64D580E08B
S1130D3029960FB6F894DEBF0FBECDBFDF91CF91D9
S1130D401F910F91FF90EF90DF90CF900895EF9255
S1130D50FF920F931F93CF93DF938A01FC01568D6B
S1130D60378D531710F02230F1F4422F7801EC0143
S1130D701AA18E8DCE0131DE1F3F79F48B89882331
S1130D80A1F0CE014396EBD6882389F0E114F10457
S1130D9081F081E0F70180830DC0FF24F394F10E0C
S1130DA0FAA281E007C080E005C081E003C081E0D1
S1130DB001C081E0DF91CF911F910F91FF90EF90DF
S1130DC00895CF92DF92EF92FF920F931F93CF93E8
S1130DD0DF93CDB7DEB729970FB6F894DEBF0FBE09
S1130DE0CDBF8C016B012E833F8348875987E12C4B
S1130DF00FB6F8940F92F801F68CFF2091F0B6012B
S1130E00C8014ADEFA94F801F68E8085882329F019
S1130E10C8010896A4D68111EEDC0F900FBE81E0C4
S1130E204CC08E819F81A885B985892B8A2B8B2BF9
S1130E3021F40F900FBE80E040C0E11005C0CE0148
S1130E4001963CD7EE24E3940F900FBE94D30FB6D3
S1130E50F8940F92F80181A18F3F09F411A2F801CF
S1130E6082A18F3F09F412A20F900FBEBE016A5FE8
S1130E707F4FCE01019633D7811116C0C80192DD90
S1130E80882371F04E815F8168857985C801439616
S1130E900DD6C8011BDEAFD48111AACFACDCA8CF1C
S1130EA0C80114DEA8D4A4CFC80110DEA4D4C8019C
S1130EB079DD882309F49CCF80E029960FB6F89455
S1130EC0DEBF0FBECDBFDF91CF911F910F91FF9079
S1130ED0EF90DF90CF900895EF92FF920F931F93BE
S1130EE0CF93DF93CDB7DEB729970FB6F894DEBF63
S1130EF00FBECDBF8C014E835F8368877987E12C59
S1130F00F12C0FB6F8940F92F801868D8823C1F066
S1130F108150868F80819181892B29F40E94301021
S1130F20F80195838483F8018085882329F0C8011A
S1130F30089615D681115FDC0F900FBE81E06AC060
S1130F408E819F81A885B985892B8A2B8B2B21F4CF
S1130F500F900FBE80E05EC0F11005C0CE01019677
S1130F60ADD6FF24F3940F900FBE05D30FB6F894BB
S1130F700F92F80181A18F3F09F411A2F80182A117
S1130F808F3F09F412A20F900FBEBE016A5F7F4F1C
S1130F90CE010196A4D6811124C0C80103DD8823A3
S1130FA0E1F0F80180819181892B49F40FB6F8941E
S1130FB00F92848195810BD7E82E0F900FBE4E813E
S1130FC05F8168857985C801439670D5C8017EDD47
S1130FD012D4811196CF0FDC94CFC80177DD0BD4E6
S1130FE090CFC80173DD07D4C801DCDC882309F481
S1130FF088CFEE2071F00FB6F8940F92C801C2DCCE
S1131000682FF80184819581C4D70F900FBE80E0CA
S113101001C080E029960FB6F894DEBF0FBECDBFA5
S1131020DF91CF911F910F91FF90EF900895CF938F
S1131030DF93EC010FB6F8940F9289A18F3F09F466
S113104019A28AA18F3F09F41AA20F900FBE8E8DA8
S1131050811103C0CE01439640D5CE0137DDDF9127
S1131060CF910895E091F90CF091FA0C80818111EF
S11310700CC08FEF9FEFDC018093C30C9093C40CE2
S1131080A093C50CB093C60C0895E091F90CF091AF
S1131090FA0C0780F085E02D80819181A281B381D3
S11310A08093C30C9093C40CA093C50CB093C60C4E
S11310B00895CF93DF93EC018B8D9C8D92DACE0152
S11310C090DADF91CF9108954F925F926F927F9261
S11310D08F929F92AF92BF92CF92DF92EF92FF9244
S11310E00F93CF93DF932C015B014A013901E60191
S11310F065EA70E08B8D9C8D0E94BB1F8B8D9C8D4F
S113110021E0821A9108880E991EA114B10489F471
S113111015C0822F90E0F501E80FF91F3081DE0140
S1131120A80FB91F5D963C938081882329F02F5F17
S113113001C020E0203168F31CA601C01D8E0A30D6
S113114008F009E00A8F0DA71EA6CE01029696DAD2
S1131150CE010E9693DADB87CA878AE090E0A0E09E
S1131160B0E0801B9109A109B1098E879F87A88BE4
S1131170B98BDF8BCE8B84E0FE01BF96DF011D921D
S11311808A95E9F71BAAA301B201C401EBDA99839A
S11311908883E114F10419F0F701D183C083DF914E
S11311A0CF910F91FF90EF90DF90CF90BF90AF90D1
S11311B09F908F907F906F905F904F900895CF9302
S11311C0C0E008C02BE0C29FC00111248F5E924F83
S11311D044DACF5FCA30B0F386E09DE03EDA8BEFAD
S11311E09CE03BDA8CEE9CE038DA81EE9CE035DA68
S11311F085ED9CE032DA86E09DE09093FA0C8093D2
S1131200F90C8BEF9CE09093F80C8093F70CCF9142
S11312100895CF93DF93EC010FB6F8940F92809169
S1131220D40C8F5F8093D40C80917F0D9091800DAE
S1131230892B51F4D093800DC0937F0D8091D40CF1
S1131240813091F4BCDF10C08091CE0C81110CC0B0
S1131250E0917F0DF091800D928D8A8D891720F099
S1131260D093800DC0937F0D8091C70C8F5F8093C6
S1131270C70CEA8D8091CF0C8E1710F4E093CF0C3D
S11312808BE08E9FF0011124EF5EF24F0180F2811A
S1131290E02DFF83EE832681378139872887A68155
S11312A0B7819E012E5F3F4F15963C932E93149762
S11312B037832683EA8D8E9FF0011124EF5EF24F6F
S11312C0FD87EC8780818F5F80830F900FBE8091B4
S11312D0CE0C882349F0E0917F0DF091800D928D22
S11312E08A8D981708F487DADF91CF910895CF9308
S11312F0DF931AC00FB6F8940F92E091E80CF091C6
S1131300E90CC085D185CE010296F9D98091D40C1F
S113131081508093D40C8091E00C81508093E00C38
S11313200F900FBECE01C5DE8091E00C8111E2CF9B
S1131330DF91CF9108958F929F92AF92BF92CF92F7
S1131340DF92EF92FF92CF93DF936B017C01C42F66
S11313508090D00C9090D10CA090D20CB090D30C73
S113136080917F0D9091800D0296C9D98FEFC81698
S1131370D806E806F806B1F5CC23A1F1E5EDFCE0CA
S1131380A181B281C0917F0DD091800DBF83AE83C6
S1131390C0917F0DD091800D16968D919C911797D9
S11313A0998788871696CD91DC91179780917F0D48
S11313B09091800D02969D838C8380917F0D9091F6
S11313C0800D029617969C938E931697A0917F0D8D
S11313D0B091800D1D96FC93EE931C9780818F5FD6
S11313E080833DC0C80CD91CEA1CFB1CE0917F0D16
S11313F0F091800DC282D382E482F582C814D904AC
S1131400EA04FB0460F460917F0D7091800D80917B
S1131410F70C9091F80C6E5F7F4F34D920C0609127
S11314207F0D7091800D8091F90C9091FA0C6E5F94
S11314307F4F28D98091C30C9091C40CA091C50C06
S1131440B091C60CC816D906EA06FB0640F4C09251
S1131450C30CD092C40CE092C50CF092C60CDF9180
S1131460CF91FF90EF90DF90CF90BF90AF909F907F
S11314708F9008952F923F924F925F926F927F9236
S11314808F929F92AF92BF92CF92DF92EF92FF9290
S11314900F93CF93DF933C011B014A012901CA0139
S11314A00E9448026C01892B69F084E390E00E9459
S11314B04802EC01892B19F0DC8ECB8E05C0C601E5
S11314C090D802C0C0E0D0E0209761F0A12CB12CEC
S11314D06E019201A401B101C301F6DDCE0199DED2
S11314E081E001C08FEFDF91CF910F91FF90EF90DA
S11314F0DF90CF90BF90AF909F908F907F906F9030
S11315005F904F903F902F900895EF92FF920F932A
S11315100F2EF1ECEF2EFCE0FF2EF02D00E020E08A
S113152030E040EC50E067EC72E08DEB90E0A2DF3D
S1131530813009F431D68130C1F4F8948FEF9FEFF4
S1131540DC018093C30C9093C40CA093C50CB0939E
S1131550C60C81E08093CE0C1092D00C1092D10C6A
S11315601092D20C1092D30C14D9809106020F91D0
S1131570FF90EF9008958091C00C8F5F8093C00C12
S113158008950FB6F8940F926091D00C7091D10C1D
S11315908091D20C9091D30C0F900FBE0895CF92EE
S11315A0DF92EF92FF92CF93DF938091C00C811171
S11315B005C1C090D00CD090D10CE090D20CF0902A
S11315C0D30C8FEFC81AD80AE80AF80AC092D00CD4
S11315D0D092D10CE092D20CF092D30CC114D1046D
S11315E0E104F104B1F48091F90C9091FA0C20918A
S11315F0F70C3091F80C3093FA0C2093F90C90937B
S1131600F80C8093F70C8091C80C8F5F8093C80C02
S113161029DD8091C30C9091C40CA091C50CB091AC
S1131620C60CC816D906EA06FB0620F480E0B2C050
S113163081E001C080E0E091F90CF091FA0C908116
S113164091110CC04FEF5FEFBA014093C30C50935C
S1131650C40C6093C50C7093C60C9CC0E091F90C4B
S1131660F091FA0C0780F085E02D0084F185E02DDF
S11316704281538164817581C416D506E606F70656
S113168048F44093C30C5093C40C6093C50C7093FE
S1131690C60C80C0A485B585C681D78120853185D7
S11316A03F832E83C085D185268137813D832C835A
S11316B011964D915C9112979F012E5F3F4F4217F7
S11316C0530731F44085518512965C934E931197DC
S11316D0158614869C9191509C93A08DB18D109782
S11316E009F1C289D389448955895F834E83C489AA
S11316F0D589428953895D834C8311966D917C9180
S11317001297AF01425F5F4F6417750731F4448944
S1131710558912965C934E931197118E108E9C915D
S113172091509C93A28D9091CF0C9A1710F4A09392
S1131730CF0C9BE09A9FD0011124AF5EB24F11965B
S11317400D90BC91A02DB783A68316964D915C9104
S11317501797518740871696CD91DC9117973D8353
S11317602C8317963C932E931697A28D9A9FD001A3
S11317701124AF5EB24FB587A4879C919F5F9C9361
S1131780228DE0917F0DF091800D928D291708F044
S11317904FCF51CFE0917F0DF091800DE28D9BE012
S11317A0E99FF0011124EF5EF24F9081923008F02E
S11317B081E09091C90C911116C016C08091CA0C99
S11317C09091CB0CA091CC0CB091CD0C0196A11DA5
S11317D0B11D8093CA0C9093CB0CA093CC0CB09306
S11317E0CD0C80E001C081E0DF91CF91FF90EF90BC
S11317F0DF90CF900895CF92DF92EF92FF92CF9334
S1131800DF930FB6F8940F928091C00C81508093AF
S1131810C00C8091C00C8111BEC08091D40C811188
S113182088C0BCC0E091F30CF091F40C0084F18505
S1131830E02DA08DB18DC289D389848995899F8338
S11318408E83C489D589828993899D838C831196DB
S11318502D913C911297CF010E962817390731F438
S11318608489958912969C938E931197118E108E6C
S11318708C9181508C93A485B585C681D781808550
S113188091859F838E83C085D185868197819D8331
S11318908C8311968D919C9112979F012E5F3F4FDF
S11318A08217930731F48085918512969C938E93C9
S11318B01197158614868C9181508C93A28D8091FA
S11318C0CF0C8A1710F4A093CF0C8BE08A9FD00121
S11318D01124AF5EB24F11960D90BC91A02DB78329
S11318E0A68316964D915C9117975187408716965B
S11318F0CD91DC9117973D832C8317963C932E93BF
S11319001697A28D8A9FD0011124AF5EB24FB5877E
S1131910A4878C918F5F8C93928DA0917F0DB09151
S1131920800D5A968C91981730F081E08093C90C01
S113193002C0E0E0F0E08091EC0C811173CFEF2B5A
S113194009F090DBC090CA0CD090CB0CE090CC0C8A
S1131950F090CD0CC114D104E104F104A1F01FDE18
S1131960882319F081E08093C90C81E0C81AD1085A
S1131970E108F108A1F71092CA0C1092CB0C109256
S1131980CC0C1092CD0C8091C90C882331F00E94AC
S1131990FB0381E003C080E001C080E00F900FBE34
S11319A0DF91CF91FF90EF90DF90CF900895CF9289
S11319B0DF92EF92FF926B017C01672B682B692BFE
S11319C039F0D9DD40E0C701B601B5DC14DF01C050
S11319D080E0811102C00E94FB03FF90EF90DF9032
S11319E0CF9008958091C00C882321F081E08093EA
S11319F0C90C08951092C90CE0917F0DF091800DEF
S1131A0020813181E0917F0DF091800D838D948D43
S1131A108217930758F060917F0D7091800D635E7B
S1131A207F4F80917F0D9091800D3ED68091CF0C99
S1131A3001C08150282F30E09BE0929FF001939FDA
S1131A40F00D1124EF5EF24F9081992391F39BE006
S1131A50929FA001939F500D1124DF010180F28118
S1131A60E02D0480F581E02D1296FC93EE931197FE
S1131A704C5E524FE417F50729F444815581FD016A
S1131A80528341839BE0929FF001939FF00D1124B8
S1131A90EF5EF24F0180F281E02D20853185309395
S1131AA0800D20937F0D8093CF0C0895CF92DF9209
S1131AB0EF92FF926A017B0160917F0D7091800D1E
S1131AC0625F7F4F0E94420341E0C701B60133DCED
S1131AD0FF90EF90DF90CF900895CF93DF93FC01B8
S1131AE0CB01BA01A181B281C0917F0DD091800D4B
S1131AF0BB8BAA8BC0917F0DD091800D16964D9112
S1131B005C9117975D8B4C8B1696CD91DC91179752
S1131B1040917F0D5091800D425F5F4F5D834C83F8
S1131B2040917F0D5091800D425F5F4F17965C93FB
S1131B304E931697A0917F0DB091800D5996FC930A
S1131B40EE93589730813F5F3083222319F06FEF73
S1131B507FEFCB01422FEFDBDF91CF910895CF933D
S1131B60DF93DC011796ED91FC9118970084F185C1
S1131B70E02DA08DB18DC289D389848995899F83F5
S1131B808E83C489D589828993899D838C83119698
S1131B908D919C9112979F01225F3F4F821793076B
S1131BA031F48489958912969C938E931197118EA2
S1131BB0108E8C9181508C938091C00C811152C0F5
S1131BC0A485B585C681D781808591859F838E83C1
S1131BD0C085D185868197819D838C8311968D9153
S1131BE09C9112979F012E5F3F4F8217930731F408
S1131BF08085918512969C938E93119715861486F1
S1131C008C9181508C93A28D8091CF0C8A1710F403
S1131C10A093CF0C8BE08A9FD0011124AF5EB24F0A
S1131C2011960D90BC91A02DB783A68316964D9165
S1131C305C911797518740871696CD91DC91179741
S1131C403D832C8317963C932E931697A28D8A9FDF
S1131C50D0011124AF5EB24FB587A4878C918F5FFA
S1131C608C931CC04CEE5CE0DA011196CD91DC91B2
S1131C701297D38BC28B8E819F81958B848B8E819F
S1131C809F81DC0115963C932E9314973F832E83FA
S1131C90518F408FDA018C918F5F8C93928DE091FC
S1131CA07F0DF091800D828D891720F481E080935F
S1131CB0C90C01C080E0DF91CF9108952091C80C38
S1131CC0FC0120834091D00C5091D10C6091D20C36
S1131CD07091D30C418352836383748308958F92EC
S1131CE09F92AF92BF92CF92DF92EF92FF920F93A7
S1131CF01F93CF93DF93FB010FB6F8940F92C0901C
S1131D00D00CD090D10CE090D20CF090D30CDC012C
S1131D1011960D911D912D913C91149746015701F7
S1131D20801A910AA20AB30A4081518162817381A7
S1131D304F3FBFEF5B076B077B0739F1EC01B881BD
S1131D40A091C80CBA1759F0C016D106E206F306E2
S1131D5030F0108211821282138281E017C084163F
S1131D609506A606B70658F4481959096A097B0965
S1131D704083518362837383A1DF80E007C01082B4
S1131D8011821282138281E001C080E00F900FBEA5
S1131D90DF91CF911F910F91FF90EF90DF90CF9043
S1131DA0BF90AF909F908F90089581E08093C90C6D
S1131DB008958091CE0C882331F08091C00C81115C
S1131DC004C082E0089581E0089580E008950F93AF
S1131DD01F93CF93DF93FC01892B09F477C0828D85
S1131DE0A0917F0DB091800D5A969C91891708F0AF
S1131DF063C04685578560897189772394F0A091E3
S1131E007F0DB091800D5A969C914AE050E060E0BD
S1131E1070E0491B51096109710946875787608B36
S1131E20718B248535854BE0849FC00111248F5E1E
S1131E30924F28173907B9F5EF018F010E5F1F4F35
S1131E40C8010E947F03E0917F0DF091800DE28D27
S1131E50EA8F8091CF0C8E1710F4E093CF0C8BE0B7
S1131E608E9FF0011124EF5EF24F0180F281E02D8C
S1131E70FF83EE832681378139872887A681B7813E
S1131E8015961C930E93149717830683EA8D8E9FE1
S1131E90F0011124EF5EF24FFD87EC8780818F5FA4
S1131EA0808381E016C0A0917F0DB091800D5A9679
S1131EB08C91828F81E00DC095A5E0917F0DF0910A
S1131EC0800D828D981720F080E003C080E001C06F
S1131ED081E0DF91CF911F910F9108950F931F938C
S1131EE0CF93DF93FC01892B09F449C086A5815067
S1131EF086A7228D95A5291709F443C0811143C0F3
S1131F00EF018F010E5F1F4FC8010E947F03EDA5F3
S1131F10EA8F8AE090E0A0E0B0E08E1B9109A1096D
S1131F20B1098E879F87A88BB98B8091CF0C8E17B0
S1131F3010F4E093CF0C8BE08E9FF0011124EF5E40
S1131F40F24F0180F281E02DFF83EE8326813781F9
S1131F5039872887A681B78115961C930E93149709
S1131F6017830683EA8D8E9FF0011124EF5EF24FF2
S1131F70FD87EC8780818F5F808381E005C080E0EE
S1131F8003C080E001C080E0DF91CF911F910F91E9
S1131F9008950F931F93CF93DF93FC01892B09F4CA
S1131FA05AC085A5861708F4862F928D891709F4DF
S1131FB052C026A5213009F04EC0828F4685578530
S1131FC060897189772364F04AE050E060E070E052
S1131FD0481B51096109710946875787608B718BCA
S1131FE0248535854BE0949FC00111248F5E924F68
S1131FF02817390781F5EF018F010E5F1F4FC801C4
S11320000E947F03EA8D8091CF0C8E1710F4E09329
S1132010CF0C8BE08E9FF0011124EF5EF24F018014
S1132020F281E02DFF83EE8326813781398728876B
S1132030A681B78115961C930E9314971783068374
S1132040EA8D8E9FF0011124EF5EF24FFD87EC873D
S113205080818F5F8083DF91CF911F910F910895CD
S113206080917F0D9091800D892B39F0E0917F0D47
S1132070F091800D86A58F5F86A780917F0D90914A
S1132080800D0895DC01E0918B0DF0918C0D808121
S113209091E0811190E09C93911108C00780F08534
S11320A0E02D6081718182819381089560E070E008
S11320B0CB010895CF92DF92EF92FF920F931F937B
S11320C0FC01428353836483758393878287041757
S11320D0150726073707C0F00C191D092E093F09FB
S11320E086859785A089B189081719072A073B07B0
S11320F000F5BF016E5F7F4F8091890D90918A0D2D
S11321000E94420380E018C00C151D052E053F05F2
S113211028F44C155D056E057F0568F4BF016E5FFC
S11321207F4F80918B0D90918C0D0E94420380E033
S113213003C081E001C081E01F910F91FF90EF90F7
S1132140DF90CF9008950FB6F8940F928091870D89
S11321509091880D892BE9F488E99DE00E942D0374
S11321608DE89DE00E942D0388E99DE090938C0DFD
S113217080938B0D8DE89DE090938A0D8093890D5B
S113218040E067E08AE00E94EE059093880D80931A
S1132190870D0F900FBE0895EF92FF920F93D3DF38
S11321A08091870D9091880D892B89F00F2EF5E889
S11321B0EF2EFDE0FF2EF02D03E020E030E040ECB8
S11321C050E06CEC72E087EC90E054D901C080E000
S11321D00F91FF90EF9008958F929F92AF92BF92CC
S11321E0CF92DF92EF92FF920F931F93CF93DF93DF
S11321F0CDB7DEB727970FB6F894DEBF0FBECDBFBD
S1132200E091870DF091880D309781F169832A83DD
S11322103B834C835D839F838E836630F4F4C9DDF6
S1132220823069F400E0A7019601BE016F5F7F4F21
S11322308091870D9091880D0E941C0618C000E0C3
S113224020E030E0A901BE016F5F7F4F8091870DD0
S11322509091880D0E941C060AC020E0A801BE01CE
S11322606F5F7F4FCF010E94A70601C080E02796D1
S11322700FB6F894DEBF0FBECDBFDF91CF911F9193
S11322800F91FF90EF90DF90CF90BF90AF909F9011
S11322908F9008958F929F92AF92BF92CF92DF92C8
S11322A0EF92FF920F931F93CF93DF933BC007806E
S11322B0F085E02D80809180A280B380C085D18597
S11322C08E010E5F1F4FC8010E947F03EC89FD89B8
S11322D0CE0119958E8982FF25C08E859F85A88998
S11322E0B989880D991DAA1DBB1D88169906AA06D1
S11322F0BB0670F48A839B83AC83BD83DB87CA8768
S1132300B80180918B0D90918C0D0E9442030AC0FC
S1132310C12CD12C760100E010E0A501940160E00D
S1132320CE015ADFE0918B0DF0918C0D80818111EB
S1132330BECF8091890D90918A0D90938C0D8093DE
S11323408B0DF0938A0DE093890DDF91CF911F914E
S11323500F91FF90EF90DF90CF90BF90AF909F9040
S11323608F900895CF92DF92EF92FF92CF93DF93F5
S1132370EC0107D96B017C018091810D9091820D54
S1132380A091830DB091840DC816D906EA06FB0608
S113239020F480DF81E0888301C01882C092810D1F
S11323A0D092820DE092830DF092840DC701B601A4
S11323B0DF91CF91FF90EF90DF90CF9008954F92EF
S11323C05F926F927F928F929F92AF92BF92CF92C1
S11323D0DF92EF92FF920F931F93CF93DF934B0102
S11323E05C0129013A01E0918B0DF0918C0D07807D
S11323F0F085E02DC085D185CE0102960E947F0331
S11324008E8982FF1BC04E855F8568897989480D56
S1132410591D6A1D7B1D7501640193018201CE0162
S113242049DE882369F0C12CD12C760100E010E04C
S1132430A501940160E0CE01CFDE02C08E7F8E8BB9
S1132440EC89FD89CE011995DF91CF911F910F91F0
S1132450FF90EF90DF90CF90BF90AF909F908F90C0
S11324607F906F905F904F9008958F929F92AF925C
S1132470BF92CF92DF92EF92FF921F93CF93DF939D
S11324801F92CDB7DEB76B017C01142F74D8CE0137
S1132490019668DF4B015C01898181112BC0111108
S11324A00CC08C149D04AE04BF0438F0A4D9A5015B
S11324B09401C701B60183DF1EC0112341F0E091EE
S11324C0890DF0918A0D808111E0811110E0B7012E
S11324D0A601481959096A097B09212F8091870DA2
S11324E09091880D0E94170886D9811104C00E941A
S11324F0FB0301C080D90F90DF91CF911F91FF9012
S1132500EF90DF90CF90BF90AF909F908F90089501
S1132510AF92BF92CF92DF92EF92FF920F931F93ED
S1132520CF93DF93CDB7DEB728970FB6F894DEBF0D
S11325300FBECDBF82C0898188230CF47EC0AE80DB
S1132540BF80D5011C968D919C911D97892B21F0FC
S1132550C50102960E947F03CE01089603DF8B011A
S11325609C01E9810E2E000CFF0BEA30F10508F006
S113257064C08827EE58FF4F8F4F0C94571EF50107
S113258086898160868BCA80DB80EC80FD804685ED
S11325905785608971894C0D5D1D6E1D7F1DC501B8
S11325A089DD882309F449C0D5015496ED91FC9145
S11325B05597C5011995F501868982FF3EC04A8168
S11325C05B816C817D8186859785A089B1899A011B
S11325D0AB01280F391F4A1F5B1FC12CD12C760178
S11325E000E010E060E0C501F7DD27C0D501569694
S11325F08C9156978E7F56968C931FC0F5018689D1
S11326008160868B4A815B816C817D814687578797
S1132610608B718B400F511F621F731F680179011A
S1132620C50148DD0AC0F501868981FD04C0C501E4
S11326300E94F10202C08E7F868B20E030E0A90167
S1132640BE016F5F7F4F8091870D9091880D0E942E
S1132650E106811170CF28960FB6F894DEBF0FBE45
S1132660CDBFDF91CF911F910F91FF90EF90DF903D
S1132670CF90BF90AF900895089584B1806884B9D5
S113268085B1806885B9089583B1806883B9089558
S1132690F4DF2FEF80E792E0215080409040E1F793
S11326A000C00000F1DFF5CFE8DF2FEF87EA91E605
S11326B0215080409040E1F700C00000E5DFF5CFF5
S11326C081B38F6081BB2898289A21B381E090E080
S11326D00090D30D02C0880F991F0A94E2F78095E9
S11326E0822381BBE091A30DF091A40D309709F0F2
S11326F0199508959FB7F894EFECFDE010828EE9E8
S113270081838AE0828383839FBF0895BF92CF929F
S1132710DF92EF92FF920F931F93CF93DF936B019E
S11327207C01B42E1092A60D83E0841788F1642FE7
S113273070E080E090E00E94A91B9B01AC0160E086
S113274070E080E291E40E94ED1CA70196010E94D2
S11327508A1C20E030E040E05FE3FED60E94E61BE6
S1132760C7D7AB01772364F444275527461B570B7F
S113277021E0483E83E058070CF420E011E00CC04F
S113278021E0403187E258070CF420E010E004C057
S113279040E050E021E010E00FB7F894222311F05C
S11327A0A9DF51C0C3EDDDE00F2EFFECCF2EFDE01D
S11327B0DF2EF02D0F2EFAE0EF2EF12CF02DCA01B2
S11327C0B7010E94441EFC01EC52FD4F80818A93A4
S11327D0462F572FCC15DD0591F743E050E04B19F8
S11327E0510914161506F4F48091CF0D8C3F49F06D
S11327F060E019C0FC01E153F24F30813C3F21F00D
S113280012C080E090E020E0FC01E153F24F10821E
S1132810622F2F5F822F022E000C990B84179507CD
S11328204CF301C060E0112331F0E62FF0E0E153F6
S1132830F24F82E08083BB2031F0FA01E153F24F82
S11328408081816080830FBFDF91CF911F910F91B1
S1132850FF90EF90DF90CF90BF90089585B585608D
S113286085BD089585B5887F85BD81B38F6081BBA3
S113287008958F92AF92CF92EF920F931F93CF93BD
S1132880DF93EC0180B38F6080BB81B38F6081BB29
S1132890209A80E693E19F938F93812CA12CC12CE5
S11328A0E12C00E010E020E240E063E080E10ED1A2
S11328B09093D50D8093D40D89E187BD84B5826052
S11328C084BDEEE6F0E0808182608083CBDFD0932C
S11328D0A40DC093A30D0F900F90DF91CF911F9182
S11328E00F91EF90CF90AF908F9008951F920F9219
S11328F00FB60F9211240BB60F922F933F934F9361
S11329005F936F937F938F939F93AF93BF93EF9353
S1132910FF938091A60D882369F12091A70D309132
S1132920A80D253F91E0390738F42F5F3F4F3093CE
S1132930A80D2093A70D1EC01092A80D1092A70DEC
S1132940E091A50D2E2F30E090E004972817390769
S113295014F4EF5F01C0E0E0E093A50DF0E0E7556B
S1132960F24FAFECBDE023ED3DE081918D93A217D2
S1132970B307D9F78091D30D90E0019683709078D6
S1132980992324F401978C6F9F6F01968093D30D44
S11329909927FC01E153F24F608160958091D40D39
S11329A09091D50D6AD1FF91EF91BF91AF919F9115
S11329B08F917F916F915F914F913F912F910F90E4
S11329C00BBE0F900FBE0F901F901895CF93DF93FF
S11329D01F92CDB7DEB7BE016F5F7F4F8091D60DDA
S11329E09091D70D40D38111F6CF898190E00F905B
S11329F0DF91CF910895682F8091D60D9091D70DD6
S1132A0007D380E090E008958F929F92AF92CF9287
S1132A10EF920F93812C912C6894AA24A7F86894C0
S1132A20CC24C7F8E12C00E023E040E051EE60E064
S1132A3070E052D29093D70D8093D60DE2EBFEE076
S1132A4087E092E091838083938382830F91EF9058
S1132A50CF90AF909F908F900895E091D90DF09111
S1132A60DA0D3097F9F0A081B1811097D9F0238164
S1132A70213069F44C9121E030E0028002C0220F41
S1132A80331F0A94E2F7209524232C930BC04C9116
S1132A9021E030E0028002C0220F331F0A94E2F7E3
S1132AA0242B2C939093DA0D8093D90D009769F021
S1132AB01092DB0D2CB52F732CBDFC0124812CBD91
S1132AC085818DBD8CB580648CBD08954F925F92D5
S1132AD06F927F928F929F92AF92BF92CF92DF922A
S1132AE0EF92FF920F931F93CF93DF93CDB7DEB78F
S1132AF0982EB62ED42EF22E8091D80D811106C0B8
S1132B0084B1876084B981E08093D80D8CE090E033
S1132B100E948D1E3C01DC0111961C930E931296AB
S1132B20EC9212971396CC9213978D2D880F880FE1
S1132B30F82AEB2DF0E0EC51FD4F8081982A8F2D7F
S1132B40892914968C93B3E0BB1518F481E0F30142
S1132B508583A11006C0D30119961C921E92189762
S1132B6014C06A2D70E084E090E00E94731E2C0172
S1132B7061E070E086E090E00E94731E6C014A2DD3
S1132B80B2018BD1F301D186C086811006C0D30176
S1132B9017961C921E92169714C0682D70E084E05C
S1132BA090E00E94731E5C0161E070E086E090E0BA
S1132BB00E94731E6C01482DB5016FD1F301D782B9
S1132BC0C6828C899D89D3011B969C938E931A97F8
S1132BD00115110559F0F801229181E090E002C03D
S1132BE0880F991FEA94E2F7822B80832FB7F89419
S1132BF04091D90D5091DA0D7092DA0D6092D90D91
S1132C00D301ED91FC911197309701F113968C91BA
S1132C101397813071F4308181E090E012960C902A
S1132C2002C0880F991F0A94E2F78095832380835A
S1132C300DC0308181E090E0D30112960C9002C067
S1132C40880F991F0A94E2F7832B80835093DA0D3F
S1132C504093D90D2FBFC301DF91CF911F910F91E5
S1132C60FF90EF90DF90CF90BF90AF909F908F90A8
S1132C707F906F905F904F9008951F93CF93DF9351
S1132C80009709F46AC0162FEC018091D90D909138
S1132C90DA0DC817D90711F0CE01DFDE8FB72FB7D1
S1132CA0F8948091DB0D811131C081E08093DB0DBC
S1132CB0A091D90DB091DA0DED91FC911197309757
S1132CC0F9F013968C911397813069F4308181E087
S1132CD090E012960C9002C0880F991F0A94E2F7B4
S1132CE0832B80830DC0308181E090E012960C909C
S1132CF002C0880F991F0A94E2F78095832380838A
S1132D008CB580688CBD1EBD80E025C0EE81FF813E
S1132D103097E1F03481838142819581841B89233A
S1132D203817B1F083814281841B8923381791F0CD
S1132D30838196959823A081B181A90FB11D1C931D
S1132D408F5F95818923838380E005C082E003C07F
S1132D5081E001C080E02FBF01C083E0DF91CF910B
S1132D601F9108951F920F920FB60F9211240BB664
S1132D700F922F933F934F935F936F937F938F9310
S1132D809F93AF93BF93CF93DF93EF93FF936EB56E
S1132D90A091D90DB091DA0D1896ED91FC91199787
S1132DA03097A1F0838122819581821B892324811C
S1132DB0821761F0838196959823C081D181C90FD0
S1132DC0D11D68838F5F9581892383831696ED9146
S1132DD0FC911797309799F093818281981779F035
S1132DE092818581282F26952923A081B181A20F64
S1132DF0B11D2C919F5F892382832EBD2DC08CB57C
S1132E008F778CBD1092DB0DA091D90DB091DA0DA6
S1132E10ED91FC9111973097F9F013968C911397DB
S1132E20813071F4208181E090E012960C9002C010
S1132E30880F991F0A94E2F78095822380830CC03F
S1132E40208181E090E012960C9002C0880F991FB7
S1132E500A94E2F7822B80838091D90D9091DA0D48
S1132E60DC011A96ED91FC911B97309709F01995A6
S1132E70FF91EF91DF91CF91BF91AF919F918F918E
S1132E807F916F915F914F913F912F910F900BBE66
S1132E900F900FBE0F901F901895FC01411102C0B6
S1132EA00E94AE1F842F90E09C012150310982239F
S1132EB09323892B11F00E94AE1F413810F00E9419
S1132EC0AE1F128213824483440F415045837183A1
S1132ED0608380E090E008952F923F924F925F923A
S1132EE06F927F928F929F92AF92CF92EF92FF92C6
S1132EF00F931F93CF93DF93CDB7DEB7F82E2A013C
S1132F003B0188E090E009D78C018F2D90E0FC0113
S1132F10EE0FFF1FE452F24F1183008301151105D8
S1132F2009F464C0880F991FFC01EB5EFD4F80819A
S1132F309181D8018D939C938C2D90E0880F991FDB
S1132F40880F991FEAD61C0186E090E0E6D67C0142
S1132F504C2DB101A2DFF801F582E4828A2D90E0C4
S1132F60880F991F880F991FD8D61C0186E090E01E
S1132F70D4D67C014A2DB10190DFD8011396FC927E
S1132F80EE92129717969C928E921697FFB6F8942B
S1132F90ED91FC91119736978081826080838D90AA
S1132FA09C90C301B201D5D320E030E040E051E46D
S1132FB0B1D49B01AC0160E074E284E79BE430D3BC
S1132FC020E030E040E85FE3C6D297D3F4013297C3
S1132FD06083D801ED91FC911197359788E980833E
S1132FE0ED91FC91349786E08083FFBEC801DF91A8
S1132FF0CF911F910F91FF90EF90CF90AF909F9042
S11330008F907F906F905F904F903F902F90089596
S1133010CF93DF93DC01892B01F11296ED91FC91A2
S11330201397938182812581981B92238481981719
S1133030B1F0838126952823C081D181C20FD11D8F
S113304068838F5F958189238383ED91FC91359704
S113305080818062808380E003C081E001C082E0DF
S1133060DF91CF9108950097D1F0DC011496ED9192
S1133070FC91159793818281981799F092818581AB
S113308086958923A081B181A80FB11D8C91DB01A4
S11330908C939F5F85819823928380E0089581E0DB
S11330A0089583E008951F920F920FB60F92112492
S11330B00BB60F922F933F934F935F936F937F932E
S11330C08F939F93AF93BF93CF93DF93EF93FF932C
S11330D0A091DC0DB091DD0D109711F16091C60047
S11330E01496ED91FC911597938182812581981B0B
S11330F092238481981761F0838126952823C081C7
S1133100D181C20FD11D68838F5F95818923838309
S11331101696ED91FC911797309711F0CD01199502
S1133120FF91EF91DF91CF91BF91AF919F918F91DB
S11331307F916F915F914F913F912F910F900BBEB3
S11331400F900FBE0F901F9018951F920F920FB6FD
S11331500F9211240BB60F922F938F939F93AF93DB
S1133160BF93EF93FF93E091DC0DF091DD0D309769
S1133170B9F00280F381E02D938182819817B1F038
S113318092818581282F26952923A081B181A20FC0
S1133190B11D2C919F5F892382832093C6000BC0AD
S11331A0E1ECF0E080818F7D808305C0E1ECF0E00C
S11331B080818F7D8083FF91EF91BF91AF919F912B
S11331C08F912F910F900BBE0F900FBE0F901F90F9
S11331D018951F920F920FB60F9211240BB60F92EF
S11331E02F933F934F935F936F937F938F939F930B
S11331F0AF93BF93CF93DF93EF93FF93A091DE0D33
S1133200B091DF0D109711F16091CE001496ED91FD
S1133210FC911597938182812581981B9223848147
S1133220981761F0838126952823C081D181C20F2C
S1133230D11D68838F5F9581892383831696ED91D1
S1133240FC911797309711F0CD011995FF91EF91EB
S1133250DF91CF91BF91AF919F918F917F916F91AA
S11332605F914F913F912F910F900BBE0F900FBE26
S11332700F901F9018951F920F920FB60F92112462
S11332800BB60F922F938F939F93AF93BF93EF93AC
S1133290FF93E091DE0DF091DF0D3097B9F00280DD
S11332A0F381E02D938182819817B1F09281858119
S11332B0282F26952923A081B181A20FB11D2C911D
S11332C09F5F892382832093CE000BC0E9ECF0E05A
S11332D080818F7D808305C0E9ECF0E080818F7D63
S11332E08083FF91EF91BF91AF919F918F912F9127
S11332F00F900BBE0F900FBE0F901F9018951F924A
S11333000F920FB60F9211240BB60F922F933F9387
S11333104F935F936F937F938F939F93AF93BF93D9
S1133320CF93DF93EF93FF93A091E00DB091E10D64
S1133330109711F16091D6001496ED91FC911597B8
S1133340938182812581981B92238481981761F04F
S1133350838126952823C081D181C20FD11D688322
S11333608F5F9581892383831696ED91FC9117973E
S1133370309711F0CD011995FF91EF91DF91CF9125
S1133380BF91AF919F918F917F916F915F914F9179
S11333903F912F910F900BBE0F900FBE0F901F9077
S11333A018951F920F920FB60F9211240BB60F921D
S11333B02F938F939F93AF93BF93EF93FF93E091DA
S11333C0E00DF091E10D3097B9F00280F381E02D2A
S11333D0938182819817B1F092818581282F269557
S11333E02923A081B181A20FB11D2C919F5F892354
S11333F082832093D6000BC0E1EDF0E080818F7DC5
S1133400808305C0E1EDF0E080818F7D8083FF91B2
S1133410EF91BF91AF919F918F912F910F900BBE20
S11334200F900FBE0F901F9018951F920F920FB61A
S11334300F9211240BB60F922F933F934F935F93E8
S11334406F937F938F939F93AF93BF93CF93DF93A8
S1133450EF93FF93A091E20DB091E30D109711F15A
S1133460609136011496ED91FC91159793818281B8
S11334702581981B92238481981761F08381269576
S11334802823C081D181C20FD11D68838F5F9581AC
S1133490892383831696ED91FC911797309711F049
S11334A0CD011995FF91EF91DF91CF91BF91AF912C
S11334B09F918F917F916F915F914F913F912F9148
S11334C00F900BBE0F900FBE0F901F9018951F9278
S11334D00F920FB60F9211240BB60F922F938F9366
S11334E09F93AF93BF93EF93FF93E091E20DF0911D
S11334F0E30D3097B9F00280F381E02D938182814E
S11335009817B1F092818581282F26952923A081CF
S1133510B181A20FB11D2C919F5F892382832093D7
S113352036010BC0E1E3F1E080818F7D808305C02B
S1133530E1E3F1E080818F7D8083FF91EF91BF9182
S1133540AF919F918F912F910F900BBE0F900FBE53
S11335500F901F9018955058BB27AA270ED089C1E9
S11335607AD130F07FD120F031F49F3F11F41EF472
S11335706FC10EF4E095E7FB3CC1E92F8BD180F3DA
S1133580BA17620773078407950718F071F49EF55C
S1133590BAC10EF4E0950B2EBA2FA02D0B01B90180
S11335A090010C01CA01A0011124FF27591B99F0B5
S11335B0593F50F4503E68F11A16F040A22F232FC1
S11335C0342F4427585FF3CF469537952795A79511
S11335D0F0405395C9F77EF41F16BA0B620B730BB8
S11335E0840BBAF09150A1F0FF0FBB1F661F771F29
S11335F0881FC2F70EC0BA0F621F731F841F48F4DE
S1133600879577956795B795F7959E3F08F0B3CF63
S11336109395880F08F09927EE0F9795879508954D
S11336200CD027C11FD140F016D130F021F45F3FF8
S113363019F0DFC0511168C10BC12CD198F3992343
S1133640C9F35523B1F3951B550BBB27AA27621762
S11336507307840738F09F5F5F4F220F331F441FA7
S1133660AA1FA9F333D00E2E3AF0E0E830D09150DF
S11336705040E695001CCAF729D0FE2F27D0660FCC
S1133680771F881FBB1F261737074807AB07B0E80B
S113369009F0BB0B802DBF01FF2793585F4F2AF021
S11336A09E3F510568F0A5C02FC15F3FECF3983EE3
S11336B0DCF3869577956795B795F7959F5FC9F77E
S11336C0880F911D9695879597F90895E1E0660F07
S11336D0771F881FBB1F621773078407BA0720F080
S11336E0621B730B840BBA0BEE1F88F7E0950895E9
S11336F004D06894B11108C10895D4D088F09F57BC
S113370090F0B92F9927B751A0F0D1F0660F771F29
S1133710881F991F1AF0BA95C9F712C0B13081F009
S1133720F2D0B1E00895EFC0672F782F8827B85FF3
S113373039F0B93FCCF3869577956795B395D9F76A
S11337403EF490958095709561957F4F8F4F9F4F74
S11337500895E89409C097FB3EF490958095709580
S113376061957F4F8F4F9F4F9923A9F0F92F96E9C9
S1133770BB279395F695879577956795B795F1113E
S1133780F8CFFAF4BB0F11F460FF1BC06F5F7F4FDB
S11337908F4F9F4F16C0882311F096E911C07723ED
S11337A021F09EE8872F762F05C0662371F096E8F6
S11337B0862F70E060E02AF09A95660F771F881FC5
S11337C0DAF7880F9695879597F9089585D080F054
S11337D09F3740F491110EF097C060E070E080E8EC
S11337E09FEB089526F41B16611D711D811D07C0F2
S11337F021C097F99F6780E870E060E0089588230E
S113380071F4772321F09850872B762F07C0662315
S113381011F499270DC09051862B70E060E02AF0D6
S11338209A95660F771F881FDAF7880F9695879504
S113383097F908959F3F31F0915020F4879577953B
S11338406795B795880F911D9695879597F9089573
S11338509FEF80EC089500240A94161617061806A4
S11338600906089500240A94121613061406050680
S11338700895092E0394000C11F4882352F0BB0F11
S113388040F4BF2B11F460FF04C06F5F7F4F8F4F74
S11338909F4F089557FD9058440F551F59F05F3FAF
S11338A071F04795880F97FB991F61F09F3F79F05E
S11338B087950895121613061406551FF2CF4695E0
S11338C0F1DF08C0161617061806991FF1CF869562
S11338D07105610508940895E5DFA0F0BEE7B91706
S11338E088F4BB279F3860F41616B11D672F782F14
S11338F08827985FF7CF869577956795B11D93953F
S11339009639C8F30895E894BB2766277727CB0137
S113391097F908950BD0ADCF9EDF28F0A3DF18F000
S1133920952309F066CF94CF1124EECFB3DFA0F333
S1133930959FD1F3950F50E0551F629FF001729F40
S1133940BB27F00DB11D639FAA27F00DB11DAA1F5F
S1133950649F6627B00DA11D661F829F2227B00DAC
S1133960A11D621F739FB00DA11D621F839FA00D37
S1133970611D221F749F3327A00D611D231F849F87
S1133980600D211D822F762F6A2F11249F575040DE
S11339908AF0E1F088234AF0EE0FFF1FBB1F661F79
S11339A0771F881F91505040A9F79E3F510570F032
S11339B020CFAACF5F3FECF3983EDCF38695779552
S11339C06795B795F795E7959F5FC1F7FE2B880F2D
S11339D0911D9695879597F90895FA01EE0FFF1FAB
S11339E030962105310599F16115710561F480382E
S11339F0BFE39B0749F168949038810561F08038F2
S1133A00BFEF9B0741F0992342F5FF3FE1053105E4
S1133A10210511F1E8940894E795D901AA2329F422
S1133A20AB2FBE2FF85FD0F310C0FF5F70F4A695E4
S1133A30E0F7F73950F019F0FF3A38F49F779F9385
S1133A400CD00F9007FC905808953EF001CF60E031
S1133A5070E080E89FE308954FE79F775F934F936B
S1133A603F932F939ED02F913F914F915F9152DFBF
S1133A7005C019F40EF0BDCE46CFEACE13DFC8F36D
S1133A809638C0F707F80F92E8942BE33AEA48EB2C
S1133A905FE74EDF0F920F920F924DB75EB70F9212
S1133AA0C0D0E8EFF0E016D04F915F91EF91FF9115
S1133AB0E595EE1FFF1F49F0FE57E0684427EE0F1F
S1133AC0441FFA95E1F74195550B32D00F9007FE4C
S1133AD026C00895DF93CF931F930F93FF92EF9225
S1133AE0DF927B018C01689405C0DA2EEF011EDFA2
S1133AF0FE01E894A5912591359145915591AEF338
S1133B00EF013BDDFE019701A801DA9479F7DF901C
S1133B10EF90FF900F911F91CF91DF9108959B013A
S1133B20AC0160E070E080E89FE37ACD62CE82CEA3
S1133B30B9DEE8F39923D9F3940F511DBBF39150E7
S1133B40504094F059F0882332F0660F771F881F95
S1133B5091505040C1F79E3F510544F7880F911D85
S1133B609695879597F908955F3FACF0983E9CF041
S1133B70BB27869577956795B79508F4B1609395BB
S1133B80C1F7BB0F58F711F460FFE8CF6F5F7F4FA9
S1133B908F4F9F4FE3CFB8CE0EF04CCE59CE6894E2
S1133BA028CE80DEC8F39923D1F3C6F3DF93CF93F5
S1133BB01F930F93FF92C92FDD2788232AF02197A3
S1133BC0660F771F881FDAF720E030E040E85FEBEC
S1133BD09FE3883920F0803E30F021968F77BCDC5B
S1133BE0E0E2F1E003C0B8DCEDE4F1E073DF8B0167
S1133BF0BE01EC01FB2E6F5771097595771F880B79
S1133C00990BA9DD28E132E741E35FE38FDEAF2DB5
S1133C109801AE01FF900F911F91CF91DF91ADDC20
S1133C2028CEFA01DC01AA0FBB1F9B01AC01BF57D0
S1133C3028F422273327442750781FC0B75188F42B
S1133C40AB2F0024469537952795011CA395D2F3F5
S1133C50002069F0220F331F441FB395DAF30DD00F
S1133C607ACC61307105A0E88A07B94630F49B012B
S1133C70AC016627772788279078309621F0208337
S1133C80318342835383089597FB072E16F40094DF
S1133C9006D077FD08D013D007FC05D03EF49095EC
S1133CA081959F4F0895709561957F4F0895EE0F0C
S1133CB0FF1F881F8BBF0790F691E02D1994AA1B54
S1133CC0BB1B51E107C0AA1FBB1FA617B70710F003
S1133CD0A61BB70B881F991F5A95A9F78095909535
S1133CE0BC01CD0108950F931F93CF93DF93869F5B
S1133CF08001879F100D969F100D1124C8010DD0CF
S1133D00EC01009721F0A80160E070E034D1CE010D
S1133D10DF91CF911F910F9108950F931F93CF932C
S1133D20DF938230910510F482E090E0E091B00ED0
S1133D30F091B10E20E030E0A0E0B0E0309719F14E
S1133D40408151810281138148175907C8F08417B3
S1133D50950769F4109731F012960C931297139605
S1133D601C9327C00093B00E1093B10E22C02115EE
S1133D70310519F04217530718F49A01BD01EF01F8
S1133D80DF01F801DBCF21153105F9F0281B390BD0
S1133D902430310580F48A819B816115710521F0FD
S1133DA0FB019383828304C09093B10E8093B00E81
S1133DB0FE01329644C0FE01E20FF31F81939193FA
S1133DC022503109398328833AC02091AE0E3091B4
S1133DD0AF0E232B41F42091020230910302309361
S1133DE0AF0E2093AE0E20910002309101022115F6
S1133DF0310541F42DB73EB74091040250910502BC
S1133E00241B350BE091AE0EF091AF0EE217F307D1
S1133E10A0F42E1B3F0B2817390778F0AC014E5F36
S1133E205F4F2417350748F04E0F5F1F5093AF0EB6
S1133E304093AE0E8193919302C0E0E0F0E0CF0195
S1133E40DF91CF911F910F910895CF93DF93009746
S1133E5009F481C0FC01329713821282A091B00E42
S1133E60B091B10E109781F420813181820F931F9C
S1133E702091AE0E3091AF0E2817390751F5F0930B
S1133E80AF0EE093AE0E67C0ED0120E030E0CE1738
S1133E90DF0740F44A815B819E0141155105F1F031
S1133EA0EA01F5CFD383C28340815181840F951FEA
S1133EB0C817D90759F488819981840F951F0296F0
S1133EC0918380838A819B81938382832115310529
S1133ED029F4F093B10EE093B00E3DC0E901FB83E9
S1133EE0EA8349915991C40FD51FEC17FD0761F47A
S1133EF080819181840F951F0296E90199838883BB
S1133F00828193819B838A83E0E0F0E012968D9115
S1133F109C911397009719F0FD01DC01F7CF8D9167
S1133F209C9111979D012E5F3F4F820F931F20910B
S1133F30AE0E3091AF0E2817390769F4309729F483
S1133F401092B10E1092B00E02C013821282B0937E
S1133F50AF0EA093AE0EDF91CF91089581E090E073
S1133F60F89400C3FB01DC0102C001900D924150A2
S1133F705040D8F70895DC0101C06D934150504082
S1133F80E0F70895CF93DF93CDB7DEB7AE014A5F74
S1133F905F4FFA0161917191AF018091B40E9091DC
S1133FA0B50E33D0DF91CF9108950F931F93CF9324
S1133FB0DF93E091B40EF091B50E238121FF1BC075
S1133FC08C01D0E0C0E0F80181918F016091B40EC2
S1133FD07091B50EDB011896ED91FC911997882329
S1133FE031F01995892B79F3DFEFCFEFECCF8AE02D
S1133FF01995892B19F08FEF9FEF02C08D2F9C2FFD
S1134000DF91CF911F910F9108952F923F924F927C
S11340105F926F927F928F929F92AF92BF92CF9254
S1134020DF92EF92FF920F931F93CF93DF93CDB75D
S1134030DEB72B970FB6F894DEBF0FBECDBF6C0171
S11340407B018A01FC0117821682838181FFBFC133
S1134050CE0101963C01F6019381F70193FD859110
S113406093FF81917F01882309F4ADC1853239F42E
S113407093FD859193FF81917F01853221F4B601EF
S113408090E0D6D1E8CF912C212C312CFFE1F3150F
S1134090D8F08B3279F038F4803279F08332A1F49D
S11340A0232D20611DC08D3261F0803369F4232DEE
S11340B0216016C0832D8260382EE32DE4603E2EED
S11340C02AC0F32DF8601DC037FC2DC020ED280F49
S11340D02A3040F08E32B9F436FC75C1232D2064A9
S11340E0322E19C036FE06C08AE0989E200D112497
S11340F0922E11C0EAE02E9E200D1124222EF32DC3
S1134100F0623F2E08C08C3621F4832D8068382E4F
S113411002C0883641F4F70193FD859193FF8191A4
S11341207F018111B3CF982F9F7D9554933028F44C
S11341300C5F1F4F9FE399830DC0833631F08337A3
S113414071F0833509F055C020C0F801808189835E
S11341500E5F1F4F88248394912C530112C02801B1
S1134160F2E04F0E511CF801A080B18036FE03C06E
S1134170692D70E002C06FEF7FEFC5014ED14C0195
S11341808201F32DFF773F2E15C0280122E0420E55
S1134190511CF801A080B18036FE03C0692D70E087
S11341A002C06FEF7FEFC5012DD14C01F32DF068F4
S11341B03F2E820133FC19C0822D90E088169906A7
S11341C0A0F4B60180E290E033D12A94F5CFF50152
S11341D037FC859137FE81915F01B60190E028D1CB
S11341E021102A9421E0821A91088114910479F70C
S11341F0E1C0843611F0893639F5F80137FE07C07D
S113420060817181828193810C5F1F4F08C060813E
S11342107181072E000C880B990B0E5F1F4FF32D35
S1134220FF763F2E97FF09C0909580957095619514
S11342307F4F8F4F9F4FF0683F2E2AE030E0A3015D
S113424033D1882E861844C0853731F4232D2F7E30
S1134250B22E2AE030E025C0932D997FB92E8F36F7
S1134260C1F018F4883579F0AEC0803719F088377A
S113427021F0A9C0E92FE061BE2EB4FE0DC0FB2DD4
S1134280F460BF2E09C034FE0AC0292F2660B22E66
S113429006C028E030E005C020E130E002C020E1A3
S11342A032E0F801B7FE07C0608171818281938199
S11342B00C5F1F4F06C06081718180E090E00E5F4B
S11342C01F4FA301F1D0882E8618FB2DFF773F2EB8
S11342D036FE0DC0232D2E7FA22E891458F434FEF1
S11342E00BC032FC09C0832D8E7EA82E05C0B82CCD
S11342F0A32C03C0B82C01C0B92CA4FE0FC0FE012E
S1134300E80DF11D8081803321F49A2D997EA92E28
S113431009C0A2FE06C0B394B39404C08A2D867863
S113432009F0B394A3FC10C0A0FE06C0B21480F43C
S1134330280C922C9B180DC0B21458F4B60180E2DC
S113434090E076D0B394F8CFB21418F42B1802C0CE
S1134350982C212CA4FE0FC0B60180E390E068D015
S1134360A2FE16C0A1FC03C088E790E002C088E565
S113437090E0B6010CC08A2D867851F0A1FE02C0EF
S11343808BE201C080E2A7FC8DE2B60190E050D040
S1134390891430F4B60180E390E04AD09A94F8CFBF
S11343A08A94F301E80DF11D8081B60190E040D0BC
S11343B08110F6CF222009F44ECEB60180E290E0BF
S11343C037D02A94F7CFF6018681978102C08FEF08
S11343D09FEF2B960FB6F894DEBF0FBECDBFDF91D3
S11343E0CF911F910F91FF90EF90DF90CF90BF90EE
S11343F0AF909F908F907F906F905F904F903F9081
S11344002F900895FC010590615070400110D8F779
S1134410809590958E0F9F1F0895FC016150704008
S113442001900110D8F7809590958E0F9F1F0895E5
S11344300F931F93CF93DF93FB01238121FD03C0CF
S11344408FEF9FEF2CC022FF16C046815781248135
S113445035814217530744F4A081B1819D012F5F38
S11344603F4F318320838C93268137812F5F3F4FC9
S11344703783268314C08B01EC01FB010084F18592
S1134480E02D1995892BE1F6D80116968D919C9112
S11344901797019617969C938E931697CE01DF91EA
S11344A0CF911F910F910895FA01AA27283051F155
S11344B0203181F1E8946F936E7F6E5F7F4F8F4F51
S11344C09F4FAF4FB1E03ED0B4E03CD0670F781FB0
S11344D0891F9A1FA11D680F791F8A1F911DA11D95
S11344E06A0F711D811D911DA11D20D009F46894CE
S11344F03F912AE0269F11243019305D3193DEF676
S1134500CF010895462F4770405D4193B3E00FD02B
S1134510C9F7F6CF462F4F70405D4A3318F0495D16
S113452031FD4052419302D0A9F7EACFB4E0A695F9
S11345309795879577956795BA95C9F7009761051B
S1134540710508959B01AC010A2E06945795479571
S113455037952795BA95C9F7620F731F841F951F66
S10B4560A01D0895F894FFCF9B
S11345680000B80E2000090000000300000000FB52
S113457814E6140000C600CE00D600360153616D5F
S1134588706C65207461736B20617474656D7074EC
S1134598696E6720746F2074616B65207468652088
S11345A873656D6170686F72650D0053616D706C31
S11345B865207461736B20737461727465640D0093
S11345C85265616420617474656D7074696E6720E6
S11345D8746F2074616B65207468652073656D6100
S11345E870686F72650D0052656164207461736B45
S11345F820737461727465640D0025640D0A005398
S1134608616D706C65205461736B00526561642040
S11346185461736B0050726F6772616D20537461DB
S1134628727465642E0D0049444C4500546D722023
S113463853766300FC60DAF266B6BEE0FEE6EE3E50
S10F46481A7A9E8E000102030001020099
S9030000FC
