S00B00005254502E7372656323
S1130000D5C00000F3C00000F1C00000EFC0000044
S1130010EDC00000EBC00000E9C00000E7C0000034
S1130020E5C00000E3C00000E1C00000DFC0000044
S1130030C4C40000DBC00000D9C00000D7C0000069
S1130040D5C00000D3C00000D1C00000CFC0000064
S1130050CDC000000C946D13C9C00000C7C00000DF
S11300600C94DD150C947E170C94D017BFC00000BF
S1130070BDC00000BBC00000B9C00000B7C0000094
S1130080B5C00000B3C00000B1C00000AFC00000A4
S11300900C9414180C946618A9C00000A7C00000A2
S11300A0A5C00000A3C00000A1C000009FC00000C4
S11300B09DC000009BC0000099C0000097C00000D4
S11300C095C0000093C0000091C000000C94AA18D1
S11300D00C94FC188BC000000C9440190C949219D9
S11300E085C000007A117A117A11B111B911CE11BB
S11300F07A117A11B111B91107634236B79BD8A7A7
S11301001A39685618AEBAAB558C1D3CB7CC576338
S1130110BD6DEDFD753EF6177231BF000000803FE6
S113012008000000BE922449123EABAAAA2ABECD02
S1130130CCCC4C3E00000080BEABAAAAAA3E000074
S11301400000BF000000803F00000000000841786C
S1130150D3BB4387D1133D190E3CC3BD4282AD2BA3
S11301603E68EC8276BED98FE1A93E4C80EFFFBE9B
S113017001C4FF7F3F00000000000E94EA08809154
S11301807F0C823008F055D30E94F711F6CFCF933D
S1130190DF931F92CDB7DEB7CE0101960E94FD0E0C
S11301A049810E94F0100E944311F6CF11241FBE12
S11301B0CFEFD1E2DEBFCDBF00E00CBF12E0A0E084
S11301C0B2E0E6ECFDE300E00BBF02C007900D9245
S11301D0AA35B107D9F72DE0AAE5B2E001C01D9216
S11301E0AE35B207E1F7F8D00C94E11E09CF81B126
S11301F08FEF81B992B182B90895613069F442B147
S113020021E030E0B90102C0660F771F8A95E2F75A
S1130210CB01842B82B9089542B121E030E0B901C9
S113022002C0660F771F8A95E2F7CB01809584237D
S113023082B9089517B88FE388B91AB88CE08BB9DE
S113024008958630B0F496B121E030E0A901082E7B
S113025002C0440F551F0A94E2F7292F30E02423EB
S11302603523A90102C0559547958A95E2F7CA013D
S1130270089569B1482F50E04450510981E090E05D
S11302809C01042E02C0220F331F0A94E2F7862F2A
S113029090E08223932302C0959587954A95E2F7CF
S11302A00895CF93DF93CDB7DEB72C970FB6F894AC
S11302B0DEBF0FBECDBF0E94320A69837A838B836F
S11302C09C834DE150E060E070E0CE0101960E9415
S11302D0480C10E00FC0812FB4DFE5E0F0E0EC0F34
S11302E0FD1FE10FF11D17FDFA958083682F812F03
S11302F084DF1F5F18307CF387E021E010E014C036
S1130300E7E0F0E0E81BF10987FDF39545E050E0F4
S11303104C0F5D1FE40FF51F308191E0931B299F63
S1130320100D1124220F8150882354F7612F70E09F
S113033080E090E00E941B1240E00E947E12103880
S113034029F464E680E00E94DD13BBCF113029F468
S11303506CE980E00E94DD13B4CF60E080E00E948D
S1130360DD13AFCFEF92FF920F938091520D9091D6
S1130370530D892B79F481E0FCD49093530D809331
S1130380520D009739F000E020E030E0A90160E070
S113039070E052D4E12CF12C01E020E030E040EC9C
S11303A050E06DE172E081E591E0D7D70F91FF90C5
S11303B0EF9008951CDF3EDF1AB88CE08BB980E023
S11303C00E942F14CFDF80E090E00E9430130E943F
S11303D025130C94F5130895EDDF83E292E00E9457
S11303E0B11E0E94F609FFCFE6E6F2E0AAE6B2E00B
S11303F0B183A08313821282EAE2FCE0F0936502E7
S1130400E0936402138212821182108280EC99E0DC
S113041013969C938E931297ED93FC9390936102A1
S113042080936002909363028093620280E090E87C
S113043090935B0280935A020895CF93DF93EC016B
S1130440A6E6B2E001C0DF01ED91FC911197EC1733
S1130450FD07C8F312968D919C9113979D01280F67
S1130460391FC217D30749F42A813B81820F931F96
S113047013969C938E931297ED018A819B819E0122
S1130480280F391FE217F307C1F420916402309159
S11304906502E217F30771F022813381820F931F03
S11304A09B838A83ED91FC9111978081918199833B
S11304B0888305C03983288302C0F983E883CA1777
S11304C0DB0711F0CD93DC93DF91CF910895EF9288
S11304D0FF920F931F93CF93DF938C01BDD780912D
S11304E0640290916502892B09F47EDF80915A029F
S11304F090915B0280239123892B09F076C001152A
S1130500110549F0C80104960817190718F000E00E
S113051010E001C08C010115110509F469C0809136
S11305206202909163028017910708F464C0C0913D
S11305306602D0916702E6E6F2E002C0FE01EC0139
S11305408A819B818017910720F488819981009783
S1130550A9F78091640290916502C817D90709F43C
S11305604DC0E080F18084E0E80EF11C888199811F
S1130570918380832A813B81201B310B29303105F3
S113058048F0CE01800F911FFC01338322831B832B
S11305900A8353DF2A813B81809162029091630236
S11305A0821B930B909363028093620240916002DA
S11305B0509161028417950720F49093610280930F
S11305C0600280915A0290915B02282B392B3B8365
S11305D02A831982188280915E0290915F020196AB
S11305E090935F0280935E020BC0E12CF12C08C053
S11305F0E12CF12C05C0E12CF12C02C0E12CF12CF2
S11306000E946C0BE114F10411F40E940312C7015F
S1130610DF91CF911F910F91FF90EF9008950F9369
S11306201F93CF93DF93009789F1EC0124974A81BC
S11306305B8120915A0230915B02BA0162237323D9
S1130640672B21F168817981672B01F5209530951D
S1130650242335233B832A83FFD68A819B812091DF
S1130660620230916302820F931F9093630280931E
S11306706202CE01E2DE80915C0290915D020196FD
S113068090935D0280935C020E946C0BDF91CF918A
S11306901F910F910895FC010396928381834FEF7C
S11306A05FEFBA014383548365837683908787839E
S11306B09287818710820895FC011386128608951B
S11306C00F931F93CF93DF93EB01088119812A8144
S11306D03B810F3F4FEF14072407340721F4FC013B
S11306E0A185B28511C0DC01139601C0DF01149607
S11306F0ED91FC91159740815181628173810417BA
S113070015072607370790F71496ED91FC91159776
S1130710FD83EC83D783C683BF83AE831596DC93B6
S1130720CE9314979B878A87FC0120812F5F2083B7
S1130730DF91CF911F910F910895CF93DF93FC0127
S1130740A285B385C481D581868197819F838E8359
S1130750C681D781848195819D838C8311968D91E7
S11307609C911297E817F90731F4868197811296C4
S11307709C938E931197138612868C9181508C933F
S11307808C91DF91CF910895A89590EC88E10FB6F4
S1130790F894A895809360000FBE9093600008952C
S11307A0FC016083319770833197108231971082F6
S11307B0319720E820833197108231971082319746
S11307C01082779740833197508386970895DCDFB2
S11307D0A091ED0CB091EE0CCD91CDBFDD91DEBFBB
S11307E0FF91EF91DF91CF91BF91AF919F918F9145
S11307F07F916F915F914F913F912F911F910F9135
S1130800FF90EF90DF90CF90BF90AF909F908F902C
S11308107F906F905F904F903F902F901F900F901C
S11308200CBE0F900BBE0F900FBE0F90089581E089
S113083008950F920FB6F8940F920BB60F920CB660
S11308400F921F9211242F923F924F925F926F92B8
S11308507F928F929F92AF92BF92CF92DF92EF924C
S1130860FF920F931F932F933F934F935F936F9335
S11308707F938F939F93AF93BF93CF93DF93EF9324
S1130880FF93A091ED0CB091EE0C0DB60D920EB647
S11308900D920E94AD0CA091ED0CB091EE0CCD9197
S11308A0CDBFDD91DEBFFF91EF91DF91CF91BF917D
S11308B0AF919F918F917F916F915F914F913F91F4
S11308C02F911F910F91FF90EF90DF90CF90BF90E9
S11308D0AF909F908F907F906F905F904F903F90DC
S11308E02F901F900F900CBE0F900BBE0F900FBE59
S11308F00F9008950F920FB6F8940F920BB60F92C3
S11309000CB60F921F9211242F923F924F925F9236
S11309106F927F928F929F92AF92BF92CF92DF920B
S1130920EF92FF920F931F932F933F934F935F93F5
S11309306F937F938F939F93AF93BF93CF93DF93E3
S1130940EF93FF93A091ED0CB091EE0C0DB60D92C8
S11309500EB60D9213BE94D58111FFD7A091ED0C64
S1130960B091EE0CCD91CDBFDD91DEBFFF91EF9143
S1130970DF91CF91BF91AF919F918F917F916F91B3
S11309805F914F913F912F911F910F91FF90EF90A5
S1130990DF90CF90BF90AF909F908F907F906F909B
S11309A05F904F903F902F901F900F900CBE0F9030
S11309B00BBE0F900FBE0F9008959CDF18950FB6D5
S11309C0F8940F92FC01868D811102C081E001C070
S11309D080E00F900FBE08950FB6F8940F92FC01BB
S11309E0268D878D281302C081E001C080E00F901E
S11309F00FBE08950F931F93CF93DF93EC01042F41
S1130A001E8D48A141110CC088819981892B09F060
S1130A1042C08C819D810E94A20E1D821C8242C014
S1130A20011117C050E08A819B810E94A11E28A158
S1130A308A819B81820F911D9B838A832C813D81B6
S1130A408217930750F1888199819B838A8380E080
S1130A5029C050E08E819F810E94A11E88A190E050
S1130A609195819591092E813F81280F391F3F83EC
S1130A702E83488159812417350730F42C813D8118
S1130A80820F931F9F838E83023049F4112349F010
S1130A90115080E007C080E005C080E003C080E022
S1130AA001C080E01F5F1E8FDF91CF911F910F91D6
S1130AB00895FC0140A14423A9F050E02681378128
S1130AC0240F351F3783268384819581281739079E
S1130AD020F08081918197838683CB016681778121
S1130AE00C94A11E08951F93CF93DF93EC010FB6CE
S1130AF0F8940F921AA10AC08B89882349F0CE0179
S1130B004396E8D781110E94900E11501116A4F358
S1130B108FEF8AA30F900FBE0FB6F8940F9219A10E
S1130B200AC08885882349F0CE010896D3D781115D
S1130B300E94900E11501116A4F38FEF89A30F9009
S1130B400FBEDF91CF911F910895CF93DF93EC01F6
S1130B500FB6F8940F92E881F9818F8D28A190E067
S1130B6030E0829FA001839F500D929F500D11246D
S1130B704E0F5F1F5D834C831E8EFB83EA830197B8
S1130B80289FA001299F500D389F500D1124CF019B
S1130B90840F951F9F838E838FEF89A38AA361118E
S1130BA00AC08885882369F0CE01089693D78823E4
S1130BB041F03FDE06C0CE0108966DDDCE014396BE
S1130BC06ADD0F900FBE81E0DF91CF9108950F93FE
S1130BD01F93F801611103C01183008302C0518384
S1130BE04083878F60A361E0CF01AFDF1F910F9136
S1130BF00895DF92EF92FF920F931F93CF93DF93A9
S1130C00F82EE62ED42E869FC001112483965FDC35
S1130C10EC01009741F08C012D2DAC014D5D5F4F2F
S1130C206E2D8F2DD4DFCE01DF91CF911F910F91C7
S1130C30FF90EF90DF900895CF92DF92EF92FF92B2
S1130C400F931F93CF93DF93CDB7DEB729970FB6DA
S1130C50F894DEBF0FBECDBF7C016B012E833F83B2
S1130C604887598710E00FB6F8940F92F701968DD4
S1130C70878D981710F00230A9F4402FB601C701F0
S1130C80B9DEF7019389992339F0C701439622D736
S1130C90882321F0CEDD02C08111CBDD0F900FBE81
S1130CA081E046C08E819F81A885B985892B8A2BD6
S1130CB08B2B21F40F900FBE80E03AC0111104C0B9
S1130CC0CE010196B6D711E00F900FBEC5D30FB673
S1130CD0F8940F92F70181A18F3F09F411A2F70153
S1130CE082A18F3F09F412A20F900FBEBE016A5F6A
S1130CF07F4FCE010196AED7811116C0C7016CDEBD
S1130D00882371F04E815F8168857985C7010896D3
S1130D1088D6C701E8DEE0D48111A5CF8ADDA3CF50
S1130D20C701E1DED9D49FCFC701DDDED5D480E091
S1130D3029960FB6F894DEBF0FBECDBFDF91CF91D9
S1130D401F910F91FF90EF90DF90CF9008950F9334
S1130D50009769F0FC0115821482118210821682B8
S1130D6000E020E030E0A90160E070E065DF0F9171
S1130D700895CF93DF93482F60E081E03ADFEC01E0
S1130D80E6DFCE01DF91CF910895EF92FF920F93AA
S1130D901F93CF93DF938A01FC01568D378D531730
S1130DA010F02230F1F4422F7801EC011AA18E8D5B
S1130DB0CE0120DE1F3F79F48B898823A1F0CE0178
S1130DC0439688D6882389F0E114F10481F081E008
S1130DD0F70180830DC0FF24F394F10EFAA281E0A1
S1130DE007C080E005C081E003C081E001C081E06C
S1130DF0DF91CF911F910F91FF90EF900895CF92C3
S1130E00DF92EF92FF920F931F93CF93DF93CDB7AF
S1130E10DEB729970FB6F894DEBF0FBECDBF8C01A5
S1130E206B012E833F8348875987E12C0FB6F894D2
S1130E300F92F801F68CFF2091F0B601C80139DE5B
S1130E40FA94F801F68E8085882329F0C801089663
S1130E5041D68111EEDC0F900FBE81E04CC08E8133
S1130E609F81A885B985892B8A2B8B2B21F40F9020
S1130E700FBE80E040C0E11005C0CE010196D9D676
S1130E80EE24E3940F900FBEE7D20FB6F8940F92BE
S1130E90F80181A18F3F09F411A2F80182A18F3FCB
S1130EA009F412A20F900FBEBE016A5F7F4FCE01FC
S1130EB00196D0D6811116C0C80181DD882371F056
S1130EC04E815F8168857985C8014396AAD5C8019A
S1130ED00ADE02D48111AACFACDCA8CFC80103DE9C
S1130EE0FBD3A4CFC801FFDDF7D3C80168DD882395
S1130EF009F49CCF80E029960FB6F894DEBF0FBEAC
S1130F00CDBFDF91CF911F910F91FF90EF90DF90B4
S1130F10CF900895CF93DF93EC010FB6F8940F921E
S1130F2089A18F3F09F419A28AA18F3F09F41AA25B
S1130F300F900FBE8E8D811103C0CE01439688D5CC
S1130F40CE01D1DDDF91CF910895E091670CF0914E
S1130F50680C808181110CC08FEF9FEFDC018093BE
S1130F60310C9093320CA093330CB093340C08954D
S1130F70E091670CF091680C0780F085E02D80818A
S1130F809181A281B3818093310C9093320CA09310
S1130F90330CB093340C0895CF93DF93EC018B8D15
S1130FA09C8D3DDBCE013BDBDF91CF9108954F92C9
S1130FB05F926F927F928F929F92AF92BF92CF92E5
S1130FC0DF92EF92FF920F93CF93DF932C015B019B
S1130FD04A013901E60165EA70E08B8D9C8D0E941F
S1130FE0AA1E8B8D9C8D21E0821A9108880E991E71
S1130FF0A114B10489F415C0822F90E0F501E80F23
S1131000F91F3081DE01A80FB91F5D963C938081E2
S1131010882329F02F5F01C020E0203168F31CA64B
S113102001C01D8E0A3008F009E00A8F0DA71EA624
S1131030CE01029641DBCE010E963EDBDB87CA87EA
S11310408AE090E0A0E0B0E0801B9109A109B10919
S11310508E879F87A88BB98BDF8BCE8B84E0FE01B4
S1131060BF96DF011D928A95E9F71BAAA301B2017D
S1131070C40196DB99838883E114F10419F0F70124
S1131080D183C083DF91CF910F91FF90EF90DF90D8
S1131090CF90BF90AF909F908F907F906F905F9014
S11310A04F900895CF93C0E008C02BE0C29FC001C9
S11310B011248158934FEFDACF5FCA30B0F384E73D
S11310C09CE0E9DA89E69CE0E6DA8AE59CE0E3DA8A
S11310D08FE49CE0E0DA83E49CE0DDDA84E79CE0E2
S11310E09093680C8093670C89E69CE09093660C5F
S11310F08093650CCF910895CF93DF93EC010FB6E5
S1131100F8940F928091420C8F5F8093420C8091EF
S1131110ED0C9091EE0C892B51F4D093EE0CC0930E
S1131120ED0C8091420C813091F4BCDF10C08091B1
S11311303C0C81110CC0E091ED0CF091EE0C928D01
S11311408A8D891720F0D093EE0CC093ED0C80911A
S1131150350C8F5F8093350CEA8D80913D0C8E1792
S113116010F4E0933D0C8BE08E9FF0011124E158C4
S1131170F34F0180F281E02DFF83EE8326813781D6
S113118039872887A681B7819E012E5F3F4F159628
S11311903C932E93149737832683EA8D8E9FF00118
S11311A01124E158F34FFD87EC8780818F5F8083A2
S11311B00F900FBE80913C0C882349F0E091ED0C18
S11311C0F091EE0C928D8A8D981708F432DBDF9142
S11311D0CF910895CF93DF931AC00FB6F8940F926E
S11311E0E091560CF091570CC085D185CE01029642
S11311F0A4DA8091420C81508093420C80914E0C71
S1131200815080934E0C0F900FBECE01C5DE8091AD
S11312104E0C8111E2CFDF91CF9108958F929F926E
S1131220AF92BF92CF92DF92EF92FF92CF93DF9370
S11312306B017C01C42F80903E0C90903F0CA090D9
S1131240400CB090410C8091ED0C9091EE0C029604
S113125074DA8FEFC816D806E806F806B1F5CC2381
S1131260A1F1E3E4FCE0A181B281C091ED0CD09145
S1131270EE0CBF83AE83C091ED0CD091EE0C1696AC
S11312808D919C911797998788871696CD91DC91BB
S113129017978091ED0C9091EE0C02969D838C83B0
S11312A08091ED0C9091EE0C029617969C938E9380
S11312B01697A091ED0CB091EE0C1D96FC93EE9355
S11312C01C9780818F5F80833DC0C80CD91CEA1CA9
S11312D0FB1CE091ED0CF091EE0CC282D382E4820F
S11312E0F582C814D904EA04FB0460F46091ED0C9F
S11312F07091EE0C8091650C9091660C6E5F7F4F3F
S1131300DFD920C06091ED0C7091EE0C8091670CD8
S11313109091680C6E5F7F4FD3D98091310C90917E
S1131320320CA091330CB091340CC816D906EA06DD
S1131330FB0640F4C092310CD092320CE092330C94
S1131340F092340CDF91CF91FF90EF90DF90CF902B
S1131350BF90AF909F908F9008952F923F924F929D
S11313605F926F927F928F929F92AF92BF92CF9231
S1131370DF92EF92FF920F93CF93DF933C011B0117
S11313804A012901CA01A3D86C01892B61F084E3C5
S113139090E09DD8EC01892B19F0DC8ECB8E05C032
S11313A0C6013DD902C0C0E0D0E0209761F0A12C75
S11313B0B12C6E019201A401B101C301F8DDCE018B
S11313C09BDE81E001C08FEFDF91CF910F91FF9001
S11313D0EF90DF90CF90BF90AF909F908F907F90D1
S11313E06F905F904F903F902F900895EF92FF92EF
S11313F00F930F2EFFE2EF2EFCE0FF2EF02D00E006
S113140020E030E040EC50E065E372E08DEB90E0EA
S1131410A4DF813009F47BD58130C1F4F8948FEFD7
S11314209FEFDC018093310C9093320CA093330C2A
S1131430B093340C81E080933C0C10923E0C1092DB
S11314403F0C1092400C1092410CC1D980910602BD
S11314500F91FF90EF90089580912E0C8F5F8093F1
S11314602E0C08950FB6F8940F9260913E0C709173
S11314703F0C8091400C9091410C0F900FBE089549
S1131480CF92DF92EF92FF92CF93DF9380912E0C55
S1131490811105C1C0903E0CD0903F0CE090400CEF
S11314A0F090410C8FEFC81AD80AE80AF80AC092E3
S11314B03E0CD0923F0CE092400CF092410CC114CF
S11314C0D104E104F104B1F48091670C9091680CAB
S11314D02091650C3091660C3093680C2093670C56
S11314E09093660C8093650C8091360C8F5F80938B
S11314F0360C2BDD8091310C9091320CA091330C81
S1131500B091340CC816D906EA06FB0620F480E034
S1131510B2C081E001C080E0E091670CF091680CFA
S1131520908191110CC04FEF5FEFBA014093310CE1
S11315305093320C6093330C7093340C9CC0E09144
S1131540670CF091680C0780F085E02D0084F1852C
S1131550E02D4281538164817581C416D506E60667
S1131560F70648F44093310C5093320C6093330CDB
S11315707093340C80C0A485B585C681D78120853D
S113158031853F832E83C085D185268137813D8374
S11315902C8311964D915C9112979F012E5F3F4FC2
S11315A04217530731F44085518512965C934E934C
S11315B01197158614869C9191509C93A08DB18DA2
S11315C0109709F1C289D389448955895F834E8371
S11315D0C489D589428953895D834C8311966D9161
S11315E07C911297AF01425F5F4F6417750731F426
S11315F04489558912965C934E931197118E108EDF
S11316009C9191509C93A28D90913D0C9A1710F44B
S1131610A0933D0C9BE09A9FD0011124A158B34F95
S113162011960D90BC91A02DB783A68316964D916B
S11316305C911797518740871696CD91DC91179747
S11316403D832C8317963C932E931697A28D9A9FD5
S1131650D0011124A158B34FB587A4879C919F5FF3
S11316609C93228DE091ED0CF091EE0C928D291754
S113167008F04FCF51CFE091ED0CF091EE0CE28DDC
S11316809BE0E99FF0011124E158F34F90819230DF
S113169008F081E09091370C911116C016C080912A
S11316A0380C9091390CA0913A0CB0913B0C0196F6
S11316B0A11DB11D8093380C9093390CA0933A0C62
S11316C0B0933B0C80E001C081E0DF91CF91FF90AB
S11316D0EF90DF90CF900895CF92DF92EF92FF9238
S11316E0CF93DF930FB6F8940F9280912E0C815014
S11316F080932E0C80912E0C8111BEC08091420CDF
S1131700811188C0BCC0E091610CF091620C00842E
S1131710F185E02DA08DB18DC289D3898489958905
S11317209F838E83C489D589828993899D838C8381
S113173011962D913C911297CF010E9628173907D7
S113174031F48489958912969C938E931197118E06
S1131750108E8C9181508C93A485B585C681D781D8
S1131760808591859F838E83C085D185868197816D
S11317709D838C8311968D919C9112979F012E5F6E
S11317803F4F8217930731F48085918512969C937D
S11317908E931197158614868C9181508C93A28D0B
S11317A080913D0C8A1710F4A0933D0C8BE08A9F26
S11317B0D0011124A158B34F11960D90BC91A02DC6
S11317C0B783A68316964D915C91179751874087EE
S11317D01696CD91DC9117973D832C8317963C93F5
S11317E02E931697A28D8A9FD0011124A158B34F2E
S11317F0B587A4878C918F5F8C93928DA091ED0C0B
S1131800B091EE0C5A968C91981730F081E0809349
S1131810370C02C0E0E0F0E080915A0C811173CFE4
S1131820EF2B09F092DBC090380CD090390CE0908B
S11318303A0CF0903B0CC114D104E104F104A1F082
S11318401FDE882319F081E08093370C81E0C81AE9
S1131850D108E108F108A1F71092380C1092390C64
S113186010923A0C10923B0C8091370C882331F083
S11318700E94190481E003C080E001C080E00F9061
S11318800FBEDF91CF91FF90EF90DF90CF9008953E
S11318908F929F92AF92BF92CF92DF92EF92FF927C
S11318A01F93CF93DF93EC016A017B01D5DD809018
S11318B03E0C90903F0CA090400CB090410C88815D
S11318C09981AA81BB81AC01BD014C0D5D1D6E1DCA
S11318D07F1D88169906AA06BB0660F448175907A7
S11318E06A077B0798F484169506A606B70680F067
S11318F010E013C0481759076A077B0758F084168D
S11319009506A606B70640F010E007C010E005C033
S113191011E003C011E001C011E0488359836A83D8
S11319207B83112341F0CB01BA01681979098A0933
S11319309B0940E073DCD0DE811102C00E941904CF
S1131940812FDF91CF911F91FF90EF90DF90CF9087
S1131950BF90AF909F908F90089580912E0C882314
S113196021F081E08093370C08951092370CE091B8
S1131970ED0CF091EE0C20813181E091ED0CF091B1
S1131980EE0C838D948D8217930758F06091ED0CC3
S11319907091EE0C635E7F4F8091ED0C9091EE0C94
S11319A03ED580913D0C01C08150282F30E09BE052
S11319B0929FF001939FF00D1124E158F34F908111
S11319C0992391F39BE0929FA001939F500D1124C2
S11319D0DF010180F281E02D0480F581E02D129673
S11319E0FC93EE9311974E57534FE417F50729F4E0
S11319F044815581FD01528341839BE0929FF00114
S1131A00939FF00D1124E158F34F0180F281E02DF2
S1131A10208531853093EE0C2093ED0C80933D0CA2
S1131A200895CF92DF92EF92FF926A017B01609159
S1131A30ED0C7091EE0C625F7F4F0E94600341E0F9
S1131A40C701B601EBDBFF90EF90DF90CF900895D4
S1131A50CF93DF93FC01CB01BA01A181B281C09184
S1131A60ED0CD091EE0CBB8BAA8BC091ED0CD091F8
S1131A70EE0C16964D915C9117975D8B4C8B1696D8
S1131A80CD91DC9117974091ED0C5091EE0C425F93
S1131A905F4F5D834C834091ED0C5091EE0C425F9F
S1131AA05F4F17965C934E931697A091ED0CB091EF
S1131AB0EE0C5996FC93EE93589730813F5F308338
S1131AC0222319F06FEF7FEFCB01422FA7DBDF91C9
S1131AD0CF910895CF93DF93DC011796ED91FC919C
S1131AE018970084F185E02DA08DB18DC289D3892A
S1131AF0848995899F838E83C489D58982899389B2
S1131B009D838C8311968D919C9112979F01225FE6
S1131B103F4F8217930731F48489958912969C93D9
S1131B208E931197118E108E8C9181508C9380918D
S1131B302E0C811152C0A485B585C681D7818085BC
S1131B4091859F838E83C085D185868197819D836E
S1131B508C8311968D919C9112979F012E5F3F4F1C
S1131B608217930731F48085918512969C938E9306
S1131B701197158614868C9181508C93A28D809137
S1131B803D0C8A1710F4A0933D0C8BE08A9FD00182
S1131B901124A158B34F11960D90BC91A02DB78379
S1131BA0A68316964D915C91179751874087169698
S1131BB0CD91DC9117973D832C8317963C932E93FC
S1131BC01697A28D8A9FD0011124A158B34FB587CF
S1131BD0A4878C918F5F8C931CC04AE55CE0DA018A
S1131BE01196CD91DC911297D38BC28B8E819F81FC
S1131BF0958B848B8E819F81DC0115963C932E936B
S1131C0014973F832E83518F408FDA018C918F5F1D
S1131C108C93928DE091ED0CF091EE0C828D8917EE
S1131C2020F481E08093370C01C080E0DF91CF91F4
S1131C3008952091360CFC01208340913E0C509174
S1131C403F0C6091400C7091410C4183528363833B
S1131C50748308958F929F92AF92BF92CF92DF9236
S1131C60EF92FF920F931F93CF93DF93FB010FB675
S1131C70F8940F92C0903E0CD0903F0CE090400C32
S1131C80F090410CDC0111960D911D912D913C9128
S1131C90149746015701801A910AA20AB30A408197
S1131CA05181628173814F3FBFEF5B076B077B07F5
S1131CB039F1EC01B881A091360CBA1759F0C0166D
S1131CC0D106E206F30630F01082118212821382EA
S1131CD081E017C084169506A606B70658F448197D
S1131CE059096A097B094083518362837383A1DFA5
S1131CF080E007C0108211821282138281E001C049
S1131D0080E00F900FBEDF91CF911F910F91FF9054
S1131D10EF90DF90CF90BF90AF909F908F900895F9
S1131D2081E08093370C089580913C0C882331F036
S1131D3080912E0C811104C082E0089581E0089501
S1131D4080E008950F931F93CF93DF93FC01892BB9
S1131D5009F449C086A5815086A7228D95A5291727
S1131D6009F443C0811143C0EF018F010E5F1F4F7F
S1131D70C8010E949D03EDA5EA8F8AE090E0A0E0EF
S1131D80B0E08E1B9109A109B1098E879F87A88BAA
S1131D90B98B80913D0C8E1710F4E0933D0C8BE0D1
S1131DA08E9FF0011124E158F34F0180F281E02D60
S1131DB0FF83EE832681378139872887A681B781FF
S1131DC015961C930E93149717830683EA8D8E9FA2
S1131DD0F0011124E158F34FFD87EC8780818F5F78
S1131DE0808381E005C080E003C080E001C080E022
S1131DF0DF91CF911F910F910895DC01E091F90CCF
S1131E00F091FA0C808191E0811190E09C93911102
S1131E1008C00780F085E02D608171818281938103
S1131E20089560E070E0CB010895CF92DF92EF92C5
S1131E30FF920F931F93FC01428353836483758342
S1131E40938782870417150726073707C0F00C19F4
S1131E501D092E093F0986859785A089B189081730
S1131E6019072A073B0700F5BF016E5F7F4F80917A
S1131E70F70C9091F80C0E94600380E018C00C15D8
S1131E801D052E053F0528F44C155D056E057F05DF
S1131E9068F4BF016E5F7F4F8091F90C9091FA0C4A
S1131EA00E94600380E003C081E001C081E01F91D3
S1131EB00F91FF90EF90DF90CF9008950FB6F894B4
S1131EC00F928091F50C9091F60C892BE9F486E041
S1131ED09DE00E944B038BEF9CE00E944B0386E045
S1131EE09DE09093FA0C8093F90C8BEF9CE0909317
S1131EF0F80C8093F70C40E067E08AE00E94F90553
S1131F009093F60C8093F50C0F900FBE0895EF920A
S1131F10FF920F93D3DF8091F50C9091F60C892BEF
S1131F2089F00F2EF3EFEF2EFCE0FF2EF02D03E0EF
S1131F3020E030E040EC50E06AE372E087EC90E0AF
S1131F400CDA01C080E00F91FF90EF9008958F921A
S1131F509F92AF92BF92CF92DF92EF92FF920F9334
S1131F601F93CF93DF93CDB7DEB727970FB6F894BF
S1131F70DEBF0FBECDBFE091F50CF091F60C3097AB
S1131F8081F169832A833B834C835D839F838E83A2
S1131F906630F4F4C9DE823069F400E0A7019601EA
S1131FA0BE016F5F7F4F8091F50C9091F60C0E94FB
S1131FB01C0618C000E020E030E0A901BE016F5FFC
S1131FC07F4F8091F50C9091F60C0E941C060AC07C
S1131FD020E0A801BE016F5F7F4FCF010E94C506BC
S1131FE001C080E027960FB6F894DEBF0FBECDBFC8
S1131FF0DF91CF911F910F91FF90EF90DF90CF90E1
S1132000BF90AF909F908F9008958F929F92AF92C0
S1132010BF92CF92DF92EF92FF920F931F93CF93D1
S1132020DF933BC00780F085E02D80809180A28003
S1132030B380C085D1858E010E5F1F4FC8010E94F9
S11320409D03EC89FD89CE0119958E8982FF25C0F7
S11320508E859F85A889B989880D991DAA1DBB1DE8
S113206088169906AA06BB0670F48A839B83AC8300
S1132070BD83DB87CA87B8018091F90C9091FA0C73
S11320800E9460030AC0C12CD12C760100E010E04C
S1132090A501940160E0CE015ADFE091F90CF091C2
S11320A0FA0C80818111BECF8091F70C9091F80CCD
S11320B09093FA0C8093F90CF093F80CE093F70CDE
S11320C0DF91CF911F910F91FF90EF90DF90CF9010
S11320D0BF90AF909F908F900895CF92DF92EF9230
S11320E0FF92CF93DF93EC01BDD96B017C0180910A
S11320F0EF0C9091F00CA091F10CB091F20CC81679
S1132100D906EA06FB0620F480DF81E0888301C05B
S11321101882C092EF0CD092F00CE092F10CF09285
S1132120F20CC701B601DF91CF91FF90EF90DF90E1
S1132130CF9008954F925F926F927F928F929F9269
S1132140AF92BF92CF92DF92EF92FF920F931F93C1
S1132150CF93DF934B015C0129013A01E091F90C23
S1132160F091FA0C0780F085E02DC085D185CE0171
S113217002960E949D038E8982FF1BC04E855F8557
S113218068897989480D591D6A1D7B1D7501640193
S113219093018201CE0149DE882369F0C12CD12C40
S11321A0760100E010E0A501940160E0CE01CFDEED
S11321B002C08E7F8E8BEC89FD89CE011995DF914B
S11321C0CF911F910F91FF90EF90DF90CF90BF9030
S11321D0AF909F908F907F906F905F904F900895F5
S11321E08F929F92AF92BF92CF92DF92EF92FF9223
S11321F01F93CF93DF931F92CDB7DEB76B017C01A2
S1132200142F2AD9CE01019668DF4B015C01898124
S113221081112BC011110CC08C149D04AE04BF0499
S113222038F05ADAA5019401C701B60183DF1EC054
S1132230112341F0E091F70CF091F80C808111E04A
S1132240811110E0B701A601481959096A097B09EF
S1132250212F8091F50C9091F60C0E948A073CDAAC
S1132260811104C00E94190401C036DA0F90DF9175
S1132270CF911F91FF90EF90DF90CF90BF90AF90E0
S11322809F908F900895AF92BF92CF92DF92EF927A
S1132290FF920F931F93CF93DF93CDB7DEB72897A9
S11322A00FB6F894DEBF0FBECDBF82C089818823EC
S11322B00CF47EC0AE80BF80D5011C968D919C919C
S11322C01D97892B21F0C50102960E949D03CE0122
S11322D0089603DF8B019C01E9810E2E000CFF0B95
S11322E0EA30F10508F064C08827EE58FF4F8F4F9D
S11322F00C94461DF50186898160868BCA80DB803B
S1132300EC80FD8046855785608971894C0D5D1D83
S11323106E1D7F1DC50189DD882309F449C0D501DF
S11323205496ED91FC915597C5011995F50186894F
S113233082FF3EC04A815B816C817D818685978561
S1132340A089B1899A01AB01280F391F4A1F5B1F6D
S1132350C12CD12C760100E010E060E0C501F7DD6E
S113236027C0D50156968C9156978E7F56968C939E
S11323701FC0F50186898160868B4A815B816C81EF
S11323807D8146875787608B718B400F511F621F79
S1132390731F68017901C50148DD0AC0F50186890A
S11323A081FD04C0C5010E940F0302C08E7F868B8D
S11323B020E030E0A901BE016F5F7F4F8091F50CF2
S11323C09091F60C0E94FF06811170CF28960FB6EB
S11323D0F894DEBF0FBECDBFDF91CF911F910F9157
S11323E0FF90EF90DF90CF90BF90AF900895089545
S11323F084B1806884B985B1806885B9089583B152
S1132400806883B90895F4DF2FEF80E792E02150CC
S113241080409040E1F700C00000F1DFF5CFE8DF35
S11324202FEF87EA91E6215080409040E1F700C009
S11324300000E5DFF5CFE89409C097FB3EF49095E2
S11324408095709561957F4F8F4F9F4F9923A9F089
S1132450F92F96E9BB279395F69587957795679518
S1132460B795F111F8CFFAF4BB0F11F460FF1BC05C
S11324706F5F7F4F8F4F9F4F16C0882311F096E9EF
S113248011C0772321F09EE8872F762F05C066239D
S113249071F096E8862F70E060E02AF09A95660F56
S11324A0771F881FDAF7880F9695879597F908950F
S11324B081B38F6081BB2898289A21B381E090E092
S11324C00090410D02C0880F991F0A94E2F780958D
S11324D0822381BBE091110DF091120D309709F028
S11324E0199508959FB7F894EDE3FDE010828EE905
S11324F081838AE0828383839FBF0895BF92CF92B2
S1132500DF92EF92FF920F931F93CF93DF936B01B0
S11325107C01B42E1092140D83E0841780F1642F93
S113252070E080E090E087DF9B01AC0160E070E048
S113253080E291E40E94DB1BA70196010E94781BB4
S113254020E030E040E05FE332D70E94D41AFBD7AA
S1132550AB01772364F444275527461B570B21E02E
S1132560483E83E058070CF420E011E00CC021E061
S1132570403187E258070CF420E010E004C040E04A
S113258050E021E010E00FB7F894222311F0AADF05
S113259051C0C1E4DDE00F2EFDE3CF2EFDE0DF2EC0
S11325A0F02D0F2EFAE0EF2EF12CF02DCA01B70119
S11325B00E94331DFC01EE5BFD4F80818A93462F00
S11325C0572FCC15DD0591F743E050E04B19510925
S11325D014161506F4F480913D0D8C3F49F060E02B
S11325E019C0FC01E35CF24F30813C3F21F012C082
S11325F080E090E020E0FC01E35CF24F1082622F67
S11326002F5F822F022E000C990B841795074CF331
S113261001C060E0112331F0E62FF0E0E35CF24FFB
S113262082E08083BB2031F0FA01E35CF24F8081C9
S1132630816080830FBFDF91CF911F910F91FF9035
S1132640EF90DF90CF90BF90089585B5856085BDEC
S1132650089585B5887F85BD81B38F6081BB08955A
S11326608F92AF92CF92EF920F931F93CF93DF93FA
S1132670EC0180B38F6080BB81B38F6081BB209AF3
S113268088E592E19F938F93812CA12CC12CE12C9E
S113269000E010E020E240E063E080E142D190936A
S11326A0430D8093420D89E187BD84B5826084BD6A
S11326B0EEE6F0E0808182608083CBDFD093120D60
S11326C0C093110D0F900F90DF91CF911F910F9137
S11326D0EF90CF90AF908F9008951F920F920FB606
S11326E00F9211240BB60F922F933F934F935F9346
S11326F06F937F938F939F93AF93BF93EF93FF93C6
S11327008091140D882369F12091150D3091160DD7
S1132710253F91E0390738F42F5F3F4F3093160D72
S11327202093150D1EC01092160D1092150DE091F8
S1132730130D2E2F30E090E004972817390714F476
S1132740EF5F01C0E0E0E093130DF0E0E95EF24FCB
S1132750ADE3BDE021E43DE081918D93A217B30781
S1132760D9F78091410D90E0019683709078992378
S113277024F401978C6F9F6F01968093410D9927E4
S1132780FC01E35CF24F608160958091420D909171
S1132790430D9ED1FF91EF91BF91AF919F918F9186
S11327A07F916F915F914F913F912F910F900BBE4D
S11327B00F900FBE0F901F90189565360CF064E6CD
S11327C06C390CF46CE996EF6902B0011124685479
S11327D0744F811105C070932901609328010895F5
S11327E070932B0160932A010895EAE0F1E080815F
S11327F0886180838FE39CE990932701809326016D
S113280060E080E0DADF60E081E0D7DFE0E2F1E081
S11328108081826A8083E1E2F1E080818A61808341
S11328200895CF93DF931F92CDB7DEB7BE016F5FDC
S11328307F4F8091440D9091450D40D38111F6CF87
S1132840898190E00F90DF91CF910895682F809156
S1132850440D9091450D07D380E090E008958F9248
S11328609F92AF92CF92EF920F93812C912C689408
S1132870AA24A7F86894CC24C7F8E12C00E023E04C
S113288040E051EE60E070E052D29093450D8093A9
S1132890440DE8E5FDE087E092E091838083938333
S11328A082830F91EF90CF90AF909F908F90089577
S11328B0E091470DF091480D3097F9F0A081B18176
S11328C01097D9F02381213069F44C9121E030E054
S11328D0028002C0220F331F0A94E2F720952423BA
S11328E02C930BC04C9121E030E0028002C0220FF7
S11328F0331F0A94E2F7242B2C939093480D809372
S1132900470D009769F01092490D2CB52F732CBD1B
S1132910FC0124812CBD85818DBD8CB580648CBD6A
S113292008954F925F926F927F928F929F92AF928F
S1132930BF92CF92DF92EF92FF920F931F93CF93A8
S1132940DF93CDB7DEB7982EB62ED42EF22E80911B
S1132950460D811106C084B1876084B981E08093FB
S1132960460D8CE090E00E947C1D3C01DC01119638
S11329701C930E931296EC9212971396CC92139783
S11329808D2D880F880FF82AEB2DF0E0EE5AFD4FBD
S11329908081982A8F2D892914968C93B3E0BB15D6
S11329A018F481E0F3018583A11006C0D3011996C0
S11329B01C921E92189714C06A2D70E084E090E077
S11329C00E94621D2C0161E070E086E090E00E94AC
S11329D0621D6C014A2DB2018BD1F301D186C086F0
S11329E0811006C0D30117961C921E92169714C02C
S11329F0682D70E084E090E00E94621D5C0161E05B
S1132A0070E086E090E00E94621D6C01482DB501E3
S1132A106FD1F301D782C6828C899D89D3011B961D
S1132A209C938E931A970115110559F0F801229180
S1132A3081E090E002C0880F991FEA94E2F7822BAC
S1132A4080832FB7F8944091470D5091480D7092B0
S1132A50480D6092470DD301ED91FC911197309789
S1132A6001F113968C911397813071F4308181E0D8
S1132A7090E012960C9002C0880F991F0A94E2F716
S1132A808095832380830DC0308181E090E0D30161
S1132A9012960C9002C0880F991F0A94E2F7832BB8
S1132AA080835093480D4093470D2FBFC301DF919E
S1132AB0CF911F910F91FF90EF90DF90CF90BF9037
S1132AC0AF909F908F907F906F905F904F900895FC
S1132AD01F93CF93DF93009709F46AC0162FEC017C
S1132AE08091470D9091480DC817D90711F0CE0178
S1132AF0DFDE8FB72FB7F8948091490D811131C073
S1132B0081E08093490DA091470DB091480DED915E
S1132B10FC9111973097F9F013968C9113978130AB
S1132B2069F4308181E090E012960C9002C0880F25
S1132B30991F0A94E2F7832B80830DC0308181E0D2
S1132B4090E012960C9002C0880F991F0A94E2F745
S1132B508095832380838CB580688CBD1EBD80E006
S1132B6025C0EE81FF813097E1F034818381428179
S1132B709581841B89233817B1F083814281841B9A
S1132B808923381791F0838196959823A081B18188
S1132B90A90FB11D1C938F5F95818923838380E0E6
S1132BA005C082E003C081E001C080E02FBF01C006
S1132BB083E0DF91CF911F9108951F920F920FB67A
S1132BC00F9211240BB60F922F933F934F935F9361
S1132BD06F937F938F939F93AF93BF93CF93DF9321
S1132BE0EF93FF936EB5A091470DB091480D1896E1
S1132BF0ED91FC9119973097A1F083812281958101
S1132C00821B89232481821761F0838196959823FE
S1132C10C081D181C90FD11D68838F5F95818923BC
S1132C2083831696ED91FC911797309799F09381D1
S1132C308281981779F092818581282F26952923FE
S1132C40A081B181A20FB11D2C919F5F8923828342
S1132C502EBD2DC08CB58F778CBD1092490DA091DF
S1132C60470DB091480DED91FC9111973097F9F013
S1132C7013968C911397813071F4208181E090E058
S1132C8012960C9002C0880F991F0A94E2F780955F
S1132C90822380830CC0208181E090E012960C9006
S1132CA002C0880F991F0A94E2F7822B80838091D7
S1132CB0470D9091480DDC011A96ED91FC911B97FC
S1132CC0309709F01995FF91EF91DF91CF91BF9162
S1132CD0AF919F918F917F916F915F914F913F91B0
S1132CE02F910F900BBE0F900FBE0F901F90189551
S1132CF0FC01411102C00E949D1E842F90E09C01A2
S1132D002150310982239323892B11F00E949D1EA7
S1132D10413810F00E949D1E128213824483440F96
S1132D20415045837183608380E090E008952F9241
S1132D303F924F925F926F927F928F929F92AF9247
S1132D40CF92EF92FF920F931F93CF93DF93CDB760
S1132D50DEB7F82E2A013B0188E090E0CDD68C0145
S1132D608F2D90E0FC01EE0FFF1FE65BF24F118305
S1132D7000830115110509F464C0880F991FFC0133
S1132D80EB5EFD4F80819181D8018D939C938C2DB6
S1132D9090E0880F991F880F991FAED61C0186E01A
S1132DA090E0AAD67C014C2DB101A2DFF801F58296
S1132DB0E4828A2D90E0880F991F880F991F9CD672
S1132DC01C0186E090E098D67C014A2DB10190DF89
S1132DD0D8011396FC92EE92129717969C928E92BB
S1132DE01697FFB6F894ED91FC9111973697808170
S1132DF0826080838D909C90C301B2011CDB20E033
S1132E0030E040E051E474D49B01AC0160E074E232
S1132E1084E79BE430D320E030E040E85FE3C6D2AF
S1132E2097D3F40132976083D801ED91FC91119707
S1132E30359788E98083ED91FC91349786E080830F
S1132E40FFBEC801DF91CF911F910F91FF90EF90CA
S1132E50CF90AF909F908F907F906F905F904F90A6
S1132E603F902F900895CF93DF93DC01892B01F1DC
S1132E701296ED91FC911397938182812581981B81
S1132E80922384819817B1F0838126952823C081E9
S1132E90D181C20FD11D68838F5F9581892383837C
S1132EA0ED91FC91359780818062808380E003C03E
S1132EB081E001C082E0DF91CF9108950097D1F0C5
S1132EC0DC011496ED91FC911597938182819817FA
S1132ED099F09281858186958923A081B181A80F7B
S1132EE0B11D8C91DB018C939F5F85819823928324
S1132EF080E0089581E0089583E008951F920F9281
S1132F000FB60F9211240BB60F922F933F934F934A
S1132F105F936F937F938F939F93AF93BF93CF935D
S1132F20DF93EF93FF93A0914A0DB0914B0D10974F
S1132F3011F16091C6001496ED91FC91159793815F
S1132F4082812581981B92238481981761F0838163
S1132F5026952823C081D181C20FD11D68838F5F3C
S1132F609581892383831696ED91FC911797309769
S1132F7011F0CD011995FF91EF91DF91CF91BF91A0
S1132F80AF919F918F917F916F915F914F913F91FD
S1132F902F910F900BBE0F900FBE0F901F9018959E
S1132FA01F920F920FB60F9211240BB60F922F930C
S1132FB08F939F93AF93BF93EF93FF93E0914A0D49
S1132FC0F0914B0D3097B9F00280F381E02D93819D
S1132FD082819817B1F092818581282F2695292323
S1132FE0A081B181A20FB11D2C919F5F892382839F
S1132FF02093C6000BC0E1ECF0E080818F7D8083DC
S113300005C0E1ECF0E080818F7D8083FF91EF913A
S1133010BF91AF919F918F912F910F900BBE0F9005
S11330200FBE0F901F9018951F920F920FB60F921C
S113303011240BB60F922F933F934F935F936F938B
S11330407F938F939F93AF93BF93CF93DF93EF932C
S1133050FF93A0914C0DB0914D0D109711F160911B
S1133060CE001496ED91FC91159793818281258170
S1133070981B92238481981761F0838126952823D5
S1133080C081D181C20FD11D68838F5F958189234F
S113309083831696ED91FC911797309711F0CD012B
S11330A01995FF91EF91DF91CF91BF91AF919F91CE
S11330B08F917F916F915F914F913F912F910F90DD
S11330C00BBE0F900FBE0F901F9018951F920F927A
S11330D00FB60F9211240BB60F922F938F939F93D9
S11330E0AF93BF93EF93FF93E0914C0DF0914D0D8F
S11330F03097B9F00280F381E02D93818281981793
S1133100B1F092818581282F26952923A081B18150
S1133110A20FB11D2C919F5F892382832093CE003F
S11331200BC0E9ECF0E080818F7D808305C0E9EC81
S1133130F0E080818F7D8083FF91EF91BF91AF910B
S11331409F918F912F910F900BBE0F900FBE0F90F8
S11331501F9018951F920F920FB60F9211240BB661
S11331600F922F933F934F935F936F937F938F931C
S11331709F93AF93BF93CF93DF93EF93FF93A0916C
S11331804E0DB0914F0D109711F16091D600149629
S1133190ED91FC911597938182812581981B92234F
S11331A08481981761F0838126952823C081D18179
S11331B0C20FD11D68838F5F9581892383831696FF
S11331C0ED91FC911797309711F0CD011995FF916E
S11331D0EF91DF91CF91BF91AF919F918F917F91AB
S11331E06F915F914F913F912F910F900BBE0F9074
S11331F00FBE0F901F9018951F920F920FB60F924B
S113320011240BB60F922F938F939F93AF93BF9379
S1133210EF93FF93E0914E0DF0914F0D3097B9F07D
S11332200280F381E02D938182819817B1F092811D
S11332308581282F26952923A081B181A20FB11D54
S11332402C919F5F892382832093D6000BC0E1EDEC
S1133250F0E080818F7D808305C0E1EDF0E0808126
S11332608F7D8083FF91EF91BF91AF919F918F915B
S11332702F910F900BBE0F900FBE0F901F901895BB
S11332801F920F920FB60F9211240BB60F922F9329
S11332903F934F935F936F937F938F939F93AF93DA
S11332A0BF93CF93DF93EF93FF93A091500DB09111
S11332B0510D109711F1609136011496ED91FC9126
S11332C01597938182812581981B92238481981775
S11332D061F0838126952823C081D181C20FD11D3D
S11332E068838F5F9581892383831696ED91FC9182
S11332F01797309711F0CD011995FF91EF91DF9158
S1133300CF91BF91AF919F918F917F916F915F9179
S11333104F913F912F910F900BBE0F900FBE0F90C6
S11333201F9018951F920F920FB60F9211240BB68F
S11333300F922F938F939F93AF93BF93EF93FF932A
S1133340E091500DF091510D3097B9F00280F38166
S1133350E02D938182819817B1F092818581282F85
S113336026952923A081B181A20FB11D2C919F5FC5
S113337089238283209336010BC0E1E3F1E080814D
S11333808F7D808305C0E1E3F1E080818F7D8083C0
S1133390FF91EF91BF91AF919F918F912F910F90DA
S11333A00BBE0F900FBE0F901F9018955058BB275F
S11333B0AA270ED04CC13DD130F042D120F031F4D7
S11333C09F3F11F41EF432C10EF4E095E7FBFFC0F9
S11333D0E92F4ED180F3BA17620773078407950764
S11333E018F071F49EF57DC10EF4E0950B2EBA2F02
S11333F0A02D0B01B90190010C01CA01A0011124F7
S1133400FF27591B99F0593F50F4503E68F11A16A2
S1133410F040A22F232F342F4427585FF3CF469533
S113342037952795A795F0405395C9F77EF41F1655
S1133430BA0B620B730B840BBAF09150A1F0FF0F1F
S1133440BB1F661F771F881FC2F70EC0BA0F621F0B
S1133450731F841F48F4879577956795B795F795FB
S11334609E3F08F0B3CF9395880F08F09927EE0F8D
S11334709795879508950CD0EAC0E2D040F0D9D052
S113348030F021F45F3F19F0A2C051112BC1CEC01E
S1133490EFD098F39923C9F35523B1F3951B550B3A
S11334A0BB27AA2762177307840738F09F5F5F4F13
S11334B0220F331F441FAA1FA9F333D00E2E3AF054
S11334C0E0E830D091505040E695001CCAF729D06E
S11334D0FE2F27D0660F771F881FBB1F26173707BD
S11334E04807AB07B0E809F0BB0B802DBF01FF27ED
S11334F093585F4F2AF09E3F510568F068C0F2C0B0
S11335005F3FECF3983EDCF3869577956795B79526
S1133510F7959F5FC9F7880F911D9695879597F941
S11335200895E1E0660F771F881FBB1F62177307BA
S11335308407BA0720F0621B730B840BBA0BEE1FCF
S113354088F7E095089504D06894B111CBC008952C
S113355097D088F09F5790F0B92F9927B751A0F0D2
S1133560D1F0660F771F881F991F1AF0BA95C9F713
S113357012C0B13081F0B5D0B1E00895B2C0672F68
S1133580782F8827B85F39F0B93FCCF386957795C3
S11335906795B395D9F73EF49095809570956195AC
S11335A07F4F8F4F9F4F089585D080F09F3740F411
S11335B091110EF097C060E070E080E89FEB0895F1
S11335C026F41B16611D711D811D07C021C097F9CA
S11335D09F6780E870E060E00895882371F47723A2
S11335E021F09850872B762F07C0662311F4992772
S11335F00DC09051862B70E060E02AF09A95660F1A
S1133600771F881FDAF7880F9695879597F908959D
S11336109F3F31F0915020F4879577956795B79542
S1133620880F911D9695879597F908959FEF80ECE3
S1133630089500240A941616170618060906089514
S113364000240A9412161306140605060895092E7A
S11336500394000C11F4882352F0BB0F40F4BF2BE9
S113366011F460FF04C06F5F7F4F8F4F9F4F089529
S113367057FD9058440F551F59F05F3F71F047951F
S1133680880F97FB991F61F09F3F79F08795089504
S1133690121613061406551FF2CF4695F1DF08C023
S11336A0161617061806991FF1CF86957105610540
S11336B008940895E5DFA0F0BEE7B91788F4BB27A6
S11336C09F3860F41616B11D672F782F8827985FEE
S11336D0F7CF869577956795B11D93959639C8F37D
S11336E00895E894BB2766277727CB0197F90895B7
S11336F00BD0ADCF9EDF28F0A3DF18F0952309F09F
S113370066CF94CF1124EECFB3DFA0F3959FD1F30E
S1133710950F50E0551F629FF001729FBB27F00D7B
S1133720B11D639FAA27F00DB11DAA1F649F6627D0
S1133730B00DA11D661F829F2227B00DA11D621F1F
S1133740739FB00DA11D621F839FA00D611D221FD9
S1133750749F3327A00D611D231F849F600D211DBD
S1133760822F762F6A2F11249F5750408AF0E1F060
S113377088234AF0EE0FFF1FBB1F661F771F881FA9
S113378091505040A9F79E3F510570F020CFAACF29
S11337905F3FECF3983EDCF3869577956795B79594
S11337A0F795E7959F5FC1F7FE2B880F911D9695BE
S11337B0879597F90895FA01EE0FFF1F30962105BA
S11337C0310599F16115710561F48038BFE39B07F8
S11337D049F168949038810561F08038BFEF9B0708
S11337E041F0992342F5FF3FE1053105210511F12F
S11337F0E8940894E795D901AA2329F4AB2FBE2FA6
S1133800F85FD0F310C0FF5F70F4A695E0F7F739C6
S113381050F019F0FF3A38F49F779F930CD00F9033
S113382007FC905808953EF001CF60E070E080E816
S11338309FE308954FE79F775F934F933F932F93B1
S11338409ED02F913F914F915F9152DF05C019F4A3
S11338500EF0BDCE46CFEACE13DFC8F39638C0F7DC
S113386007F80F92E8942BE33AEA48EB5FE74EDF60
S11338700F920F920F924DB75EB70F92C1D0E8EF3F
S1133880F0E016D04F915F91EF91FF91E595EE1F17
S1133890FF1F49F0FE57E0684427EE0F441FFA95D6
S11338A0E1F74195550B32D00F9007FE26C00895DD
S11338B0DF93CF931F930F93FF92EF92DF927B01DD
S11338C08C01689405C0DA2EEF011EDFFE01E89436
S11338D0A5912591359145915591AEF3EF0178DD90
S11338E0FE019701A801DA9479F7DF90EF90FF9039
S11338F00F911F91CF91DF9108959B01AC0160E07E
S113390070E080E89FE3B7CD62CE82CEB9DEE8F303
S11339109923D9F3940F511DBBF39150504094F067
S113392059F0882332F0660F771F881F915050405A
S1133930C1F79E3F510544F7880F911D96958795D1
S113394097F908955F3FACF0983E9CF0BB278695AD
S113395077956795B79508F4B1609395C1F7BB0F58
S113396058F711F460FFE8CF6F5F7F4F8F4F9F4F81
S1133970E3CFB8CE0EF04CCE59CE689428CE80DE7C
S1133980C8F39923D1F3C6F3DF93CF931F930F9317
S1133990FF92C92FDD2788232AF02197660F771F0E
S11339A0881FDAF720E030E040E85FEB9FE38839D6
S11339B020F0803E30F021968F77F9DCE0E2F1E0F0
S11339C003C0F5DCEDE4F1E073DF8B01BE01EC0133
S11339D0FB2E6F5771097595771F880B990B0E9401
S11339E01D1228E132E741E35FE38EDEAF2D98013B
S11339F0AE01FF900F911F91CF91DF91E9DC27CEAB
S1133A00FA01DC01AA0FBB1F9B01AC01BF5728F4CC
S1133A1022273327442750781FC0B75188F4AB2F8F
S1133A200024469537952795011CA395D2F30020D1
S1133A3069F0220F331F441FB395DAF30DD0B6CCCF
S1133A4061307105A0E88A07B94630F49B01AC01E6
S1133A506627772788279078309621F02083318352
S1133A6042835383089597FB072E16F4009406D0DF
S1133A7077FD08D013D007FC05D03EF490958195CE
S1133A809F4F0895709561957F4F0895EE0FFF1F26
S1133A90881F8BBF0790F691E02D1994AA1BBB1BBE
S1133AA051E107C0AA1FBB1FA617B70710F0A61B3A
S1133AB0B70B881F991F5A95A9F780959095BC015B
S1133AC0CD0108950F931F93CF93DF93869F8001B9
S1133AD0879F100D969F100D1124C8010DD0EC0185
S1133AE0009721F0A80160E070E034D1CE01DF91AD
S1133AF0CF911F910F9108950F931F93CF93DF934D
S1133B008230910510F482E090E0E091560DF0913E
S1133B10570D20E030E0A0E0B0E0309719F140818B
S1133B2051810281138148175907C8F084179507FA
S1133B3069F4109731F012960C93129713961C9314
S1133B4027C00093560D1093570D22C0211531053F
S1133B5019F04217530718F49A01BD01EF01DF0170
S1133B60F801DBCF21153105F9F0281B390B24307E
S1133B70310580F48A819B816115710521F0FB0177
S1133B809383828304C09093570D8093560DFE0156
S1133B90329644C0FE01E20FF31F819391932250A9
S1133BA03109398328833AC02091540D3091550D41
S1133BB0232B41F420910202309103023093550DDE
S1133BC02093540D209100023091010221153105FA
S1133BD041F42DB73EB74091040250910502241BD5
S1133BE0350BE091540DF091550DE217F307A0F455
S1133BF02E1B3F0B2817390778F0AC014E5F5F4F3F
S1133C002417350748F04E0F5F1F5093550D40930E
S1133C10540D8193919302C0E0E0F0E0CF01DF9175
S1133C20CF911F910F910895CF93DF93009709F4DB
S1133C3081C0FC01329713821282A091560DB0917B
S1133C40570D109781F420813181820F931F2091A9
S1133C50540D3091550D2817390751F5F093550D32
S1133C60E093540D67C0ED0120E030E0CE17DF078C
S1133C7040F44A815B819E0141155105F1F0EA014E
S1133C80F5CFD383C28340815181840F951FC81718
S1133C90D90759F488819981840F951F02969183DD
S1133CA080838A819B81938382832115310529F442
S1133CB0F093570DE093560D3DC0E901FB83EA8371
S1133CC049915991C40FD51FEC17FD0761F4808108
S1133CD09181840F951F0296E901998388838281DB
S1133CE093819B838A83E0E0F0E012968D919C910E
S1133CF01397009719F0FD01DC01F7CF8D919C918A
S1133D0011979D012E5F3F4F820F931F2091540DF9
S1133D103091550D2817390769F4309729F410921A
S1133D20570D1092560D02C013821282B093550D96
S1133D30A093540DDF91CF91089581E090E0F89421
S1133D4040C0FB01DC0102C001900D924150504083
S1133D50D8F70895DC0101C06D9341505040E0F75D
S1133D6008950F931F93CF93DF93E0915A0DF09131
S1133D705B0D238121FF1BC08C01D0E0C0E0F80162
S1133D8081918F0160915A0D70915B0DDB01189642
S1133D90ED91FC911997882331F01995892B79F3CA
S1133DA0DFEFCFEFECCF8AE01995892B19F08FEF75
S1133DB09FEF02C08D2F9C2FDF91CF911F910F9108
S1093DC00895F894FFCF02
S1133DC600005E0D2000090000000300000000262C
S1133DD61411140000C600CE00D6003601546173D7
S1133DE66B310050726F6772616D20537461727427
S1133DF665642E0D0049444C4500546D722053767B
S1133E066300FC60DAF266B6BEE0FEE6EE3E1A7ABF
S10D3E169E8E000102030001020069
S9030000FC
